{
  "contracts/MemedFactory.sol": {
    "Factory": {
      "abi": [
        {
          "inputs": [],
          "stateMutability": "nonpayable",
          "type": "constructor"
        },
        {
          "inputs": [
            {
              "internalType": "address",
              "name": "owner",
              "type": "address"
            }
          ],
          "name": "OwnableInvalidOwner",
          "type": "error"
        },
        {
          "inputs": [
            {
              "internalType": "address",
              "name": "account",
              "type": "address"
            }
          ],
          "name": "OwnableUnauthorizedAccount",
          "type": "error"
        },
        {
          "anonymous": false,
          "inputs": [
            {
              "indexed": true,
              "internalType": "address",
              "name": "previousOwner",
              "type": "address"
            },
            {
              "indexed": true,
              "internalType": "address",
              "name": "newOwner",
              "type": "address"
            }
          ],
          "name": "OwnershipTransferred",
          "type": "event"
        },
        {
          "anonymous": false,
          "inputs": [
            {
              "indexed": true,
              "internalType": "address",
              "name": "token",
              "type": "address"
            },
            {
              "indexed": true,
              "internalType": "address",
              "name": "owner",
              "type": "address"
            },
            {
              "indexed": false,
              "internalType": "string",
              "name": "name",
              "type": "string"
            },
            {
              "indexed": false,
              "internalType": "string",
              "name": "ticker",
              "type": "string"
            },
            {
              "indexed": false,
              "internalType": "string",
              "name": "description",
              "type": "string"
            },
            {
              "indexed": false,
              "internalType": "string",
              "name": "image",
              "type": "string"
            }
          ],
          "name": "TokenCreated",
          "type": "event"
        },
        {
          "anonymous": false,
          "inputs": [
            {
              "indexed": true,
              "internalType": "address",
              "name": "token",
              "type": "address"
            },
            {
              "indexed": true,
              "internalType": "address",
              "name": "pool",
              "type": "address"
            }
          ],
          "name": "TokenGraduated",
          "type": "event"
        },
        {
          "anonymous": false,
          "inputs": [
            {
              "indexed": true,
              "internalType": "address",
              "name": "token",
              "type": "address"
            },
            {
              "indexed": true,
              "internalType": "address",
              "name": "recipient",
              "type": "address"
            },
            {
              "indexed": false,
              "internalType": "uint256",
              "name": "amount",
              "type": "uint256"
            }
          ],
          "name": "TokenWithdrawn",
          "type": "event"
        },
        {
          "anonymous": false,
          "inputs": [
            {
              "indexed": true,
              "internalType": "address",
              "name": "token",
              "type": "address"
            },
            {
              "indexed": true,
              "internalType": "address",
              "name": "buyer",
              "type": "address"
            },
            {
              "indexed": false,
              "internalType": "uint256",
              "name": "amount",
              "type": "uint256"
            },
            {
              "indexed": false,
              "internalType": "uint256",
              "name": "totalPrice",
              "type": "uint256"
            }
          ],
          "name": "TokensBought",
          "type": "event"
        },
        {
          "anonymous": false,
          "inputs": [
            {
              "indexed": true,
              "internalType": "address",
              "name": "token",
              "type": "address"
            },
            {
              "indexed": true,
              "internalType": "address",
              "name": "seller",
              "type": "address"
            },
            {
              "indexed": false,
              "internalType": "uint256",
              "name": "amount",
              "type": "uint256"
            },
            {
              "indexed": false,
              "internalType": "uint256",
              "name": "totalPrice",
              "type": "uint256"
            }
          ],
          "name": "TokensSold",
          "type": "event"
        },
        {
          "inputs": [],
          "name": "SCALING_FACTOR",
          "outputs": [
            {
              "internalType": "uint256",
              "name": "",
              "type": "uint256"
            }
          ],
          "stateMutability": "view",
          "type": "function"
        },
        {
          "inputs": [
            {
              "internalType": "address",
              "name": "",
              "type": "address"
            },
            {
              "internalType": "address",
              "name": "",
              "type": "address"
            }
          ],
          "name": "balance",
          "outputs": [
            {
              "internalType": "uint256",
              "name": "",
              "type": "uint256"
            }
          ],
          "stateMutability": "view",
          "type": "function"
        },
        {
          "inputs": [
            {
              "internalType": "address",
              "name": "_token",
              "type": "address"
            },
            {
              "internalType": "uint256",
              "name": "_amount",
              "type": "uint256"
            }
          ],
          "name": "buy",
          "outputs": [],
          "stateMutability": "payable",
          "type": "function"
        },
        {
          "inputs": [
            {
              "internalType": "string",
              "name": "_name",
              "type": "string"
            },
            {
              "internalType": "string",
              "name": "_ticker",
              "type": "string"
            },
            {
              "internalType": "string",
              "name": "_description",
              "type": "string"
            },
            {
              "internalType": "string",
              "name": "_image",
              "type": "string"
            }
          ],
          "name": "createMeme",
          "outputs": [],
          "stateMutability": "payable",
          "type": "function"
        },
        {
          "inputs": [],
          "name": "creationFee",
          "outputs": [
            {
              "internalType": "uint256",
              "name": "",
              "type": "uint256"
            }
          ],
          "stateMutability": "view",
          "type": "function"
        },
        {
          "inputs": [],
          "name": "feesBalance",
          "outputs": [
            {
              "internalType": "uint256",
              "name": "",
              "type": "uint256"
            }
          ],
          "stateMutability": "view",
          "type": "function"
        },
        {
          "inputs": [
            {
              "internalType": "address",
              "name": "_token",
              "type": "address"
            },
            {
              "internalType": "uint256",
              "name": "_amount",
              "type": "uint256"
            }
          ],
          "name": "getBNBAmount",
          "outputs": [
            {
              "internalType": "uint256[3]",
              "name": "",
              "type": "uint256[3]"
            }
          ],
          "stateMutability": "view",
          "type": "function"
        },
        {
          "inputs": [],
          "name": "graduationAmount",
          "outputs": [
            {
              "internalType": "uint256",
              "name": "",
              "type": "uint256"
            }
          ],
          "stateMutability": "view",
          "type": "function"
        },
        {
          "inputs": [],
          "name": "k",
          "outputs": [
            {
              "internalType": "uint256",
              "name": "",
              "type": "uint256"
            }
          ],
          "stateMutability": "view",
          "type": "function"
        },
        {
          "inputs": [],
          "name": "maxSupply",
          "outputs": [
            {
              "internalType": "uint256",
              "name": "",
              "type": "uint256"
            }
          ],
          "stateMutability": "view",
          "type": "function"
        },
        {
          "inputs": [],
          "name": "offset",
          "outputs": [
            {
              "internalType": "uint256",
              "name": "",
              "type": "uint256"
            }
          ],
          "stateMutability": "view",
          "type": "function"
        },
        {
          "inputs": [],
          "name": "owner",
          "outputs": [
            {
              "internalType": "address",
              "name": "",
              "type": "address"
            }
          ],
          "stateMutability": "view",
          "type": "function"
        },
        {
          "inputs": [],
          "name": "renounceOwnership",
          "outputs": [],
          "stateMutability": "nonpayable",
          "type": "function"
        },
        {
          "inputs": [
            {
              "internalType": "address",
              "name": "_token",
              "type": "address"
            },
            {
              "internalType": "uint256",
              "name": "_amount",
              "type": "uint256"
            }
          ],
          "name": "sell",
          "outputs": [],
          "stateMutability": "nonpayable",
          "type": "function"
        },
        {
          "inputs": [
            {
              "internalType": "uint256",
              "name": "_amount",
              "type": "uint256"
            }
          ],
          "name": "setGraduationAmount",
          "outputs": [],
          "stateMutability": "nonpayable",
          "type": "function"
        },
        {
          "inputs": [
            {
              "internalType": "address",
              "name": "",
              "type": "address"
            }
          ],
          "name": "tokenData",
          "outputs": [
            {
              "internalType": "string",
              "name": "name",
              "type": "string"
            },
            {
              "internalType": "string",
              "name": "ticker",
              "type": "string"
            },
            {
              "internalType": "string",
              "name": "description",
              "type": "string"
            },
            {
              "internalType": "string",
              "name": "image",
              "type": "string"
            },
            {
              "internalType": "address",
              "name": "owner",
              "type": "address"
            },
            {
              "internalType": "enum Factory.TokenStages",
              "name": "stage",
              "type": "uint8"
            },
            {
              "internalType": "uint256",
              "name": "collateral",
              "type": "uint256"
            }
          ],
          "stateMutability": "view",
          "type": "function"
        },
        {
          "inputs": [
            {
              "internalType": "uint256",
              "name": "",
              "type": "uint256"
            }
          ],
          "name": "tokens",
          "outputs": [
            {
              "internalType": "address",
              "name": "",
              "type": "address"
            }
          ],
          "stateMutability": "view",
          "type": "function"
        },
        {
          "inputs": [],
          "name": "tradeFeePercent",
          "outputs": [
            {
              "internalType": "uint256",
              "name": "",
              "type": "uint256"
            }
          ],
          "stateMutability": "view",
          "type": "function"
        },
        {
          "inputs": [
            {
              "internalType": "address",
              "name": "newOwner",
              "type": "address"
            }
          ],
          "name": "transferOwnership",
          "outputs": [],
          "stateMutability": "nonpayable",
          "type": "function"
        },
        {
          "inputs": [],
          "name": "withdrawFees",
          "outputs": [],
          "stateMutability": "nonpayable",
          "type": "function"
        },
        {
          "inputs": [
            {
              "internalType": "address",
              "name": "_token",
              "type": "address"
            }
          ],
          "name": "withdrawTokens",
          "outputs": [],
          "stateMutability": "nonpayable",
          "type": "function"
        },
        {
          "stateMutability": "payable",
          "type": "receive"
        }
      ],
      "evm": {
        "bytecode": {
          "linkReferences": {},
          "object": "608060405273b7926c0430afb07aa7defde6da862ae0bde767bc600160006101000a81548173ffffffffffffffffffffffffffffffffffffffff021916908373ffffffffffffffffffffffffffffffffffffffff160217905550739ac64cc6e4415144c455bd8e4837fea55603e5c3600260006101000a81548173ffffffffffffffffffffffffffffffffffffffff021916908373ffffffffffffffffffffffffffffffffffffffff1602179055506801a055690d9db800006003553480156100c757600080fd5b5033600073ffffffffffffffffffffffffffffffffffffffff168173ffffffffffffffffffffffffffffffffffffffff160361013b5760006040517f1e4fbdf70000000000000000000000000000000000000000000000000000000081526004016101329190610255565b60405180910390fd5b61014a8161015060201b60201c565b50610270565b60008060009054906101000a900473ffffffffffffffffffffffffffffffffffffffff169050816000806101000a81548173ffffffffffffffffffffffffffffffffffffffff021916908373ffffffffffffffffffffffffffffffffffffffff1602179055508173ffffffffffffffffffffffffffffffffffffffff168173ffffffffffffffffffffffffffffffffffffffff167f8be0079c531659141344cd1fd0a4f28419497f9722a3daafe3b4186f6b6457e060405160405180910390a35050565b600073ffffffffffffffffffffffffffffffffffffffff82169050919050565b600061023f82610214565b9050919050565b61024f81610234565b82525050565b600060208201905061026a6000830184610246565b92915050565b614d6f8061027f6000396000f3fe60806040526004361061012e5760003560e01c8063a6fd28a4116100ab578063cf60a1dc1161006f578063cf60a1dc146103c1578063d5556544146103ec578063d5abeb0114610417578063dce0b4e414610442578063ef4cadc51461046d578063f2fde38b1461049857610135565b8063a6fd28a4146102e4578063ac0e0a6d14610300578063b203bb991461033d578063b4f40c611461037a578063cce7ec13146103a557610135565b80636c197ff5116100f25780636c197ff5146102255780636d36f6c31461024e578063715018a6146102775780637518c9651461028e5780638da5cb5b146102b957610135565b806327e45c2c1461013a578063476343ee1461017d57806349df728c146101945780634f64b2be146101bd57806369b253e3146101fa57610135565b3661013557005b600080fd5b34801561014657600080fd5b50610161600480360381019061015c919061237c565b6104c1565b60405161017497969594939291906124d8565b60405180910390f35b34801561018957600080fd5b50610192610750565b005b3480156101a057600080fd5b506101bb60048036038101906101b6919061237c565b6107fd565b005b3480156101c957600080fd5b506101e460048036038101906101df919061258f565b610ae6565b6040516101f191906125bc565b60405180910390f35b34801561020657600080fd5b5061020f610b25565b60405161021c91906125d7565b60405180910390f35b34801561023157600080fd5b5061024c600480360381019061024791906125f2565b610b2a565b005b34801561025a57600080fd5b506102756004803603810190610270919061258f565b610f8a565b005b34801561028357600080fd5b5061028c610f9c565b005b34801561029a57600080fd5b506102a3610fb0565b6040516102b091906125d7565b60405180910390f35b3480156102c557600080fd5b506102ce610fb6565b6040516102db91906125bc565b60405180910390f35b6102fe60048036038101906102f99190612697565b610fdf565b005b34801561030c57600080fd5b50610327600480360381019061032291906125f2565b61147f565b604051610334919061282b565b60405180910390f35b34801561034957600080fd5b50610364600480360381019061035f9190612846565b6115ae565b60405161037191906125d7565b60405180910390f35b34801561038657600080fd5b5061038f6115d3565b60405161039c91906125d7565b60405180910390f35b6103bf60048036038101906103ba91906125f2565b6115d9565b005b3480156103cd57600080fd5b506103d6611ae8565b6040516103e391906125d7565b60405180910390f35b3480156103f857600080fd5b50610401611aee565b60405161040e91906125d7565b60405180910390f35b34801561042357600080fd5b5061042c611aff565b60405161043991906125d7565b60405180910390f35b34801561044e57600080fd5b50610457611b0f565b60405161046491906125d7565b60405180910390f35b34801561047957600080fd5b50610482611b1a565b60405161048f91906125d7565b60405180910390f35b3480156104a457600080fd5b506104bf60048036038101906104ba919061237c565b611b26565b005b60056020528060005260406000206000915090508060000180546104e4906128b5565b80601f0160208091040260200160405190810160405280929190818152602001828054610510906128b5565b801561055d5780601f106105325761010080835404028352916020019161055d565b820191906000526020600020905b81548152906001019060200180831161054057829003601f168201915b505050505090806001018054610572906128b5565b80601f016020809104026020016040519081016040528092919081815260200182805461059e906128b5565b80156105eb5780601f106105c0576101008083540402835291602001916105eb565b820191906000526020600020905b8154815290600101906020018083116105ce57829003601f168201915b505050505090806002018054610600906128b5565b80601f016020809104026020016040519081016040528092919081815260200182805461062c906128b5565b80156106795780601f1061064e57610100808354040283529160200191610679565b820191906000526020600020905b81548152906001019060200180831161065c57829003601f168201915b50505050509080600301805461068e906128b5565b80601f01602080910402602001604051908101604052809291908181526020018280546106ba906128b5565b80156107075780601f106106dc57610100808354040283529160200191610707565b820191906000526020600020905b8154815290600101906020018083116106ea57829003601f168201915b5050505050908060040160009054906101000a900473ffffffffffffffffffffffffffffffffffffffff16908060040160149054906101000a900460ff16908060050154905087565b610758611bac565b60006004541161079d576040517f08c379a000000000000000000000000000000000000000000000000000000000815260040161079490612932565b60405180910390fd5b6000600454905060006004819055506107b4610fb6565b73ffffffffffffffffffffffffffffffffffffffff166108fc829081150290604051600060405180830381858888f193505050501580156107f9573d6000803e3d6000fd5b5050565b6002808111156108105761080f612448565b5b600560008373ffffffffffffffffffffffffffffffffffffffff1673ffffffffffffffffffffffffffffffffffffffff16815260200190815260200160002060040160149054906101000a900460ff16600281111561087257610871612448565b5b146108b2576040517f08c379a00000000000000000000000000000000000000000000000000000000081526004016108a99061299e565b60405180910390fd5b6000600760008373ffffffffffffffffffffffffffffffffffffffff1673ffffffffffffffffffffffffffffffffffffffff16815260200190815260200160002060003373ffffffffffffffffffffffffffffffffffffffff1673ffffffffffffffffffffffffffffffffffffffff16815260200190815260200160002054905060008111610976576040517f08c379a000000000000000000000000000000000000000000000000000000000815260040161096d90612a0a565b60405180910390fd5b60008290508073ffffffffffffffffffffffffffffffffffffffff1663a9059cbb33846040518363ffffffff1660e01b81526004016109b6929190612a2a565b6020604051808303816000875af11580156109d5573d6000803e3d6000fd5b505050506040513d601f19601f820116820180604052508101906109f99190612a8b565b506000600760008573ffffffffffffffffffffffffffffffffffffffff1673ffffffffffffffffffffffffffffffffffffffff16815260200190815260200160002060003373ffffffffffffffffffffffffffffffffffffffff1673ffffffffffffffffffffffffffffffffffffffff168152602001908152602001600020819055503373ffffffffffffffffffffffffffffffffffffffff168373ffffffffffffffffffffffffffffffffffffffff167f8210728e7c071f615b840ee026032693858fbcd5e5359e67e438c890f59e562084604051610ad991906125d7565b60405180910390a3505050565b60068181548110610af657600080fd5b906000526020600020016000915054906101000a900473ffffffffffffffffffffffffffffffffffffffff1681565b600a81565b60016002811115610b3e57610b3d612448565b5b600560008473ffffffffffffffffffffffffffffffffffffffff1673ffffffffffffffffffffffffffffffffffffffff16815260200190815260200160002060040160149054906101000a900460ff166002811115610ba057610b9f612448565b5b14610be0576040517f08c379a0000000000000000000000000000000000000000000000000000000008152600401610bd79061299e565b60405180910390fd5b80600760008473ffffffffffffffffffffffffffffffffffffffff1673ffffffffffffffffffffffffffffffffffffffff16815260200190815260200160002060003373ffffffffffffffffffffffffffffffffffffffff1673ffffffffffffffffffffffffffffffffffffffff168152602001908152602001600020541015610c9f576040517f08c379a0000000000000000000000000000000000000000000000000000000008152600401610c9690612a0a565b60405180910390fd5b60008290506000610cb0848461147f565b9050600081600160038110610cc857610cc7612ab8565b5b602002015182600060038110610ce157610ce0612ab8565b5b6020020151610cf09190612b16565b905080471015610d35576040517f08c379a0000000000000000000000000000000000000000000000000000000008152600401610d2c90612b96565b60405180910390fd5b81600260038110610d4957610d48612ab8565b5b602002015160046000828254610d5f9190612bb6565b925050819055508273ffffffffffffffffffffffffffffffffffffffff166342966c68856040518263ffffffff1660e01b8152600401610d9f91906125d7565b600060405180830381600087803b158015610db957600080fd5b505af1158015610dcd573d6000803e3d6000fd5b5050505083600760008773ffffffffffffffffffffffffffffffffffffffff1673ffffffffffffffffffffffffffffffffffffffff16815260200190815260200160002060003373ffffffffffffffffffffffffffffffffffffffff1673ffffffffffffffffffffffffffffffffffffffff1681526020019081526020016000206000828254610e5d9190612b16565b9250508190555081600160038110610e7857610e77612ab8565b5b6020020151600560008773ffffffffffffffffffffffffffffffffffffffff1673ffffffffffffffffffffffffffffffffffffffff1681526020019081526020016000206005016000828254610ece9190612b16565b925050819055503373ffffffffffffffffffffffffffffffffffffffff166108fc829081150290604051600060405180830381858888f19350505050158015610f1b573d6000803e3d6000fd5b503373ffffffffffffffffffffffffffffffffffffffff168573ffffffffffffffffffffffffffffffffffffffff167f697c42d55a5e1fed3f464ec6f38b32546a0bd368dc8068b065c67566d73f32908684604051610f7b929190612bea565b60405180910390a35050505050565b610f92611bac565b8060038190555050565b610fa4611bac565b610fae6000611c33565b565b60045481565b60008060009054906101000a900473ffffffffffffffffffffffffffffffffffffffff16905090565b66071afd498d0000341015611029576040517f08c379a000000000000000000000000000000000000000000000000000000000815260040161102090612c85565b60405180910390fd5b66071afd498d0000600460008282546110429190612bb6565b9250508190555060008888888860405161105b906122e5565b6110689493929190612ce1565b604051809103906000f080158015611084573d6000803e3d6000fd5b5090506040518060e001604052808a8a8080601f016020809104026020016040519081016040528093929190818152602001838380828437600081840152601f19601f82011690508083019250505050505050815260200188888080601f016020809104026020016040519081016040528093929190818152602001838380828437600081840152601f19601f82011690508083019250505050505050815260200186868080601f016020809104026020016040519081016040528093929190818152602001838380828437600081840152601f19601f82011690508083019250505050505050815260200184848080601f016020809104026020016040519081016040528093929190818152602001838380828437600081840152601f19601f8201169050808301925050505050505081526020013373ffffffffffffffffffffffffffffffffffffffff168152602001600160028111156111ea576111e9612448565b5b81526020016000815250600560008373ffffffffffffffffffffffffffffffffffffffff1673ffffffffffffffffffffffffffffffffffffffff16815260200190815260200160002060008201518160000190816112489190612ef7565b50602082015181600101908161125e9190612ef7565b5060408201518160020190816112749190612ef7565b50606082015181600301908161128a9190612ef7565b5060808201518160040160006101000a81548173ffffffffffffffffffffffffffffffffffffffff021916908373ffffffffffffffffffffffffffffffffffffffff16021790555060a08201518160040160146101000a81548160ff021916908360028111156112fd576112fc612448565b5b021790555060c082015181600501559050506006819080600181540180825580915050600190039060005260206000200160009091909190916101000a81548173ffffffffffffffffffffffffffffffffffffffff021916908373ffffffffffffffffffffffffffffffffffffffff1602179055508073ffffffffffffffffffffffffffffffffffffffff1663a0712d68606460146b033b2e3c9fd0803ce80000006113a99190612fc9565b6113b3919061303a565b6040518263ffffffff1660e01b81526004016113cf91906125d7565b600060405180830381600087803b1580156113e957600080fd5b505af11580156113fd573d6000803e3d6000fd5b505050503373ffffffffffffffffffffffffffffffffffffffff168173ffffffffffffffffffffffffffffffffffffffff167fbf7c04c85cf6065fe470bdd2e5f178d16c57630df24f464a6e1c297aab97872b8b8b8b8b8b8b8b8b60405161146c98979695949392919061306b565b60405180910390a3505050505050505050565b6114876122f2565b600083905060008173ffffffffffffffffffffffffffffffffffffffff166318160ddd6040518163ffffffff1660e01b8152600401602060405180830381865afa1580156114d9573d6000803e3d6000fd5b505050506040513d601f19601f820116820180604052508101906114fd91906130e9565b90506000848261150d9190612bb6565b905060006ceca8847c4129106ce8300000008261b71b61152d9190612fc9565b6115379190612bb6565b90506000670de0b6b3a764000082886115509190612fc9565b61155a919061303a565b90506000612710600a8361156e9190612fc9565b611578919061303a565b9050604051806060016040528082846115919190612bb6565b815260200183815260200182815250965050505050505092915050565b6007602052816000526040600020602052806000526040600020600091509150505481565b61b71b81565b600160028111156115ed576115ec612448565b5b600560008473ffffffffffffffffffffffffffffffffffffffff1673ffffffffffffffffffffffffffffffffffffffff16815260200190815260200160002060040160149054906101000a900460ff16600281111561164f5761164e612448565b5b1461168f576040517f08c379a000000000000000000000000000000000000000000000000000000000815260040161168690613162565b60405180910390fd5b60008290508073ffffffffffffffffffffffffffffffffffffffff166318160ddd6040518163ffffffff1660e01b8152600401602060405180830381865afa1580156116df573d6000803e3d6000fd5b505050506040513d601f19601f8201168201806040525081019061170391906130e9565b606460146b033b2e3c9fd0803ce800000061171e9190612fc9565b611728919061303a565b6b033b2e3c9fd0803ce800000061173f9190612b16565b6117499190612b16565b82111561178b576040517f08c379a0000000000000000000000000000000000000000000000000000000008152600401611782906131ce565b60405180910390fd5b6000611797848461147f565b9050806000600381106117ad576117ac612ab8565b5b60200201513410156117f4576040517f08c379a00000000000000000000000000000000000000000000000000000000081526004016117eb9061323a565b60405180910390fd5b8060026003811061180857611807612ab8565b5b60200201516004600082825461181e9190612bb6565b925050819055508173ffffffffffffffffffffffffffffffffffffffff1663a0712d68846040518263ffffffff1660e01b815260040161185e91906125d7565b600060405180830381600087803b15801561187857600080fd5b505af115801561188c573d6000803e3d6000fd5b50505050806001600381106118a4576118a3612ab8565b5b6020020151600560008673ffffffffffffffffffffffffffffffffffffffff1673ffffffffffffffffffffffffffffffffffffffff16815260200190815260200160002060050160008282546118fa9190612bb6565b9250508190555082600760008673ffffffffffffffffffffffffffffffffffffffff1673ffffffffffffffffffffffffffffffffffffffff16815260200190815260200160002060003373ffffffffffffffffffffffffffffffffffffffff1673ffffffffffffffffffffffffffffffffffffffff168152602001908152602001600020600082825461198d9190612bb6565b925050819055506000816000600381106119aa576119a9612ab8565b5b6020020151346119ba9190612b16565b90506000811115611a0d573373ffffffffffffffffffffffffffffffffffffffff166108fc829081150290604051600060405180830381858888f19350505050158015611a0b573d6000803e3d6000fd5b505b600354600560008773ffffffffffffffffffffffffffffffffffffffff1673ffffffffffffffffffffffffffffffffffffffff1681526020019081526020016000206005015410611a6257611a6185611cf7565b5b3373ffffffffffffffffffffffffffffffffffffffff168573ffffffffffffffffffffffffffffffffffffffff167fc244d500136edffae7025aaf7fbd7a07193ac544a1d0cc3132cf2a32452d340c8685600160038110611ac657611ac5612ab8565b5b6020020151604051611ad9929190612bea565b60405180910390a35050505050565b60035481565b6ceca8847c4129106ce83000000081565b6b033b2e3c9fd0803ce800000081565b66071afd498d000081565b670de0b6b3a764000081565b611b2e611bac565b600073ffffffffffffffffffffffffffffffffffffffff168173ffffffffffffffffffffffffffffffffffffffff1603611ba05760006040517f1e4fbdf7000000000000000000000000000000000000000000000000000000008152600401611b9791906125bc565b60405180910390fd5b611ba981611c33565b50565b611bb46122dd565b73ffffffffffffffffffffffffffffffffffffffff16611bd2610fb6565b73ffffffffffffffffffffffffffffffffffffffff1614611c3157611bf56122dd565b6040517f118cdaa7000000000000000000000000000000000000000000000000000000008152600401611c2891906125bc565b60405180910390fd5b565b60008060009054906101000a900473ffffffffffffffffffffffffffffffffffffffff169050816000806101000a81548173ffffffffffffffffffffffffffffffffffffffff021916908373ffffffffffffffffffffffffffffffffffffffff1602179055508173ffffffffffffffffffffffffffffffffffffffff168173ffffffffffffffffffffffffffffffffffffffff167f8be0079c531659141344cd1fd0a4f28419497f9722a3daafe3b4186f6b6457e060405160405180910390a35050565b600080600160009054906101000a900473ffffffffffffffffffffffffffffffffffffffff1673ffffffffffffffffffffffffffffffffffffffff1663e6a4390584600260009054906101000a900473ffffffffffffffffffffffffffffffffffffffff1673ffffffffffffffffffffffffffffffffffffffff1663ad5c46486040518163ffffffff1660e01b8152600401602060405180830381865afa158015611da6573d6000803e3d6000fd5b505050506040513d601f19601f82011682018060405250810190611dca919061326f565b6040518363ffffffff1660e01b8152600401611de792919061329c565b602060405180830381865afa158015611e04573d6000803e3d6000fd5b505050506040513d601f19601f82011682018060405250810190611e28919061326f565b9050600073ffffffffffffffffffffffffffffffffffffffff168173ffffffffffffffffffffffffffffffffffffffff1603611f9557600160009054906101000a900473ffffffffffffffffffffffffffffffffffffffff1673ffffffffffffffffffffffffffffffffffffffff1663c9c6539684600260009054906101000a900473ffffffffffffffffffffffffffffffffffffffff1673ffffffffffffffffffffffffffffffffffffffff1663ad5c46486040518163ffffffff1660e01b8152600401602060405180830381865afa158015611f0a573d6000803e3d6000fd5b505050506040513d601f19601f82011682018060405250810190611f2e919061326f565b6040518363ffffffff1660e01b8152600401611f4b92919061329c565b6020604051808303816000875af1158015611f6a573d6000803e3d6000fd5b505050506040513d601f19601f82011682018060405250810190611f8e919061326f565b9150611f99565b8091505b60008390508073ffffffffffffffffffffffffffffffffffffffff1663095ea7b3600260009054906101000a900473ffffffffffffffffffffffffffffffffffffffff16606460146b033b2e3c9fd0803ce8000000611ff89190612fc9565b612002919061303a565b6040518363ffffffff1660e01b815260040161201f929190612a2a565b6020604051808303816000875af115801561203e573d6000803e3d6000fd5b505050506040513d601f19601f820116820180604052508101906120629190612a8b565b50600260009054906101000a900473ffffffffffffffffffffffffffffffffffffffff1673ffffffffffffffffffffffffffffffffffffffff1663f305d719606460626003546120b29190612fc9565b6120bc919061303a565b86606460146b033b2e3c9fd0803ce80000006120d89190612fc9565b6120e2919061303a565b6000806000426040518863ffffffff1660e01b815260040161210996959493929190613300565b60606040518083038185885af1158015612127573d6000803e3d6000fd5b50505050506040513d601f19601f8201168201806040525081019061214c9190613361565b505050600560008573ffffffffffffffffffffffffffffffffffffffff1673ffffffffffffffffffffffffffffffffffffffff16815260200190815260200160002060040160009054906101000a900473ffffffffffffffffffffffffffffffffffffffff1673ffffffffffffffffffffffffffffffffffffffff166108fc606460026003546121dc9190612fc9565b6121e6919061303a565b9081150290604051600060405180830381858888f19350505050158015612211573d6000803e3d6000fd5b506002600560008673ffffffffffffffffffffffffffffffffffffffff1673ffffffffffffffffffffffffffffffffffffffff16815260200190815260200160002060040160146101000a81548160ff0219169083600281111561227857612277612448565b5b02179055508273ffffffffffffffffffffffffffffffffffffffff168473ffffffffffffffffffffffffffffffffffffffff167f806ef27e0c58d1db68e3780cb50bde63b59139693b61ab9fdff83126acc3a9a060405160405180910390a350505050565b600033905090565b611985806133b583390190565b6040518060600160405280600390602082028036833780820191505090505090565b600080fd5b600080fd5b600073ffffffffffffffffffffffffffffffffffffffff82169050919050565b60006123498261231e565b9050919050565b6123598161233e565b811461236457600080fd5b50565b60008135905061237681612350565b92915050565b60006020828403121561239257612391612314565b5b60006123a084828501612367565b91505092915050565b600081519050919050565b600082825260208201905092915050565b60005b838110156123e35780820151818401526020810190506123c8565b60008484015250505050565b6000601f19601f8301169050919050565b600061240b826123a9565b61241581856123b4565b93506124258185602086016123c5565b61242e816123ef565b840191505092915050565b6124428161233e565b82525050565b7f4e487b7100000000000000000000000000000000000000000000000000000000600052602160045260246000fd5b6003811061248857612487612448565b5b50565b600081905061249982612477565b919050565b60006124a98261248b565b9050919050565b6124b98161249e565b82525050565b6000819050919050565b6124d2816124bf565b82525050565b600060e08201905081810360008301526124f2818a612400565b905081810360208301526125068189612400565b9050818103604083015261251a8188612400565b9050818103606083015261252e8187612400565b905061253d6080830186612439565b61254a60a08301856124b0565b61255760c08301846124c9565b98975050505050505050565b61256c816124bf565b811461257757600080fd5b50565b60008135905061258981612563565b92915050565b6000602082840312156125a5576125a4612314565b5b60006125b38482850161257a565b91505092915050565b60006020820190506125d16000830184612439565b92915050565b60006020820190506125ec60008301846124c9565b92915050565b6000806040838503121561260957612608612314565b5b600061261785828601612367565b92505060206126288582860161257a565b9150509250929050565b600080fd5b600080fd5b600080fd5b60008083601f84011261265757612656612632565b5b8235905067ffffffffffffffff81111561267457612673612637565b5b6020830191508360018202830111156126905761268f61263c565b5b9250929050565b6000806000806000806000806080898b0312156126b7576126b6612314565b5b600089013567ffffffffffffffff8111156126d5576126d4612319565b5b6126e18b828c01612641565b9850985050602089013567ffffffffffffffff81111561270457612703612319565b5b6127108b828c01612641565b9650965050604089013567ffffffffffffffff81111561273357612732612319565b5b61273f8b828c01612641565b9450945050606089013567ffffffffffffffff81111561276257612761612319565b5b61276e8b828c01612641565b92509250509295985092959890939650565b600060039050919050565b600081905092915050565b6000819050919050565b6127a9816124bf565b82525050565b60006127bb83836127a0565b60208301905092915050565b6000602082019050919050565b6127dd81612780565b6127e7818461278b565b92506127f282612796565b8060005b8381101561282357815161280a87826127af565b9650612815836127c7565b9250506001810190506127f6565b505050505050565b600060608201905061284060008301846127d4565b92915050565b6000806040838503121561285d5761285c612314565b5b600061286b85828601612367565b925050602061287c85828601612367565b9150509250929050565b7f4e487b7100000000000000000000000000000000000000000000000000000000600052602260045260246000fd5b600060028204905060018216806128cd57607f821691505b6020821081036128e0576128df612886565b5b50919050565b7f4e6f206665657320746f20776974686472617700000000000000000000000000600082015250565b600061291c6013836123b4565b9150612927826128e6565b602082019050919050565b6000602082019050818103600083015261294b8161290f565b9050919050565b7f496e76616c696420746f6b656e20737461676500000000000000000000000000600082015250565b60006129886013836123b4565b915061299382612952565b602082019050919050565b600060208201905081810360008301526129b78161297b565b9050919050565b7f496e73756666696369656e7420746f6b656e2062616c616e6365000000000000600082015250565b60006129f4601a836123b4565b91506129ff826129be565b602082019050919050565b60006020820190508181036000830152612a23816129e7565b9050919050565b6000604082019050612a3f6000830185612439565b612a4c60208301846124c9565b9392505050565b60008115159050919050565b612a6881612a53565b8114612a7357600080fd5b50565b600081519050612a8581612a5f565b92915050565b600060208284031215612aa157612aa0612314565b5b6000612aaf84828501612a76565b91505092915050565b7f4e487b7100000000000000000000000000000000000000000000000000000000600052603260045260246000fd5b7f4e487b7100000000000000000000000000000000000000000000000000000000600052601160045260246000fd5b6000612b21826124bf565b9150612b2c836124bf565b9250828203905081811115612b4457612b43612ae7565b5b92915050565b7f496e73756666696369656e7420636f6e74726163742062616c616e6365000000600082015250565b6000612b80601d836123b4565b9150612b8b82612b4a565b602082019050919050565b60006020820190508181036000830152612baf81612b73565b9050919050565b6000612bc1826124bf565b9150612bcc836124bf565b9250828201905080821115612be457612be3612ae7565b5b92915050565b6000604082019050612bff60008301856124c9565b612c0c60208301846124c9565b9392505050565b7f496e73756666696369656e7420424e4220666f72206372656174696f6e20666560008201527f6500000000000000000000000000000000000000000000000000000000000000602082015250565b6000612c6f6021836123b4565b9150612c7a82612c13565b604082019050919050565b60006020820190508181036000830152612c9e81612c62565b9050919050565b82818337600083830152505050565b6000612cc083856123b4565b9350612ccd838584612ca5565b612cd6836123ef565b840190509392505050565b60006040820190508181036000830152612cfc818688612cb4565b90508181036020830152612d11818486612cb4565b905095945050505050565b7f4e487b7100000000000000000000000000000000000000000000000000000000600052604160045260246000fd5b60008190508160005260206000209050919050565b60006020601f8301049050919050565b600082821b905092915050565b600060088302612dad7fffffffffffffffffffffffffffffffffffffffffffffffffffffffffffffffff82612d70565b612db78683612d70565b95508019841693508086168417925050509392505050565b6000819050919050565b6000612df4612def612dea846124bf565b612dcf565b6124bf565b9050919050565b6000819050919050565b612e0e83612dd9565b612e22612e1a82612dfb565b848454612d7d565b825550505050565b600090565b612e37612e2a565b612e42818484612e05565b505050565b5b81811015612e6657612e5b600082612e2f565b600181019050612e48565b5050565b601f821115612eab57612e7c81612d4b565b612e8584612d60565b81016020851015612e94578190505b612ea8612ea085612d60565b830182612e47565b50505b505050565b600082821c905092915050565b6000612ece60001984600802612eb0565b1980831691505092915050565b6000612ee78383612ebd565b9150826002028217905092915050565b612f00826123a9565b67ffffffffffffffff811115612f1957612f18612d1c565b5b612f2382546128b5565b612f2e828285612e6a565b600060209050601f831160018114612f615760008415612f4f578287015190505b612f598582612edb565b865550612fc1565b601f198416612f6f86612d4b565b60005b82811015612f9757848901518255600182019150602085019450602081019050612f72565b86831015612fb45784890151612fb0601f891682612ebd565b8355505b6001600288020188555050505b505050505050565b6000612fd4826124bf565b9150612fdf836124bf565b9250828202612fed816124bf565b9150828204841483151761300457613003612ae7565b5b5092915050565b7f4e487b7100000000000000000000000000000000000000000000000000000000600052601260045260246000fd5b6000613045826124bf565b9150613050836124bf565b9250826130605761305f61300b565b5b828204905092915050565b60006080820190508181036000830152613086818a8c612cb4565b9050818103602083015261309b81888a612cb4565b905081810360408301526130b0818688612cb4565b905081810360608301526130c5818486612cb4565b90509998505050505050505050565b6000815190506130e381612563565b92915050565b6000602082840312156130ff576130fe612314565b5b600061310d848285016130d4565b91505092915050565b7f496e76616c696420746f6b656e00000000000000000000000000000000000000600082015250565b600061314c600d836123b4565b915061315782613116565b602082019050919050565b6000602082019050818103600083015261317b8161313f565b9050919050565b7f4e6f7420656e6f75676820617661696c61626c6520746f6b656e730000000000600082015250565b60006131b8601b836123b4565b91506131c382613182565b602082019050919050565b600060208201905081810360008301526131e7816131ab565b9050919050565b7f4e6f7420656e6f75676820424e4220666f722074726164650000000000000000600082015250565b60006132246018836123b4565b915061322f826131ee565b602082019050919050565b6000602082019050818103600083015261325381613217565b9050919050565b60008151905061326981612350565b92915050565b60006020828403121561328557613284612314565b5b60006132938482850161325a565b91505092915050565b60006040820190506132b16000830185612439565b6132be6020830184612439565b9392505050565b6000819050919050565b60006132ea6132e56132e0846132c5565b612dcf565b6124bf565b9050919050565b6132fa816132cf565b82525050565b600060c0820190506133156000830189612439565b61332260208301886124c9565b61332f60408301876132f1565b61333c60608301866132f1565b6133496080830185612439565b61335660a08301846124c9565b979650505050505050565b60008060006060848603121561337a57613379612314565b5b6000613388868287016130d4565b9350506020613399868287016130d4565b92505060406133aa868287016130d4565b915050925092509256fe608060405234801561001057600080fd5b506040516119853803806119858339818101604052810190610032919061031b565b338282816003908161004491906105b4565b50806004908161005491906105b4565b505050600073ffffffffffffffffffffffffffffffffffffffff168173ffffffffffffffffffffffffffffffffffffffff16036100c95760006040517f1e4fbdf70000000000000000000000000000000000000000000000000000000081526004016100c091906106c7565b60405180910390fd5b6100d8816100e060201b60201c565b5050506106e2565b6000600560009054906101000a900473ffffffffffffffffffffffffffffffffffffffff16905081600560006101000a81548173ffffffffffffffffffffffffffffffffffffffff021916908373ffffffffffffffffffffffffffffffffffffffff1602179055508173ffffffffffffffffffffffffffffffffffffffff168173ffffffffffffffffffffffffffffffffffffffff167f8be0079c531659141344cd1fd0a4f28419497f9722a3daafe3b4186f6b6457e060405160405180910390a35050565b6000604051905090565b600080fd5b600080fd5b600080fd5b600080fd5b6000601f19601f8301169050919050565b7f4e487b7100000000000000000000000000000000000000000000000000000000600052604160045260246000fd5b61020d826101c4565b810181811067ffffffffffffffff8211171561022c5761022b6101d5565b5b80604052505050565b600061023f6101a6565b905061024b8282610204565b919050565b600067ffffffffffffffff82111561026b5761026a6101d5565b5b610274826101c4565b9050602081019050919050565b60005b8381101561029f578082015181840152602081019050610284565b60008484015250505050565b60006102be6102b984610250565b610235565b9050828152602081018484840111156102da576102d96101bf565b5b6102e5848285610281565b509392505050565b600082601f830112610302576103016101ba565b5b81516103128482602086016102ab565b91505092915050565b60008060408385031215610332576103316101b0565b5b600083015167ffffffffffffffff8111156103505761034f6101b5565b5b61035c858286016102ed565b925050602083015167ffffffffffffffff81111561037d5761037c6101b5565b5b610389858286016102ed565b9150509250929050565b600081519050919050565b7f4e487b7100000000000000000000000000000000000000000000000000000000600052602260045260246000fd5b600060028204905060018216806103e557607f821691505b6020821081036103f8576103f761039e565b5b50919050565b60008190508160005260206000209050919050565b60006020601f8301049050919050565b600082821b905092915050565b6000600883026104607fffffffffffffffffffffffffffffffffffffffffffffffffffffffffffffffff82610423565b61046a8683610423565b95508019841693508086168417925050509392505050565b6000819050919050565b6000819050919050565b60006104b16104ac6104a784610482565b61048c565b610482565b9050919050565b6000819050919050565b6104cb83610496565b6104df6104d7826104b8565b848454610430565b825550505050565b600090565b6104f46104e7565b6104ff8184846104c2565b505050565b5b81811015610523576105186000826104ec565b600181019050610505565b5050565b601f82111561056857610539816103fe565b61054284610413565b81016020851015610551578190505b61056561055d85610413565b830182610504565b50505b505050565b600082821c905092915050565b600061058b6000198460080261056d565b1980831691505092915050565b60006105a4838361057a565b9150826002028217905092915050565b6105bd82610393565b67ffffffffffffffff8111156105d6576105d56101d5565b5b6105e082546103cd565b6105eb828285610527565b600060209050601f83116001811461061e576000841561060c578287015190505b6106168582610598565b86555061067e565b601f19841661062c866103fe565b60005b828110156106545784890151825560018201915060208501945060208101905061062f565b86831015610671578489015161066d601f89168261057a565b8355505b6001600288020188555050505b505050505050565b600073ffffffffffffffffffffffffffffffffffffffff82169050919050565b60006106b182610686565b9050919050565b6106c1816106a6565b82525050565b60006020820190506106dc60008301846106b8565b92915050565b611294806106f16000396000f3fe608060405234801561001057600080fd5b50600436106100ea5760003560e01c8063715018a61161008c578063a0712d6811610066578063a0712d681461023b578063a9059cbb14610257578063dd62ed3e14610287578063f2fde38b146102b7576100ea565b8063715018a6146101f55780638da5cb5b146101ff57806395d89b411461021d576100ea565b806323b872dd116100c857806323b872dd1461015b578063313ce5671461018b57806342966c68146101a957806370a08231146101c5576100ea565b806306fdde03146100ef578063095ea7b31461010d57806318160ddd1461013d575b600080fd5b6100f76102d3565b6040516101049190610ebb565b60405180910390f35b61012760048036038101906101229190610f76565b610365565b6040516101349190610fd1565b60405180910390f35b610145610388565b6040516101529190610ffb565b60405180910390f35b61017560048036038101906101709190611016565b610392565b6040516101829190610fd1565b60405180910390f35b6101936103c1565b6040516101a09190611085565b60405180910390f35b6101c360048036038101906101be91906110a0565b6103ca565b005b6101df60048036038101906101da91906110cd565b6103df565b6040516101ec9190610ffb565b60405180910390f35b6101fd610427565b005b61020761043b565b6040516102149190611109565b60405180910390f35b610225610465565b6040516102329190610ebb565b60405180910390f35b610255600480360381019061025091906110a0565b6104f7565b005b610271600480360381019061026c9190610f76565b61050c565b60405161027e9190610fd1565b60405180910390f35b6102a1600480360381019061029c9190611124565b61052f565b6040516102ae9190610ffb565b60405180910390f35b6102d160048036038101906102cc91906110cd565b6105b6565b005b6060600380546102e290611193565b80601f016020809104026020016040519081016040528092919081815260200182805461030e90611193565b801561035b5780601f106103305761010080835404028352916020019161035b565b820191906000526020600020905b81548152906001019060200180831161033e57829003601f168201915b5050505050905090565b60008061037061063c565b905061037d818585610644565b600191505092915050565b6000600254905090565b60008061039d61063c565b90506103aa858285610656565b6103b58585856106ea565b60019150509392505050565b60006012905090565b6103d26107de565b6103dc3382610865565b50565b60008060008373ffffffffffffffffffffffffffffffffffffffff1673ffffffffffffffffffffffffffffffffffffffff168152602001908152602001600020549050919050565b61042f6107de565b61043960006108e7565b565b6000600560009054906101000a900473ffffffffffffffffffffffffffffffffffffffff16905090565b60606004805461047490611193565b80601f01602080910402602001604051908101604052809291908181526020018280546104a090611193565b80156104ed5780601f106104c2576101008083540402835291602001916104ed565b820191906000526020600020905b8154815290600101906020018083116104d057829003601f168201915b5050505050905090565b6104ff6107de565b61050933826109ad565b50565b60008061051761063c565b90506105248185856106ea565b600191505092915050565b6000600160008473ffffffffffffffffffffffffffffffffffffffff1673ffffffffffffffffffffffffffffffffffffffff16815260200190815260200160002060008373ffffffffffffffffffffffffffffffffffffffff1673ffffffffffffffffffffffffffffffffffffffff16815260200190815260200160002054905092915050565b6105be6107de565b600073ffffffffffffffffffffffffffffffffffffffff168173ffffffffffffffffffffffffffffffffffffffff16036106305760006040517f1e4fbdf70000000000000000000000000000000000000000000000000000000081526004016106279190611109565b60405180910390fd5b610639816108e7565b50565b600033905090565b6106518383836001610a2f565b505050565b6000610662848461052f565b90507fffffffffffffffffffffffffffffffffffffffffffffffffffffffffffffffff81146106e457818110156106d4578281836040517ffb8f41b20000000000000000000000000000000000000000000000000000000081526004016106cb939291906111c4565b60405180910390fd5b6106e384848484036000610a2f565b5b50505050565b600073ffffffffffffffffffffffffffffffffffffffff168373ffffffffffffffffffffffffffffffffffffffff160361075c5760006040517f96c6fd1e0000000000000000000000000000000000000000000000000000000081526004016107539190611109565b60405180910390fd5b600073ffffffffffffffffffffffffffffffffffffffff168273ffffffffffffffffffffffffffffffffffffffff16036107ce5760006040517fec442f050000000000000000000000000000000000000000000000000000000081526004016107c59190611109565b60405180910390fd5b6107d9838383610c06565b505050565b6107e661063c565b73ffffffffffffffffffffffffffffffffffffffff1661080461043b565b73ffffffffffffffffffffffffffffffffffffffff16146108635761082761063c565b6040517f118cdaa700000000000000000000000000000000000000000000000000000000815260040161085a9190611109565b60405180910390fd5b565b600073ffffffffffffffffffffffffffffffffffffffff168273ffffffffffffffffffffffffffffffffffffffff16036108d75760006040517f96c6fd1e0000000000000000000000000000000000000000000000000000000081526004016108ce9190611109565b60405180910390fd5b6108e382600083610c06565b5050565b6000600560009054906101000a900473ffffffffffffffffffffffffffffffffffffffff16905081600560006101000a81548173ffffffffffffffffffffffffffffffffffffffff021916908373ffffffffffffffffffffffffffffffffffffffff1602179055508173ffffffffffffffffffffffffffffffffffffffff168173ffffffffffffffffffffffffffffffffffffffff167f8be0079c531659141344cd1fd0a4f28419497f9722a3daafe3b4186f6b6457e060405160405180910390a35050565b600073ffffffffffffffffffffffffffffffffffffffff168273ffffffffffffffffffffffffffffffffffffffff1603610a1f5760006040517fec442f05000000000000000000000000000000000000000000000000000000008152600401610a169190611109565b60405180910390fd5b610a2b60008383610c06565b5050565b600073ffffffffffffffffffffffffffffffffffffffff168473ffffffffffffffffffffffffffffffffffffffff1603610aa15760006040517fe602df05000000000000000000000000000000000000000000000000000000008152600401610a989190611109565b60405180910390fd5b600073ffffffffffffffffffffffffffffffffffffffff168373ffffffffffffffffffffffffffffffffffffffff1603610b135760006040517f94280d62000000000000000000000000000000000000000000000000000000008152600401610b0a9190611109565b60405180910390fd5b81600160008673ffffffffffffffffffffffffffffffffffffffff1673ffffffffffffffffffffffffffffffffffffffff16815260200190815260200160002060008573ffffffffffffffffffffffffffffffffffffffff1673ffffffffffffffffffffffffffffffffffffffff168152602001908152602001600020819055508015610c00578273ffffffffffffffffffffffffffffffffffffffff168473ffffffffffffffffffffffffffffffffffffffff167f8c5be1e5ebec7d5bd14f71427d1e84f3dd0314c0f7b2291e5b200ac8c7c3b92584604051610bf79190610ffb565b60405180910390a35b50505050565b600073ffffffffffffffffffffffffffffffffffffffff168373ffffffffffffffffffffffffffffffffffffffff1603610c58578060026000828254610c4c919061122a565b92505081905550610d2b565b60008060008573ffffffffffffffffffffffffffffffffffffffff1673ffffffffffffffffffffffffffffffffffffffff16815260200190815260200160002054905081811015610ce4578381836040517fe450d38c000000000000000000000000000000000000000000000000000000008152600401610cdb939291906111c4565b60405180910390fd5b8181036000808673ffffffffffffffffffffffffffffffffffffffff1673ffffffffffffffffffffffffffffffffffffffff16815260200190815260200160002081905550505b600073ffffffffffffffffffffffffffffffffffffffff168273ffffffffffffffffffffffffffffffffffffffff1603610d745780600260008282540392505081905550610dc1565b806000808473ffffffffffffffffffffffffffffffffffffffff1673ffffffffffffffffffffffffffffffffffffffff168152602001908152602001600020600082825401925050819055505b8173ffffffffffffffffffffffffffffffffffffffff168373ffffffffffffffffffffffffffffffffffffffff167fddf252ad1be2c89b69c2b068fc378daa952ba7f163c4a11628f55a4df523b3ef83604051610e1e9190610ffb565b60405180910390a3505050565b600081519050919050565b600082825260208201905092915050565b60005b83811015610e65578082015181840152602081019050610e4a565b60008484015250505050565b6000601f19601f8301169050919050565b6000610e8d82610e2b565b610e978185610e36565b9350610ea7818560208601610e47565b610eb081610e71565b840191505092915050565b60006020820190508181036000830152610ed58184610e82565b905092915050565b600080fd5b600073ffffffffffffffffffffffffffffffffffffffff82169050919050565b6000610f0d82610ee2565b9050919050565b610f1d81610f02565b8114610f2857600080fd5b50565b600081359050610f3a81610f14565b92915050565b6000819050919050565b610f5381610f40565b8114610f5e57600080fd5b50565b600081359050610f7081610f4a565b92915050565b60008060408385031215610f8d57610f8c610edd565b5b6000610f9b85828601610f2b565b9250506020610fac85828601610f61565b9150509250929050565b60008115159050919050565b610fcb81610fb6565b82525050565b6000602082019050610fe66000830184610fc2565b92915050565b610ff581610f40565b82525050565b60006020820190506110106000830184610fec565b92915050565b60008060006060848603121561102f5761102e610edd565b5b600061103d86828701610f2b565b935050602061104e86828701610f2b565b925050604061105f86828701610f61565b9150509250925092565b600060ff82169050919050565b61107f81611069565b82525050565b600060208201905061109a6000830184611076565b92915050565b6000602082840312156110b6576110b5610edd565b5b60006110c484828501610f61565b91505092915050565b6000602082840312156110e3576110e2610edd565b5b60006110f184828501610f2b565b91505092915050565b61110381610f02565b82525050565b600060208201905061111e60008301846110fa565b92915050565b6000806040838503121561113b5761113a610edd565b5b600061114985828601610f2b565b925050602061115a85828601610f2b565b9150509250929050565b7f4e487b7100000000000000000000000000000000000000000000000000000000600052602260045260246000fd5b600060028204905060018216806111ab57607f821691505b6020821081036111be576111bd611164565b5b50919050565b60006060820190506111d960008301866110fa565b6111e66020830185610fec565b6111f36040830184610fec565b949350505050565b7f4e487b7100000000000000000000000000000000000000000000000000000000600052601160045260246000fd5b600061123582610f40565b915061124083610f40565b9250828201905080821115611258576112576111fb565b5b9291505056fea26469706673582212201e0ec30c9a76127be9186f759e6c0080a55bd21f761b21770f4bb94f7d0ae3c564736f6c634300081c0033a2646970667358221220898bcdd714260011a5652beaf931d27cef2bce7926ff63d80dce235ccd773da464736f6c634300081c0033",
          "opcodes": "PUSH1 0x80 PUSH1 0x40 MSTORE PUSH20 0xB7926C0430AFB07AA7DEFDE6DA862AE0BDE767BC PUSH1 0x1 PUSH1 0x0 PUSH2 0x100 EXP DUP2 SLOAD DUP2 PUSH20 0xFFFFFFFFFFFFFFFFFFFFFFFFFFFFFFFFFFFFFFFF MUL NOT AND SWAP1 DUP4 PUSH20 0xFFFFFFFFFFFFFFFFFFFFFFFFFFFFFFFFFFFFFFFF AND MUL OR SWAP1 SSTORE POP PUSH20 0x9AC64CC6E4415144C455BD8E4837FEA55603E5C3 PUSH1 0x2 PUSH1 0x0 PUSH2 0x100 EXP DUP2 SLOAD DUP2 PUSH20 0xFFFFFFFFFFFFFFFFFFFFFFFFFFFFFFFFFFFFFFFF MUL NOT AND SWAP1 DUP4 PUSH20 0xFFFFFFFFFFFFFFFFFFFFFFFFFFFFFFFFFFFFFFFF AND MUL OR SWAP1 SSTORE POP PUSH9 0x1A055690D9DB80000 PUSH1 0x3 SSTORE CALLVALUE DUP1 ISZERO PUSH2 0xC7 JUMPI PUSH1 0x0 DUP1 REVERT JUMPDEST POP CALLER PUSH1 0x0 PUSH20 0xFFFFFFFFFFFFFFFFFFFFFFFFFFFFFFFFFFFFFFFF AND DUP2 PUSH20 0xFFFFFFFFFFFFFFFFFFFFFFFFFFFFFFFFFFFFFFFF AND SUB PUSH2 0x13B JUMPI PUSH1 0x0 PUSH1 0x40 MLOAD PUSH32 0x1E4FBDF700000000000000000000000000000000000000000000000000000000 DUP2 MSTORE PUSH1 0x4 ADD PUSH2 0x132 SWAP2 SWAP1 PUSH2 0x255 JUMP JUMPDEST PUSH1 0x40 MLOAD DUP1 SWAP2 SUB SWAP1 REVERT JUMPDEST PUSH2 0x14A DUP2 PUSH2 0x150 PUSH1 0x20 SHL PUSH1 0x20 SHR JUMP JUMPDEST POP PUSH2 0x270 JUMP JUMPDEST PUSH1 0x0 DUP1 PUSH1 0x0 SWAP1 SLOAD SWAP1 PUSH2 0x100 EXP SWAP1 DIV PUSH20 0xFFFFFFFFFFFFFFFFFFFFFFFFFFFFFFFFFFFFFFFF AND SWAP1 POP DUP2 PUSH1 0x0 DUP1 PUSH2 0x100 EXP DUP2 SLOAD DUP2 PUSH20 0xFFFFFFFFFFFFFFFFFFFFFFFFFFFFFFFFFFFFFFFF MUL NOT AND SWAP1 DUP4 PUSH20 0xFFFFFFFFFFFFFFFFFFFFFFFFFFFFFFFFFFFFFFFF AND MUL OR SWAP1 SSTORE POP DUP2 PUSH20 0xFFFFFFFFFFFFFFFFFFFFFFFFFFFFFFFFFFFFFFFF AND DUP2 PUSH20 0xFFFFFFFFFFFFFFFFFFFFFFFFFFFFFFFFFFFFFFFF AND PUSH32 0x8BE0079C531659141344CD1FD0A4F28419497F9722A3DAAFE3B4186F6B6457E0 PUSH1 0x40 MLOAD PUSH1 0x40 MLOAD DUP1 SWAP2 SUB SWAP1 LOG3 POP POP JUMP JUMPDEST PUSH1 0x0 PUSH20 0xFFFFFFFFFFFFFFFFFFFFFFFFFFFFFFFFFFFFFFFF DUP3 AND SWAP1 POP SWAP2 SWAP1 POP JUMP JUMPDEST PUSH1 0x0 PUSH2 0x23F DUP3 PUSH2 0x214 JUMP JUMPDEST SWAP1 POP SWAP2 SWAP1 POP JUMP JUMPDEST PUSH2 0x24F DUP2 PUSH2 0x234 JUMP JUMPDEST DUP3 MSTORE POP POP JUMP JUMPDEST PUSH1 0x0 PUSH1 0x20 DUP3 ADD SWAP1 POP PUSH2 0x26A PUSH1 0x0 DUP4 ADD DUP5 PUSH2 0x246 JUMP JUMPDEST SWAP3 SWAP2 POP POP JUMP JUMPDEST PUSH2 0x4D6F DUP1 PUSH2 0x27F PUSH1 0x0 CODECOPY PUSH1 0x0 RETURN INVALID PUSH1 0x80 PUSH1 0x40 MSTORE PUSH1 0x4 CALLDATASIZE LT PUSH2 0x12E JUMPI PUSH1 0x0 CALLDATALOAD PUSH1 0xE0 SHR DUP1 PUSH4 0xA6FD28A4 GT PUSH2 0xAB JUMPI DUP1 PUSH4 0xCF60A1DC GT PUSH2 0x6F JUMPI DUP1 PUSH4 0xCF60A1DC EQ PUSH2 0x3C1 JUMPI DUP1 PUSH4 0xD5556544 EQ PUSH2 0x3EC JUMPI DUP1 PUSH4 0xD5ABEB01 EQ PUSH2 0x417 JUMPI DUP1 PUSH4 0xDCE0B4E4 EQ PUSH2 0x442 JUMPI DUP1 PUSH4 0xEF4CADC5 EQ PUSH2 0x46D JUMPI DUP1 PUSH4 0xF2FDE38B EQ PUSH2 0x498 JUMPI PUSH2 0x135 JUMP JUMPDEST DUP1 PUSH4 0xA6FD28A4 EQ PUSH2 0x2E4 JUMPI DUP1 PUSH4 0xAC0E0A6D EQ PUSH2 0x300 JUMPI DUP1 PUSH4 0xB203BB99 EQ PUSH2 0x33D JUMPI DUP1 PUSH4 0xB4F40C61 EQ PUSH2 0x37A JUMPI DUP1 PUSH4 0xCCE7EC13 EQ PUSH2 0x3A5 JUMPI PUSH2 0x135 JUMP JUMPDEST DUP1 PUSH4 0x6C197FF5 GT PUSH2 0xF2 JUMPI DUP1 PUSH4 0x6C197FF5 EQ PUSH2 0x225 JUMPI DUP1 PUSH4 0x6D36F6C3 EQ PUSH2 0x24E JUMPI DUP1 PUSH4 0x715018A6 EQ PUSH2 0x277 JUMPI DUP1 PUSH4 0x7518C965 EQ PUSH2 0x28E JUMPI DUP1 PUSH4 0x8DA5CB5B EQ PUSH2 0x2B9 JUMPI PUSH2 0x135 JUMP JUMPDEST DUP1 PUSH4 0x27E45C2C EQ PUSH2 0x13A JUMPI DUP1 PUSH4 0x476343EE EQ PUSH2 0x17D JUMPI DUP1 PUSH4 0x49DF728C EQ PUSH2 0x194 JUMPI DUP1 PUSH4 0x4F64B2BE EQ PUSH2 0x1BD JUMPI DUP1 PUSH4 0x69B253E3 EQ PUSH2 0x1FA JUMPI PUSH2 0x135 JUMP JUMPDEST CALLDATASIZE PUSH2 0x135 JUMPI STOP JUMPDEST PUSH1 0x0 DUP1 REVERT JUMPDEST CALLVALUE DUP1 ISZERO PUSH2 0x146 JUMPI PUSH1 0x0 DUP1 REVERT JUMPDEST POP PUSH2 0x161 PUSH1 0x4 DUP1 CALLDATASIZE SUB DUP2 ADD SWAP1 PUSH2 0x15C SWAP2 SWAP1 PUSH2 0x237C JUMP JUMPDEST PUSH2 0x4C1 JUMP JUMPDEST PUSH1 0x40 MLOAD PUSH2 0x174 SWAP8 SWAP7 SWAP6 SWAP5 SWAP4 SWAP3 SWAP2 SWAP1 PUSH2 0x24D8 JUMP JUMPDEST PUSH1 0x40 MLOAD DUP1 SWAP2 SUB SWAP1 RETURN JUMPDEST CALLVALUE DUP1 ISZERO PUSH2 0x189 JUMPI PUSH1 0x0 DUP1 REVERT JUMPDEST POP PUSH2 0x192 PUSH2 0x750 JUMP JUMPDEST STOP JUMPDEST CALLVALUE DUP1 ISZERO PUSH2 0x1A0 JUMPI PUSH1 0x0 DUP1 REVERT JUMPDEST POP PUSH2 0x1BB PUSH1 0x4 DUP1 CALLDATASIZE SUB DUP2 ADD SWAP1 PUSH2 0x1B6 SWAP2 SWAP1 PUSH2 0x237C JUMP JUMPDEST PUSH2 0x7FD JUMP JUMPDEST STOP JUMPDEST CALLVALUE DUP1 ISZERO PUSH2 0x1C9 JUMPI PUSH1 0x0 DUP1 REVERT JUMPDEST POP PUSH2 0x1E4 PUSH1 0x4 DUP1 CALLDATASIZE SUB DUP2 ADD SWAP1 PUSH2 0x1DF SWAP2 SWAP1 PUSH2 0x258F JUMP JUMPDEST PUSH2 0xAE6 JUMP JUMPDEST PUSH1 0x40 MLOAD PUSH2 0x1F1 SWAP2 SWAP1 PUSH2 0x25BC JUMP JUMPDEST PUSH1 0x40 MLOAD DUP1 SWAP2 SUB SWAP1 RETURN JUMPDEST CALLVALUE DUP1 ISZERO PUSH2 0x206 JUMPI PUSH1 0x0 DUP1 REVERT JUMPDEST POP PUSH2 0x20F PUSH2 0xB25 JUMP JUMPDEST PUSH1 0x40 MLOAD PUSH2 0x21C SWAP2 SWAP1 PUSH2 0x25D7 JUMP JUMPDEST PUSH1 0x40 MLOAD DUP1 SWAP2 SUB SWAP1 RETURN JUMPDEST CALLVALUE DUP1 ISZERO PUSH2 0x231 JUMPI PUSH1 0x0 DUP1 REVERT JUMPDEST POP PUSH2 0x24C PUSH1 0x4 DUP1 CALLDATASIZE SUB DUP2 ADD SWAP1 PUSH2 0x247 SWAP2 SWAP1 PUSH2 0x25F2 JUMP JUMPDEST PUSH2 0xB2A JUMP JUMPDEST STOP JUMPDEST CALLVALUE DUP1 ISZERO PUSH2 0x25A JUMPI PUSH1 0x0 DUP1 REVERT JUMPDEST POP PUSH2 0x275 PUSH1 0x4 DUP1 CALLDATASIZE SUB DUP2 ADD SWAP1 PUSH2 0x270 SWAP2 SWAP1 PUSH2 0x258F JUMP JUMPDEST PUSH2 0xF8A JUMP JUMPDEST STOP JUMPDEST CALLVALUE DUP1 ISZERO PUSH2 0x283 JUMPI PUSH1 0x0 DUP1 REVERT JUMPDEST POP PUSH2 0x28C PUSH2 0xF9C JUMP JUMPDEST STOP JUMPDEST CALLVALUE DUP1 ISZERO PUSH2 0x29A JUMPI PUSH1 0x0 DUP1 REVERT JUMPDEST POP PUSH2 0x2A3 PUSH2 0xFB0 JUMP JUMPDEST PUSH1 0x40 MLOAD PUSH2 0x2B0 SWAP2 SWAP1 PUSH2 0x25D7 JUMP JUMPDEST PUSH1 0x40 MLOAD DUP1 SWAP2 SUB SWAP1 RETURN JUMPDEST CALLVALUE DUP1 ISZERO PUSH2 0x2C5 JUMPI PUSH1 0x0 DUP1 REVERT JUMPDEST POP PUSH2 0x2CE PUSH2 0xFB6 JUMP JUMPDEST PUSH1 0x40 MLOAD PUSH2 0x2DB SWAP2 SWAP1 PUSH2 0x25BC JUMP JUMPDEST PUSH1 0x40 MLOAD DUP1 SWAP2 SUB SWAP1 RETURN JUMPDEST PUSH2 0x2FE PUSH1 0x4 DUP1 CALLDATASIZE SUB DUP2 ADD SWAP1 PUSH2 0x2F9 SWAP2 SWAP1 PUSH2 0x2697 JUMP JUMPDEST PUSH2 0xFDF JUMP JUMPDEST STOP JUMPDEST CALLVALUE DUP1 ISZERO PUSH2 0x30C JUMPI PUSH1 0x0 DUP1 REVERT JUMPDEST POP PUSH2 0x327 PUSH1 0x4 DUP1 CALLDATASIZE SUB DUP2 ADD SWAP1 PUSH2 0x322 SWAP2 SWAP1 PUSH2 0x25F2 JUMP JUMPDEST PUSH2 0x147F JUMP JUMPDEST PUSH1 0x40 MLOAD PUSH2 0x334 SWAP2 SWAP1 PUSH2 0x282B JUMP JUMPDEST PUSH1 0x40 MLOAD DUP1 SWAP2 SUB SWAP1 RETURN JUMPDEST CALLVALUE DUP1 ISZERO PUSH2 0x349 JUMPI PUSH1 0x0 DUP1 REVERT JUMPDEST POP PUSH2 0x364 PUSH1 0x4 DUP1 CALLDATASIZE SUB DUP2 ADD SWAP1 PUSH2 0x35F SWAP2 SWAP1 PUSH2 0x2846 JUMP JUMPDEST PUSH2 0x15AE JUMP JUMPDEST PUSH1 0x40 MLOAD PUSH2 0x371 SWAP2 SWAP1 PUSH2 0x25D7 JUMP JUMPDEST PUSH1 0x40 MLOAD DUP1 SWAP2 SUB SWAP1 RETURN JUMPDEST CALLVALUE DUP1 ISZERO PUSH2 0x386 JUMPI PUSH1 0x0 DUP1 REVERT JUMPDEST POP PUSH2 0x38F PUSH2 0x15D3 JUMP JUMPDEST PUSH1 0x40 MLOAD PUSH2 0x39C SWAP2 SWAP1 PUSH2 0x25D7 JUMP JUMPDEST PUSH1 0x40 MLOAD DUP1 SWAP2 SUB SWAP1 RETURN JUMPDEST PUSH2 0x3BF PUSH1 0x4 DUP1 CALLDATASIZE SUB DUP2 ADD SWAP1 PUSH2 0x3BA SWAP2 SWAP1 PUSH2 0x25F2 JUMP JUMPDEST PUSH2 0x15D9 JUMP JUMPDEST STOP JUMPDEST CALLVALUE DUP1 ISZERO PUSH2 0x3CD JUMPI PUSH1 0x0 DUP1 REVERT JUMPDEST POP PUSH2 0x3D6 PUSH2 0x1AE8 JUMP JUMPDEST PUSH1 0x40 MLOAD PUSH2 0x3E3 SWAP2 SWAP1 PUSH2 0x25D7 JUMP JUMPDEST PUSH1 0x40 MLOAD DUP1 SWAP2 SUB SWAP1 RETURN JUMPDEST CALLVALUE DUP1 ISZERO PUSH2 0x3F8 JUMPI PUSH1 0x0 DUP1 REVERT JUMPDEST POP PUSH2 0x401 PUSH2 0x1AEE JUMP JUMPDEST PUSH1 0x40 MLOAD PUSH2 0x40E SWAP2 SWAP1 PUSH2 0x25D7 JUMP JUMPDEST PUSH1 0x40 MLOAD DUP1 SWAP2 SUB SWAP1 RETURN JUMPDEST CALLVALUE DUP1 ISZERO PUSH2 0x423 JUMPI PUSH1 0x0 DUP1 REVERT JUMPDEST POP PUSH2 0x42C PUSH2 0x1AFF JUMP JUMPDEST PUSH1 0x40 MLOAD PUSH2 0x439 SWAP2 SWAP1 PUSH2 0x25D7 JUMP JUMPDEST PUSH1 0x40 MLOAD DUP1 SWAP2 SUB SWAP1 RETURN JUMPDEST CALLVALUE DUP1 ISZERO PUSH2 0x44E JUMPI PUSH1 0x0 DUP1 REVERT JUMPDEST POP PUSH2 0x457 PUSH2 0x1B0F JUMP JUMPDEST PUSH1 0x40 MLOAD PUSH2 0x464 SWAP2 SWAP1 PUSH2 0x25D7 JUMP JUMPDEST PUSH1 0x40 MLOAD DUP1 SWAP2 SUB SWAP1 RETURN JUMPDEST CALLVALUE DUP1 ISZERO PUSH2 0x479 JUMPI PUSH1 0x0 DUP1 REVERT JUMPDEST POP PUSH2 0x482 PUSH2 0x1B1A JUMP JUMPDEST PUSH1 0x40 MLOAD PUSH2 0x48F SWAP2 SWAP1 PUSH2 0x25D7 JUMP JUMPDEST PUSH1 0x40 MLOAD DUP1 SWAP2 SUB SWAP1 RETURN JUMPDEST CALLVALUE DUP1 ISZERO PUSH2 0x4A4 JUMPI PUSH1 0x0 DUP1 REVERT JUMPDEST POP PUSH2 0x4BF PUSH1 0x4 DUP1 CALLDATASIZE SUB DUP2 ADD SWAP1 PUSH2 0x4BA SWAP2 SWAP1 PUSH2 0x237C JUMP JUMPDEST PUSH2 0x1B26 JUMP JUMPDEST STOP JUMPDEST PUSH1 0x5 PUSH1 0x20 MSTORE DUP1 PUSH1 0x0 MSTORE PUSH1 0x40 PUSH1 0x0 KECCAK256 PUSH1 0x0 SWAP2 POP SWAP1 POP DUP1 PUSH1 0x0 ADD DUP1 SLOAD PUSH2 0x4E4 SWAP1 PUSH2 0x28B5 JUMP JUMPDEST DUP1 PUSH1 0x1F ADD PUSH1 0x20 DUP1 SWAP2 DIV MUL PUSH1 0x20 ADD PUSH1 0x40 MLOAD SWAP1 DUP2 ADD PUSH1 0x40 MSTORE DUP1 SWAP3 SWAP2 SWAP1 DUP2 DUP2 MSTORE PUSH1 0x20 ADD DUP3 DUP1 SLOAD PUSH2 0x510 SWAP1 PUSH2 0x28B5 JUMP JUMPDEST DUP1 ISZERO PUSH2 0x55D JUMPI DUP1 PUSH1 0x1F LT PUSH2 0x532 JUMPI PUSH2 0x100 DUP1 DUP4 SLOAD DIV MUL DUP4 MSTORE SWAP2 PUSH1 0x20 ADD SWAP2 PUSH2 0x55D JUMP JUMPDEST DUP3 ADD SWAP2 SWAP1 PUSH1 0x0 MSTORE PUSH1 0x20 PUSH1 0x0 KECCAK256 SWAP1 JUMPDEST DUP2 SLOAD DUP2 MSTORE SWAP1 PUSH1 0x1 ADD SWAP1 PUSH1 0x20 ADD DUP1 DUP4 GT PUSH2 0x540 JUMPI DUP3 SWAP1 SUB PUSH1 0x1F AND DUP3 ADD SWAP2 JUMPDEST POP POP POP POP POP SWAP1 DUP1 PUSH1 0x1 ADD DUP1 SLOAD PUSH2 0x572 SWAP1 PUSH2 0x28B5 JUMP JUMPDEST DUP1 PUSH1 0x1F ADD PUSH1 0x20 DUP1 SWAP2 DIV MUL PUSH1 0x20 ADD PUSH1 0x40 MLOAD SWAP1 DUP2 ADD PUSH1 0x40 MSTORE DUP1 SWAP3 SWAP2 SWAP1 DUP2 DUP2 MSTORE PUSH1 0x20 ADD DUP3 DUP1 SLOAD PUSH2 0x59E SWAP1 PUSH2 0x28B5 JUMP JUMPDEST DUP1 ISZERO PUSH2 0x5EB JUMPI DUP1 PUSH1 0x1F LT PUSH2 0x5C0 JUMPI PUSH2 0x100 DUP1 DUP4 SLOAD DIV MUL DUP4 MSTORE SWAP2 PUSH1 0x20 ADD SWAP2 PUSH2 0x5EB JUMP JUMPDEST DUP3 ADD SWAP2 SWAP1 PUSH1 0x0 MSTORE PUSH1 0x20 PUSH1 0x0 KECCAK256 SWAP1 JUMPDEST DUP2 SLOAD DUP2 MSTORE SWAP1 PUSH1 0x1 ADD SWAP1 PUSH1 0x20 ADD DUP1 DUP4 GT PUSH2 0x5CE JUMPI DUP3 SWAP1 SUB PUSH1 0x1F AND DUP3 ADD SWAP2 JUMPDEST POP POP POP POP POP SWAP1 DUP1 PUSH1 0x2 ADD DUP1 SLOAD PUSH2 0x600 SWAP1 PUSH2 0x28B5 JUMP JUMPDEST DUP1 PUSH1 0x1F ADD PUSH1 0x20 DUP1 SWAP2 DIV MUL PUSH1 0x20 ADD PUSH1 0x40 MLOAD SWAP1 DUP2 ADD PUSH1 0x40 MSTORE DUP1 SWAP3 SWAP2 SWAP1 DUP2 DUP2 MSTORE PUSH1 0x20 ADD DUP3 DUP1 SLOAD PUSH2 0x62C SWAP1 PUSH2 0x28B5 JUMP JUMPDEST DUP1 ISZERO PUSH2 0x679 JUMPI DUP1 PUSH1 0x1F LT PUSH2 0x64E JUMPI PUSH2 0x100 DUP1 DUP4 SLOAD DIV MUL DUP4 MSTORE SWAP2 PUSH1 0x20 ADD SWAP2 PUSH2 0x679 JUMP JUMPDEST DUP3 ADD SWAP2 SWAP1 PUSH1 0x0 MSTORE PUSH1 0x20 PUSH1 0x0 KECCAK256 SWAP1 JUMPDEST DUP2 SLOAD DUP2 MSTORE SWAP1 PUSH1 0x1 ADD SWAP1 PUSH1 0x20 ADD DUP1 DUP4 GT PUSH2 0x65C JUMPI DUP3 SWAP1 SUB PUSH1 0x1F AND DUP3 ADD SWAP2 JUMPDEST POP POP POP POP POP SWAP1 DUP1 PUSH1 0x3 ADD DUP1 SLOAD PUSH2 0x68E SWAP1 PUSH2 0x28B5 JUMP JUMPDEST DUP1 PUSH1 0x1F ADD PUSH1 0x20 DUP1 SWAP2 DIV MUL PUSH1 0x20 ADD PUSH1 0x40 MLOAD SWAP1 DUP2 ADD PUSH1 0x40 MSTORE DUP1 SWAP3 SWAP2 SWAP1 DUP2 DUP2 MSTORE PUSH1 0x20 ADD DUP3 DUP1 SLOAD PUSH2 0x6BA SWAP1 PUSH2 0x28B5 JUMP JUMPDEST DUP1 ISZERO PUSH2 0x707 JUMPI DUP1 PUSH1 0x1F LT PUSH2 0x6DC JUMPI PUSH2 0x100 DUP1 DUP4 SLOAD DIV MUL DUP4 MSTORE SWAP2 PUSH1 0x20 ADD SWAP2 PUSH2 0x707 JUMP JUMPDEST DUP3 ADD SWAP2 SWAP1 PUSH1 0x0 MSTORE PUSH1 0x20 PUSH1 0x0 KECCAK256 SWAP1 JUMPDEST DUP2 SLOAD DUP2 MSTORE SWAP1 PUSH1 0x1 ADD SWAP1 PUSH1 0x20 ADD DUP1 DUP4 GT PUSH2 0x6EA JUMPI DUP3 SWAP1 SUB PUSH1 0x1F AND DUP3 ADD SWAP2 JUMPDEST POP POP POP POP POP SWAP1 DUP1 PUSH1 0x4 ADD PUSH1 0x0 SWAP1 SLOAD SWAP1 PUSH2 0x100 EXP SWAP1 DIV PUSH20 0xFFFFFFFFFFFFFFFFFFFFFFFFFFFFFFFFFFFFFFFF AND SWAP1 DUP1 PUSH1 0x4 ADD PUSH1 0x14 SWAP1 SLOAD SWAP1 PUSH2 0x100 EXP SWAP1 DIV PUSH1 0xFF AND SWAP1 DUP1 PUSH1 0x5 ADD SLOAD SWAP1 POP DUP8 JUMP JUMPDEST PUSH2 0x758 PUSH2 0x1BAC JUMP JUMPDEST PUSH1 0x0 PUSH1 0x4 SLOAD GT PUSH2 0x79D JUMPI PUSH1 0x40 MLOAD PUSH32 0x8C379A000000000000000000000000000000000000000000000000000000000 DUP2 MSTORE PUSH1 0x4 ADD PUSH2 0x794 SWAP1 PUSH2 0x2932 JUMP JUMPDEST PUSH1 0x40 MLOAD DUP1 SWAP2 SUB SWAP1 REVERT JUMPDEST PUSH1 0x0 PUSH1 0x4 SLOAD SWAP1 POP PUSH1 0x0 PUSH1 0x4 DUP2 SWAP1 SSTORE POP PUSH2 0x7B4 PUSH2 0xFB6 JUMP JUMPDEST PUSH20 0xFFFFFFFFFFFFFFFFFFFFFFFFFFFFFFFFFFFFFFFF AND PUSH2 0x8FC DUP3 SWAP1 DUP2 ISZERO MUL SWAP1 PUSH1 0x40 MLOAD PUSH1 0x0 PUSH1 0x40 MLOAD DUP1 DUP4 SUB DUP2 DUP6 DUP9 DUP9 CALL SWAP4 POP POP POP POP ISZERO DUP1 ISZERO PUSH2 0x7F9 JUMPI RETURNDATASIZE PUSH1 0x0 DUP1 RETURNDATACOPY RETURNDATASIZE PUSH1 0x0 REVERT JUMPDEST POP POP JUMP JUMPDEST PUSH1 0x2 DUP1 DUP2 GT ISZERO PUSH2 0x810 JUMPI PUSH2 0x80F PUSH2 0x2448 JUMP JUMPDEST JUMPDEST PUSH1 0x5 PUSH1 0x0 DUP4 PUSH20 0xFFFFFFFFFFFFFFFFFFFFFFFFFFFFFFFFFFFFFFFF AND PUSH20 0xFFFFFFFFFFFFFFFFFFFFFFFFFFFFFFFFFFFFFFFF AND DUP2 MSTORE PUSH1 0x20 ADD SWAP1 DUP2 MSTORE PUSH1 0x20 ADD PUSH1 0x0 KECCAK256 PUSH1 0x4 ADD PUSH1 0x14 SWAP1 SLOAD SWAP1 PUSH2 0x100 EXP SWAP1 DIV PUSH1 0xFF AND PUSH1 0x2 DUP2 GT ISZERO PUSH2 0x872 JUMPI PUSH2 0x871 PUSH2 0x2448 JUMP JUMPDEST JUMPDEST EQ PUSH2 0x8B2 JUMPI PUSH1 0x40 MLOAD PUSH32 0x8C379A000000000000000000000000000000000000000000000000000000000 DUP2 MSTORE PUSH1 0x4 ADD PUSH2 0x8A9 SWAP1 PUSH2 0x299E JUMP JUMPDEST PUSH1 0x40 MLOAD DUP1 SWAP2 SUB SWAP1 REVERT JUMPDEST PUSH1 0x0 PUSH1 0x7 PUSH1 0x0 DUP4 PUSH20 0xFFFFFFFFFFFFFFFFFFFFFFFFFFFFFFFFFFFFFFFF AND PUSH20 0xFFFFFFFFFFFFFFFFFFFFFFFFFFFFFFFFFFFFFFFF AND DUP2 MSTORE PUSH1 0x20 ADD SWAP1 DUP2 MSTORE PUSH1 0x20 ADD PUSH1 0x0 KECCAK256 PUSH1 0x0 CALLER PUSH20 0xFFFFFFFFFFFFFFFFFFFFFFFFFFFFFFFFFFFFFFFF AND PUSH20 0xFFFFFFFFFFFFFFFFFFFFFFFFFFFFFFFFFFFFFFFF AND DUP2 MSTORE PUSH1 0x20 ADD SWAP1 DUP2 MSTORE PUSH1 0x20 ADD PUSH1 0x0 KECCAK256 SLOAD SWAP1 POP PUSH1 0x0 DUP2 GT PUSH2 0x976 JUMPI PUSH1 0x40 MLOAD PUSH32 0x8C379A000000000000000000000000000000000000000000000000000000000 DUP2 MSTORE PUSH1 0x4 ADD PUSH2 0x96D SWAP1 PUSH2 0x2A0A JUMP JUMPDEST PUSH1 0x40 MLOAD DUP1 SWAP2 SUB SWAP1 REVERT JUMPDEST PUSH1 0x0 DUP3 SWAP1 POP DUP1 PUSH20 0xFFFFFFFFFFFFFFFFFFFFFFFFFFFFFFFFFFFFFFFF AND PUSH4 0xA9059CBB CALLER DUP5 PUSH1 0x40 MLOAD DUP4 PUSH4 0xFFFFFFFF AND PUSH1 0xE0 SHL DUP2 MSTORE PUSH1 0x4 ADD PUSH2 0x9B6 SWAP3 SWAP2 SWAP1 PUSH2 0x2A2A JUMP JUMPDEST PUSH1 0x20 PUSH1 0x40 MLOAD DUP1 DUP4 SUB DUP2 PUSH1 0x0 DUP8 GAS CALL ISZERO DUP1 ISZERO PUSH2 0x9D5 JUMPI RETURNDATASIZE PUSH1 0x0 DUP1 RETURNDATACOPY RETURNDATASIZE PUSH1 0x0 REVERT JUMPDEST POP POP POP POP PUSH1 0x40 MLOAD RETURNDATASIZE PUSH1 0x1F NOT PUSH1 0x1F DUP3 ADD AND DUP3 ADD DUP1 PUSH1 0x40 MSTORE POP DUP2 ADD SWAP1 PUSH2 0x9F9 SWAP2 SWAP1 PUSH2 0x2A8B JUMP JUMPDEST POP PUSH1 0x0 PUSH1 0x7 PUSH1 0x0 DUP6 PUSH20 0xFFFFFFFFFFFFFFFFFFFFFFFFFFFFFFFFFFFFFFFF AND PUSH20 0xFFFFFFFFFFFFFFFFFFFFFFFFFFFFFFFFFFFFFFFF AND DUP2 MSTORE PUSH1 0x20 ADD SWAP1 DUP2 MSTORE PUSH1 0x20 ADD PUSH1 0x0 KECCAK256 PUSH1 0x0 CALLER PUSH20 0xFFFFFFFFFFFFFFFFFFFFFFFFFFFFFFFFFFFFFFFF AND PUSH20 0xFFFFFFFFFFFFFFFFFFFFFFFFFFFFFFFFFFFFFFFF AND DUP2 MSTORE PUSH1 0x20 ADD SWAP1 DUP2 MSTORE PUSH1 0x20 ADD PUSH1 0x0 KECCAK256 DUP2 SWAP1 SSTORE POP CALLER PUSH20 0xFFFFFFFFFFFFFFFFFFFFFFFFFFFFFFFFFFFFFFFF AND DUP4 PUSH20 0xFFFFFFFFFFFFFFFFFFFFFFFFFFFFFFFFFFFFFFFF AND PUSH32 0x8210728E7C071F615B840EE026032693858FBCD5E5359E67E438C890F59E5620 DUP5 PUSH1 0x40 MLOAD PUSH2 0xAD9 SWAP2 SWAP1 PUSH2 0x25D7 JUMP JUMPDEST PUSH1 0x40 MLOAD DUP1 SWAP2 SUB SWAP1 LOG3 POP POP POP JUMP JUMPDEST PUSH1 0x6 DUP2 DUP2 SLOAD DUP2 LT PUSH2 0xAF6 JUMPI PUSH1 0x0 DUP1 REVERT JUMPDEST SWAP1 PUSH1 0x0 MSTORE PUSH1 0x20 PUSH1 0x0 KECCAK256 ADD PUSH1 0x0 SWAP2 POP SLOAD SWAP1 PUSH2 0x100 EXP SWAP1 DIV PUSH20 0xFFFFFFFFFFFFFFFFFFFFFFFFFFFFFFFFFFFFFFFF AND DUP2 JUMP JUMPDEST PUSH1 0xA DUP2 JUMP JUMPDEST PUSH1 0x1 PUSH1 0x2 DUP2 GT ISZERO PUSH2 0xB3E JUMPI PUSH2 0xB3D PUSH2 0x2448 JUMP JUMPDEST JUMPDEST PUSH1 0x5 PUSH1 0x0 DUP5 PUSH20 0xFFFFFFFFFFFFFFFFFFFFFFFFFFFFFFFFFFFFFFFF AND PUSH20 0xFFFFFFFFFFFFFFFFFFFFFFFFFFFFFFFFFFFFFFFF AND DUP2 MSTORE PUSH1 0x20 ADD SWAP1 DUP2 MSTORE PUSH1 0x20 ADD PUSH1 0x0 KECCAK256 PUSH1 0x4 ADD PUSH1 0x14 SWAP1 SLOAD SWAP1 PUSH2 0x100 EXP SWAP1 DIV PUSH1 0xFF AND PUSH1 0x2 DUP2 GT ISZERO PUSH2 0xBA0 JUMPI PUSH2 0xB9F PUSH2 0x2448 JUMP JUMPDEST JUMPDEST EQ PUSH2 0xBE0 JUMPI PUSH1 0x40 MLOAD PUSH32 0x8C379A000000000000000000000000000000000000000000000000000000000 DUP2 MSTORE PUSH1 0x4 ADD PUSH2 0xBD7 SWAP1 PUSH2 0x299E JUMP JUMPDEST PUSH1 0x40 MLOAD DUP1 SWAP2 SUB SWAP1 REVERT JUMPDEST DUP1 PUSH1 0x7 PUSH1 0x0 DUP5 PUSH20 0xFFFFFFFFFFFFFFFFFFFFFFFFFFFFFFFFFFFFFFFF AND PUSH20 0xFFFFFFFFFFFFFFFFFFFFFFFFFFFFFFFFFFFFFFFF AND DUP2 MSTORE PUSH1 0x20 ADD SWAP1 DUP2 MSTORE PUSH1 0x20 ADD PUSH1 0x0 KECCAK256 PUSH1 0x0 CALLER PUSH20 0xFFFFFFFFFFFFFFFFFFFFFFFFFFFFFFFFFFFFFFFF AND PUSH20 0xFFFFFFFFFFFFFFFFFFFFFFFFFFFFFFFFFFFFFFFF AND DUP2 MSTORE PUSH1 0x20 ADD SWAP1 DUP2 MSTORE PUSH1 0x20 ADD PUSH1 0x0 KECCAK256 SLOAD LT ISZERO PUSH2 0xC9F JUMPI PUSH1 0x40 MLOAD PUSH32 0x8C379A000000000000000000000000000000000000000000000000000000000 DUP2 MSTORE PUSH1 0x4 ADD PUSH2 0xC96 SWAP1 PUSH2 0x2A0A JUMP JUMPDEST PUSH1 0x40 MLOAD DUP1 SWAP2 SUB SWAP1 REVERT JUMPDEST PUSH1 0x0 DUP3 SWAP1 POP PUSH1 0x0 PUSH2 0xCB0 DUP5 DUP5 PUSH2 0x147F JUMP JUMPDEST SWAP1 POP PUSH1 0x0 DUP2 PUSH1 0x1 PUSH1 0x3 DUP2 LT PUSH2 0xCC8 JUMPI PUSH2 0xCC7 PUSH2 0x2AB8 JUMP JUMPDEST JUMPDEST PUSH1 0x20 MUL ADD MLOAD DUP3 PUSH1 0x0 PUSH1 0x3 DUP2 LT PUSH2 0xCE1 JUMPI PUSH2 0xCE0 PUSH2 0x2AB8 JUMP JUMPDEST JUMPDEST PUSH1 0x20 MUL ADD MLOAD PUSH2 0xCF0 SWAP2 SWAP1 PUSH2 0x2B16 JUMP JUMPDEST SWAP1 POP DUP1 SELFBALANCE LT ISZERO PUSH2 0xD35 JUMPI PUSH1 0x40 MLOAD PUSH32 0x8C379A000000000000000000000000000000000000000000000000000000000 DUP2 MSTORE PUSH1 0x4 ADD PUSH2 0xD2C SWAP1 PUSH2 0x2B96 JUMP JUMPDEST PUSH1 0x40 MLOAD DUP1 SWAP2 SUB SWAP1 REVERT JUMPDEST DUP2 PUSH1 0x2 PUSH1 0x3 DUP2 LT PUSH2 0xD49 JUMPI PUSH2 0xD48 PUSH2 0x2AB8 JUMP JUMPDEST JUMPDEST PUSH1 0x20 MUL ADD MLOAD PUSH1 0x4 PUSH1 0x0 DUP3 DUP3 SLOAD PUSH2 0xD5F SWAP2 SWAP1 PUSH2 0x2BB6 JUMP JUMPDEST SWAP3 POP POP DUP2 SWAP1 SSTORE POP DUP3 PUSH20 0xFFFFFFFFFFFFFFFFFFFFFFFFFFFFFFFFFFFFFFFF AND PUSH4 0x42966C68 DUP6 PUSH1 0x40 MLOAD DUP3 PUSH4 0xFFFFFFFF AND PUSH1 0xE0 SHL DUP2 MSTORE PUSH1 0x4 ADD PUSH2 0xD9F SWAP2 SWAP1 PUSH2 0x25D7 JUMP JUMPDEST PUSH1 0x0 PUSH1 0x40 MLOAD DUP1 DUP4 SUB DUP2 PUSH1 0x0 DUP8 DUP1 EXTCODESIZE ISZERO DUP1 ISZERO PUSH2 0xDB9 JUMPI PUSH1 0x0 DUP1 REVERT JUMPDEST POP GAS CALL ISZERO DUP1 ISZERO PUSH2 0xDCD JUMPI RETURNDATASIZE PUSH1 0x0 DUP1 RETURNDATACOPY RETURNDATASIZE PUSH1 0x0 REVERT JUMPDEST POP POP POP POP DUP4 PUSH1 0x7 PUSH1 0x0 DUP8 PUSH20 0xFFFFFFFFFFFFFFFFFFFFFFFFFFFFFFFFFFFFFFFF AND PUSH20 0xFFFFFFFFFFFFFFFFFFFFFFFFFFFFFFFFFFFFFFFF AND DUP2 MSTORE PUSH1 0x20 ADD SWAP1 DUP2 MSTORE PUSH1 0x20 ADD PUSH1 0x0 KECCAK256 PUSH1 0x0 CALLER PUSH20 0xFFFFFFFFFFFFFFFFFFFFFFFFFFFFFFFFFFFFFFFF AND PUSH20 0xFFFFFFFFFFFFFFFFFFFFFFFFFFFFFFFFFFFFFFFF AND DUP2 MSTORE PUSH1 0x20 ADD SWAP1 DUP2 MSTORE PUSH1 0x20 ADD PUSH1 0x0 KECCAK256 PUSH1 0x0 DUP3 DUP3 SLOAD PUSH2 0xE5D SWAP2 SWAP1 PUSH2 0x2B16 JUMP JUMPDEST SWAP3 POP POP DUP2 SWAP1 SSTORE POP DUP2 PUSH1 0x1 PUSH1 0x3 DUP2 LT PUSH2 0xE78 JUMPI PUSH2 0xE77 PUSH2 0x2AB8 JUMP JUMPDEST JUMPDEST PUSH1 0x20 MUL ADD MLOAD PUSH1 0x5 PUSH1 0x0 DUP8 PUSH20 0xFFFFFFFFFFFFFFFFFFFFFFFFFFFFFFFFFFFFFFFF AND PUSH20 0xFFFFFFFFFFFFFFFFFFFFFFFFFFFFFFFFFFFFFFFF AND DUP2 MSTORE PUSH1 0x20 ADD SWAP1 DUP2 MSTORE PUSH1 0x20 ADD PUSH1 0x0 KECCAK256 PUSH1 0x5 ADD PUSH1 0x0 DUP3 DUP3 SLOAD PUSH2 0xECE SWAP2 SWAP1 PUSH2 0x2B16 JUMP JUMPDEST SWAP3 POP POP DUP2 SWAP1 SSTORE POP CALLER PUSH20 0xFFFFFFFFFFFFFFFFFFFFFFFFFFFFFFFFFFFFFFFF AND PUSH2 0x8FC DUP3 SWAP1 DUP2 ISZERO MUL SWAP1 PUSH1 0x40 MLOAD PUSH1 0x0 PUSH1 0x40 MLOAD DUP1 DUP4 SUB DUP2 DUP6 DUP9 DUP9 CALL SWAP4 POP POP POP POP ISZERO DUP1 ISZERO PUSH2 0xF1B JUMPI RETURNDATASIZE PUSH1 0x0 DUP1 RETURNDATACOPY RETURNDATASIZE PUSH1 0x0 REVERT JUMPDEST POP CALLER PUSH20 0xFFFFFFFFFFFFFFFFFFFFFFFFFFFFFFFFFFFFFFFF AND DUP6 PUSH20 0xFFFFFFFFFFFFFFFFFFFFFFFFFFFFFFFFFFFFFFFF AND PUSH32 0x697C42D55A5E1FED3F464EC6F38B32546A0BD368DC8068B065C67566D73F3290 DUP7 DUP5 PUSH1 0x40 MLOAD PUSH2 0xF7B SWAP3 SWAP2 SWAP1 PUSH2 0x2BEA JUMP JUMPDEST PUSH1 0x40 MLOAD DUP1 SWAP2 SUB SWAP1 LOG3 POP POP POP POP POP JUMP JUMPDEST PUSH2 0xF92 PUSH2 0x1BAC JUMP JUMPDEST DUP1 PUSH1 0x3 DUP2 SWAP1 SSTORE POP POP JUMP JUMPDEST PUSH2 0xFA4 PUSH2 0x1BAC JUMP JUMPDEST PUSH2 0xFAE PUSH1 0x0 PUSH2 0x1C33 JUMP JUMPDEST JUMP JUMPDEST PUSH1 0x4 SLOAD DUP2 JUMP JUMPDEST PUSH1 0x0 DUP1 PUSH1 0x0 SWAP1 SLOAD SWAP1 PUSH2 0x100 EXP SWAP1 DIV PUSH20 0xFFFFFFFFFFFFFFFFFFFFFFFFFFFFFFFFFFFFFFFF AND SWAP1 POP SWAP1 JUMP JUMPDEST PUSH7 0x71AFD498D0000 CALLVALUE LT ISZERO PUSH2 0x1029 JUMPI PUSH1 0x40 MLOAD PUSH32 0x8C379A000000000000000000000000000000000000000000000000000000000 DUP2 MSTORE PUSH1 0x4 ADD PUSH2 0x1020 SWAP1 PUSH2 0x2C85 JUMP JUMPDEST PUSH1 0x40 MLOAD DUP1 SWAP2 SUB SWAP1 REVERT JUMPDEST PUSH7 0x71AFD498D0000 PUSH1 0x4 PUSH1 0x0 DUP3 DUP3 SLOAD PUSH2 0x1042 SWAP2 SWAP1 PUSH2 0x2BB6 JUMP JUMPDEST SWAP3 POP POP DUP2 SWAP1 SSTORE POP PUSH1 0x0 DUP9 DUP9 DUP9 DUP9 PUSH1 0x40 MLOAD PUSH2 0x105B SWAP1 PUSH2 0x22E5 JUMP JUMPDEST PUSH2 0x1068 SWAP5 SWAP4 SWAP3 SWAP2 SWAP1 PUSH2 0x2CE1 JUMP JUMPDEST PUSH1 0x40 MLOAD DUP1 SWAP2 SUB SWAP1 PUSH1 0x0 CREATE DUP1 ISZERO DUP1 ISZERO PUSH2 0x1084 JUMPI RETURNDATASIZE PUSH1 0x0 DUP1 RETURNDATACOPY RETURNDATASIZE PUSH1 0x0 REVERT JUMPDEST POP SWAP1 POP PUSH1 0x40 MLOAD DUP1 PUSH1 0xE0 ADD PUSH1 0x40 MSTORE DUP1 DUP11 DUP11 DUP1 DUP1 PUSH1 0x1F ADD PUSH1 0x20 DUP1 SWAP2 DIV MUL PUSH1 0x20 ADD PUSH1 0x40 MLOAD SWAP1 DUP2 ADD PUSH1 0x40 MSTORE DUP1 SWAP4 SWAP3 SWAP2 SWAP1 DUP2 DUP2 MSTORE PUSH1 0x20 ADD DUP4 DUP4 DUP1 DUP3 DUP5 CALLDATACOPY PUSH1 0x0 DUP2 DUP5 ADD MSTORE PUSH1 0x1F NOT PUSH1 0x1F DUP3 ADD AND SWAP1 POP DUP1 DUP4 ADD SWAP3 POP POP POP POP POP POP POP DUP2 MSTORE PUSH1 0x20 ADD DUP9 DUP9 DUP1 DUP1 PUSH1 0x1F ADD PUSH1 0x20 DUP1 SWAP2 DIV MUL PUSH1 0x20 ADD PUSH1 0x40 MLOAD SWAP1 DUP2 ADD PUSH1 0x40 MSTORE DUP1 SWAP4 SWAP3 SWAP2 SWAP1 DUP2 DUP2 MSTORE PUSH1 0x20 ADD DUP4 DUP4 DUP1 DUP3 DUP5 CALLDATACOPY PUSH1 0x0 DUP2 DUP5 ADD MSTORE PUSH1 0x1F NOT PUSH1 0x1F DUP3 ADD AND SWAP1 POP DUP1 DUP4 ADD SWAP3 POP POP POP POP POP POP POP DUP2 MSTORE PUSH1 0x20 ADD DUP7 DUP7 DUP1 DUP1 PUSH1 0x1F ADD PUSH1 0x20 DUP1 SWAP2 DIV MUL PUSH1 0x20 ADD PUSH1 0x40 MLOAD SWAP1 DUP2 ADD PUSH1 0x40 MSTORE DUP1 SWAP4 SWAP3 SWAP2 SWAP1 DUP2 DUP2 MSTORE PUSH1 0x20 ADD DUP4 DUP4 DUP1 DUP3 DUP5 CALLDATACOPY PUSH1 0x0 DUP2 DUP5 ADD MSTORE PUSH1 0x1F NOT PUSH1 0x1F DUP3 ADD AND SWAP1 POP DUP1 DUP4 ADD SWAP3 POP POP POP POP POP POP POP DUP2 MSTORE PUSH1 0x20 ADD DUP5 DUP5 DUP1 DUP1 PUSH1 0x1F ADD PUSH1 0x20 DUP1 SWAP2 DIV MUL PUSH1 0x20 ADD PUSH1 0x40 MLOAD SWAP1 DUP2 ADD PUSH1 0x40 MSTORE DUP1 SWAP4 SWAP3 SWAP2 SWAP1 DUP2 DUP2 MSTORE PUSH1 0x20 ADD DUP4 DUP4 DUP1 DUP3 DUP5 CALLDATACOPY PUSH1 0x0 DUP2 DUP5 ADD MSTORE PUSH1 0x1F NOT PUSH1 0x1F DUP3 ADD AND SWAP1 POP DUP1 DUP4 ADD SWAP3 POP POP POP POP POP POP POP DUP2 MSTORE PUSH1 0x20 ADD CALLER PUSH20 0xFFFFFFFFFFFFFFFFFFFFFFFFFFFFFFFFFFFFFFFF AND DUP2 MSTORE PUSH1 0x20 ADD PUSH1 0x1 PUSH1 0x2 DUP2 GT ISZERO PUSH2 0x11EA JUMPI PUSH2 0x11E9 PUSH2 0x2448 JUMP JUMPDEST JUMPDEST DUP2 MSTORE PUSH1 0x20 ADD PUSH1 0x0 DUP2 MSTORE POP PUSH1 0x5 PUSH1 0x0 DUP4 PUSH20 0xFFFFFFFFFFFFFFFFFFFFFFFFFFFFFFFFFFFFFFFF AND PUSH20 0xFFFFFFFFFFFFFFFFFFFFFFFFFFFFFFFFFFFFFFFF AND DUP2 MSTORE PUSH1 0x20 ADD SWAP1 DUP2 MSTORE PUSH1 0x20 ADD PUSH1 0x0 KECCAK256 PUSH1 0x0 DUP3 ADD MLOAD DUP2 PUSH1 0x0 ADD SWAP1 DUP2 PUSH2 0x1248 SWAP2 SWAP1 PUSH2 0x2EF7 JUMP JUMPDEST POP PUSH1 0x20 DUP3 ADD MLOAD DUP2 PUSH1 0x1 ADD SWAP1 DUP2 PUSH2 0x125E SWAP2 SWAP1 PUSH2 0x2EF7 JUMP JUMPDEST POP PUSH1 0x40 DUP3 ADD MLOAD DUP2 PUSH1 0x2 ADD SWAP1 DUP2 PUSH2 0x1274 SWAP2 SWAP1 PUSH2 0x2EF7 JUMP JUMPDEST POP PUSH1 0x60 DUP3 ADD MLOAD DUP2 PUSH1 0x3 ADD SWAP1 DUP2 PUSH2 0x128A SWAP2 SWAP1 PUSH2 0x2EF7 JUMP JUMPDEST POP PUSH1 0x80 DUP3 ADD MLOAD DUP2 PUSH1 0x4 ADD PUSH1 0x0 PUSH2 0x100 EXP DUP2 SLOAD DUP2 PUSH20 0xFFFFFFFFFFFFFFFFFFFFFFFFFFFFFFFFFFFFFFFF MUL NOT AND SWAP1 DUP4 PUSH20 0xFFFFFFFFFFFFFFFFFFFFFFFFFFFFFFFFFFFFFFFF AND MUL OR SWAP1 SSTORE POP PUSH1 0xA0 DUP3 ADD MLOAD DUP2 PUSH1 0x4 ADD PUSH1 0x14 PUSH2 0x100 EXP DUP2 SLOAD DUP2 PUSH1 0xFF MUL NOT AND SWAP1 DUP4 PUSH1 0x2 DUP2 GT ISZERO PUSH2 0x12FD JUMPI PUSH2 0x12FC PUSH2 0x2448 JUMP JUMPDEST JUMPDEST MUL OR SWAP1 SSTORE POP PUSH1 0xC0 DUP3 ADD MLOAD DUP2 PUSH1 0x5 ADD SSTORE SWAP1 POP POP PUSH1 0x6 DUP2 SWAP1 DUP1 PUSH1 0x1 DUP2 SLOAD ADD DUP1 DUP3 SSTORE DUP1 SWAP2 POP POP PUSH1 0x1 SWAP1 SUB SWAP1 PUSH1 0x0 MSTORE PUSH1 0x20 PUSH1 0x0 KECCAK256 ADD PUSH1 0x0 SWAP1 SWAP2 SWAP1 SWAP2 SWAP1 SWAP2 PUSH2 0x100 EXP DUP2 SLOAD DUP2 PUSH20 0xFFFFFFFFFFFFFFFFFFFFFFFFFFFFFFFFFFFFFFFF MUL NOT AND SWAP1 DUP4 PUSH20 0xFFFFFFFFFFFFFFFFFFFFFFFFFFFFFFFFFFFFFFFF AND MUL OR SWAP1 SSTORE POP DUP1 PUSH20 0xFFFFFFFFFFFFFFFFFFFFFFFFFFFFFFFFFFFFFFFF AND PUSH4 0xA0712D68 PUSH1 0x64 PUSH1 0x14 PUSH12 0x33B2E3C9FD0803CE8000000 PUSH2 0x13A9 SWAP2 SWAP1 PUSH2 0x2FC9 JUMP JUMPDEST PUSH2 0x13B3 SWAP2 SWAP1 PUSH2 0x303A JUMP JUMPDEST PUSH1 0x40 MLOAD DUP3 PUSH4 0xFFFFFFFF AND PUSH1 0xE0 SHL DUP2 MSTORE PUSH1 0x4 ADD PUSH2 0x13CF SWAP2 SWAP1 PUSH2 0x25D7 JUMP JUMPDEST PUSH1 0x0 PUSH1 0x40 MLOAD DUP1 DUP4 SUB DUP2 PUSH1 0x0 DUP8 DUP1 EXTCODESIZE ISZERO DUP1 ISZERO PUSH2 0x13E9 JUMPI PUSH1 0x0 DUP1 REVERT JUMPDEST POP GAS CALL ISZERO DUP1 ISZERO PUSH2 0x13FD JUMPI RETURNDATASIZE PUSH1 0x0 DUP1 RETURNDATACOPY RETURNDATASIZE PUSH1 0x0 REVERT JUMPDEST POP POP POP POP CALLER PUSH20 0xFFFFFFFFFFFFFFFFFFFFFFFFFFFFFFFFFFFFFFFF AND DUP2 PUSH20 0xFFFFFFFFFFFFFFFFFFFFFFFFFFFFFFFFFFFFFFFF AND PUSH32 0xBF7C04C85CF6065FE470BDD2E5F178D16C57630DF24F464A6E1C297AAB97872B DUP12 DUP12 DUP12 DUP12 DUP12 DUP12 DUP12 DUP12 PUSH1 0x40 MLOAD PUSH2 0x146C SWAP9 SWAP8 SWAP7 SWAP6 SWAP5 SWAP4 SWAP3 SWAP2 SWAP1 PUSH2 0x306B JUMP JUMPDEST PUSH1 0x40 MLOAD DUP1 SWAP2 SUB SWAP1 LOG3 POP POP POP POP POP POP POP POP POP JUMP JUMPDEST PUSH2 0x1487 PUSH2 0x22F2 JUMP JUMPDEST PUSH1 0x0 DUP4 SWAP1 POP PUSH1 0x0 DUP2 PUSH20 0xFFFFFFFFFFFFFFFFFFFFFFFFFFFFFFFFFFFFFFFF AND PUSH4 0x18160DDD PUSH1 0x40 MLOAD DUP2 PUSH4 0xFFFFFFFF AND PUSH1 0xE0 SHL DUP2 MSTORE PUSH1 0x4 ADD PUSH1 0x20 PUSH1 0x40 MLOAD DUP1 DUP4 SUB DUP2 DUP7 GAS STATICCALL ISZERO DUP1 ISZERO PUSH2 0x14D9 JUMPI RETURNDATASIZE PUSH1 0x0 DUP1 RETURNDATACOPY RETURNDATASIZE PUSH1 0x0 REVERT JUMPDEST POP POP POP POP PUSH1 0x40 MLOAD RETURNDATASIZE PUSH1 0x1F NOT PUSH1 0x1F DUP3 ADD AND DUP3 ADD DUP1 PUSH1 0x40 MSTORE POP DUP2 ADD SWAP1 PUSH2 0x14FD SWAP2 SWAP1 PUSH2 0x30E9 JUMP JUMPDEST SWAP1 POP PUSH1 0x0 DUP5 DUP3 PUSH2 0x150D SWAP2 SWAP1 PUSH2 0x2BB6 JUMP JUMPDEST SWAP1 POP PUSH1 0x0 PUSH13 0xECA8847C4129106CE830000000 DUP3 PUSH2 0xB71B PUSH2 0x152D SWAP2 SWAP1 PUSH2 0x2FC9 JUMP JUMPDEST PUSH2 0x1537 SWAP2 SWAP1 PUSH2 0x2BB6 JUMP JUMPDEST SWAP1 POP PUSH1 0x0 PUSH8 0xDE0B6B3A7640000 DUP3 DUP9 PUSH2 0x1550 SWAP2 SWAP1 PUSH2 0x2FC9 JUMP JUMPDEST PUSH2 0x155A SWAP2 SWAP1 PUSH2 0x303A JUMP JUMPDEST SWAP1 POP PUSH1 0x0 PUSH2 0x2710 PUSH1 0xA DUP4 PUSH2 0x156E SWAP2 SWAP1 PUSH2 0x2FC9 JUMP JUMPDEST PUSH2 0x1578 SWAP2 SWAP1 PUSH2 0x303A JUMP JUMPDEST SWAP1 POP PUSH1 0x40 MLOAD DUP1 PUSH1 0x60 ADD PUSH1 0x40 MSTORE DUP1 DUP3 DUP5 PUSH2 0x1591 SWAP2 SWAP1 PUSH2 0x2BB6 JUMP JUMPDEST DUP2 MSTORE PUSH1 0x20 ADD DUP4 DUP2 MSTORE PUSH1 0x20 ADD DUP3 DUP2 MSTORE POP SWAP7 POP POP POP POP POP POP POP SWAP3 SWAP2 POP POP JUMP JUMPDEST PUSH1 0x7 PUSH1 0x20 MSTORE DUP2 PUSH1 0x0 MSTORE PUSH1 0x40 PUSH1 0x0 KECCAK256 PUSH1 0x20 MSTORE DUP1 PUSH1 0x0 MSTORE PUSH1 0x40 PUSH1 0x0 KECCAK256 PUSH1 0x0 SWAP2 POP SWAP2 POP POP SLOAD DUP2 JUMP JUMPDEST PUSH2 0xB71B DUP2 JUMP JUMPDEST PUSH1 0x1 PUSH1 0x2 DUP2 GT ISZERO PUSH2 0x15ED JUMPI PUSH2 0x15EC PUSH2 0x2448 JUMP JUMPDEST JUMPDEST PUSH1 0x5 PUSH1 0x0 DUP5 PUSH20 0xFFFFFFFFFFFFFFFFFFFFFFFFFFFFFFFFFFFFFFFF AND PUSH20 0xFFFFFFFFFFFFFFFFFFFFFFFFFFFFFFFFFFFFFFFF AND DUP2 MSTORE PUSH1 0x20 ADD SWAP1 DUP2 MSTORE PUSH1 0x20 ADD PUSH1 0x0 KECCAK256 PUSH1 0x4 ADD PUSH1 0x14 SWAP1 SLOAD SWAP1 PUSH2 0x100 EXP SWAP1 DIV PUSH1 0xFF AND PUSH1 0x2 DUP2 GT ISZERO PUSH2 0x164F JUMPI PUSH2 0x164E PUSH2 0x2448 JUMP JUMPDEST JUMPDEST EQ PUSH2 0x168F JUMPI PUSH1 0x40 MLOAD PUSH32 0x8C379A000000000000000000000000000000000000000000000000000000000 DUP2 MSTORE PUSH1 0x4 ADD PUSH2 0x1686 SWAP1 PUSH2 0x3162 JUMP JUMPDEST PUSH1 0x40 MLOAD DUP1 SWAP2 SUB SWAP1 REVERT JUMPDEST PUSH1 0x0 DUP3 SWAP1 POP DUP1 PUSH20 0xFFFFFFFFFFFFFFFFFFFFFFFFFFFFFFFFFFFFFFFF AND PUSH4 0x18160DDD PUSH1 0x40 MLOAD DUP2 PUSH4 0xFFFFFFFF AND PUSH1 0xE0 SHL DUP2 MSTORE PUSH1 0x4 ADD PUSH1 0x20 PUSH1 0x40 MLOAD DUP1 DUP4 SUB DUP2 DUP7 GAS STATICCALL ISZERO DUP1 ISZERO PUSH2 0x16DF JUMPI RETURNDATASIZE PUSH1 0x0 DUP1 RETURNDATACOPY RETURNDATASIZE PUSH1 0x0 REVERT JUMPDEST POP POP POP POP PUSH1 0x40 MLOAD RETURNDATASIZE PUSH1 0x1F NOT PUSH1 0x1F DUP3 ADD AND DUP3 ADD DUP1 PUSH1 0x40 MSTORE POP DUP2 ADD SWAP1 PUSH2 0x1703 SWAP2 SWAP1 PUSH2 0x30E9 JUMP JUMPDEST PUSH1 0x64 PUSH1 0x14 PUSH12 0x33B2E3C9FD0803CE8000000 PUSH2 0x171E SWAP2 SWAP1 PUSH2 0x2FC9 JUMP JUMPDEST PUSH2 0x1728 SWAP2 SWAP1 PUSH2 0x303A JUMP JUMPDEST PUSH12 0x33B2E3C9FD0803CE8000000 PUSH2 0x173F SWAP2 SWAP1 PUSH2 0x2B16 JUMP JUMPDEST PUSH2 0x1749 SWAP2 SWAP1 PUSH2 0x2B16 JUMP JUMPDEST DUP3 GT ISZERO PUSH2 0x178B JUMPI PUSH1 0x40 MLOAD PUSH32 0x8C379A000000000000000000000000000000000000000000000000000000000 DUP2 MSTORE PUSH1 0x4 ADD PUSH2 0x1782 SWAP1 PUSH2 0x31CE JUMP JUMPDEST PUSH1 0x40 MLOAD DUP1 SWAP2 SUB SWAP1 REVERT JUMPDEST PUSH1 0x0 PUSH2 0x1797 DUP5 DUP5 PUSH2 0x147F JUMP JUMPDEST SWAP1 POP DUP1 PUSH1 0x0 PUSH1 0x3 DUP2 LT PUSH2 0x17AD JUMPI PUSH2 0x17AC PUSH2 0x2AB8 JUMP JUMPDEST JUMPDEST PUSH1 0x20 MUL ADD MLOAD CALLVALUE LT ISZERO PUSH2 0x17F4 JUMPI PUSH1 0x40 MLOAD PUSH32 0x8C379A000000000000000000000000000000000000000000000000000000000 DUP2 MSTORE PUSH1 0x4 ADD PUSH2 0x17EB SWAP1 PUSH2 0x323A JUMP JUMPDEST PUSH1 0x40 MLOAD DUP1 SWAP2 SUB SWAP1 REVERT JUMPDEST DUP1 PUSH1 0x2 PUSH1 0x3 DUP2 LT PUSH2 0x1808 JUMPI PUSH2 0x1807 PUSH2 0x2AB8 JUMP JUMPDEST JUMPDEST PUSH1 0x20 MUL ADD MLOAD PUSH1 0x4 PUSH1 0x0 DUP3 DUP3 SLOAD PUSH2 0x181E SWAP2 SWAP1 PUSH2 0x2BB6 JUMP JUMPDEST SWAP3 POP POP DUP2 SWAP1 SSTORE POP DUP2 PUSH20 0xFFFFFFFFFFFFFFFFFFFFFFFFFFFFFFFFFFFFFFFF AND PUSH4 0xA0712D68 DUP5 PUSH1 0x40 MLOAD DUP3 PUSH4 0xFFFFFFFF AND PUSH1 0xE0 SHL DUP2 MSTORE PUSH1 0x4 ADD PUSH2 0x185E SWAP2 SWAP1 PUSH2 0x25D7 JUMP JUMPDEST PUSH1 0x0 PUSH1 0x40 MLOAD DUP1 DUP4 SUB DUP2 PUSH1 0x0 DUP8 DUP1 EXTCODESIZE ISZERO DUP1 ISZERO PUSH2 0x1878 JUMPI PUSH1 0x0 DUP1 REVERT JUMPDEST POP GAS CALL ISZERO DUP1 ISZERO PUSH2 0x188C JUMPI RETURNDATASIZE PUSH1 0x0 DUP1 RETURNDATACOPY RETURNDATASIZE PUSH1 0x0 REVERT JUMPDEST POP POP POP POP DUP1 PUSH1 0x1 PUSH1 0x3 DUP2 LT PUSH2 0x18A4 JUMPI PUSH2 0x18A3 PUSH2 0x2AB8 JUMP JUMPDEST JUMPDEST PUSH1 0x20 MUL ADD MLOAD PUSH1 0x5 PUSH1 0x0 DUP7 PUSH20 0xFFFFFFFFFFFFFFFFFFFFFFFFFFFFFFFFFFFFFFFF AND PUSH20 0xFFFFFFFFFFFFFFFFFFFFFFFFFFFFFFFFFFFFFFFF AND DUP2 MSTORE PUSH1 0x20 ADD SWAP1 DUP2 MSTORE PUSH1 0x20 ADD PUSH1 0x0 KECCAK256 PUSH1 0x5 ADD PUSH1 0x0 DUP3 DUP3 SLOAD PUSH2 0x18FA SWAP2 SWAP1 PUSH2 0x2BB6 JUMP JUMPDEST SWAP3 POP POP DUP2 SWAP1 SSTORE POP DUP3 PUSH1 0x7 PUSH1 0x0 DUP7 PUSH20 0xFFFFFFFFFFFFFFFFFFFFFFFFFFFFFFFFFFFFFFFF AND PUSH20 0xFFFFFFFFFFFFFFFFFFFFFFFFFFFFFFFFFFFFFFFF AND DUP2 MSTORE PUSH1 0x20 ADD SWAP1 DUP2 MSTORE PUSH1 0x20 ADD PUSH1 0x0 KECCAK256 PUSH1 0x0 CALLER PUSH20 0xFFFFFFFFFFFFFFFFFFFFFFFFFFFFFFFFFFFFFFFF AND PUSH20 0xFFFFFFFFFFFFFFFFFFFFFFFFFFFFFFFFFFFFFFFF AND DUP2 MSTORE PUSH1 0x20 ADD SWAP1 DUP2 MSTORE PUSH1 0x20 ADD PUSH1 0x0 KECCAK256 PUSH1 0x0 DUP3 DUP3 SLOAD PUSH2 0x198D SWAP2 SWAP1 PUSH2 0x2BB6 JUMP JUMPDEST SWAP3 POP POP DUP2 SWAP1 SSTORE POP PUSH1 0x0 DUP2 PUSH1 0x0 PUSH1 0x3 DUP2 LT PUSH2 0x19AA JUMPI PUSH2 0x19A9 PUSH2 0x2AB8 JUMP JUMPDEST JUMPDEST PUSH1 0x20 MUL ADD MLOAD CALLVALUE PUSH2 0x19BA SWAP2 SWAP1 PUSH2 0x2B16 JUMP JUMPDEST SWAP1 POP PUSH1 0x0 DUP2 GT ISZERO PUSH2 0x1A0D JUMPI CALLER PUSH20 0xFFFFFFFFFFFFFFFFFFFFFFFFFFFFFFFFFFFFFFFF AND PUSH2 0x8FC DUP3 SWAP1 DUP2 ISZERO MUL SWAP1 PUSH1 0x40 MLOAD PUSH1 0x0 PUSH1 0x40 MLOAD DUP1 DUP4 SUB DUP2 DUP6 DUP9 DUP9 CALL SWAP4 POP POP POP POP ISZERO DUP1 ISZERO PUSH2 0x1A0B JUMPI RETURNDATASIZE PUSH1 0x0 DUP1 RETURNDATACOPY RETURNDATASIZE PUSH1 0x0 REVERT JUMPDEST POP JUMPDEST PUSH1 0x3 SLOAD PUSH1 0x5 PUSH1 0x0 DUP8 PUSH20 0xFFFFFFFFFFFFFFFFFFFFFFFFFFFFFFFFFFFFFFFF AND PUSH20 0xFFFFFFFFFFFFFFFFFFFFFFFFFFFFFFFFFFFFFFFF AND DUP2 MSTORE PUSH1 0x20 ADD SWAP1 DUP2 MSTORE PUSH1 0x20 ADD PUSH1 0x0 KECCAK256 PUSH1 0x5 ADD SLOAD LT PUSH2 0x1A62 JUMPI PUSH2 0x1A61 DUP6 PUSH2 0x1CF7 JUMP JUMPDEST JUMPDEST CALLER PUSH20 0xFFFFFFFFFFFFFFFFFFFFFFFFFFFFFFFFFFFFFFFF AND DUP6 PUSH20 0xFFFFFFFFFFFFFFFFFFFFFFFFFFFFFFFFFFFFFFFF AND PUSH32 0xC244D500136EDFFAE7025AAF7FBD7A07193AC544A1D0CC3132CF2A32452D340C DUP7 DUP6 PUSH1 0x1 PUSH1 0x3 DUP2 LT PUSH2 0x1AC6 JUMPI PUSH2 0x1AC5 PUSH2 0x2AB8 JUMP JUMPDEST JUMPDEST PUSH1 0x20 MUL ADD MLOAD PUSH1 0x40 MLOAD PUSH2 0x1AD9 SWAP3 SWAP2 SWAP1 PUSH2 0x2BEA JUMP JUMPDEST PUSH1 0x40 MLOAD DUP1 SWAP2 SUB SWAP1 LOG3 POP POP POP POP POP JUMP JUMPDEST PUSH1 0x3 SLOAD DUP2 JUMP JUMPDEST PUSH13 0xECA8847C4129106CE830000000 DUP2 JUMP JUMPDEST PUSH12 0x33B2E3C9FD0803CE8000000 DUP2 JUMP JUMPDEST PUSH7 0x71AFD498D0000 DUP2 JUMP JUMPDEST PUSH8 0xDE0B6B3A7640000 DUP2 JUMP JUMPDEST PUSH2 0x1B2E PUSH2 0x1BAC JUMP JUMPDEST PUSH1 0x0 PUSH20 0xFFFFFFFFFFFFFFFFFFFFFFFFFFFFFFFFFFFFFFFF AND DUP2 PUSH20 0xFFFFFFFFFFFFFFFFFFFFFFFFFFFFFFFFFFFFFFFF AND SUB PUSH2 0x1BA0 JUMPI PUSH1 0x0 PUSH1 0x40 MLOAD PUSH32 0x1E4FBDF700000000000000000000000000000000000000000000000000000000 DUP2 MSTORE PUSH1 0x4 ADD PUSH2 0x1B97 SWAP2 SWAP1 PUSH2 0x25BC JUMP JUMPDEST PUSH1 0x40 MLOAD DUP1 SWAP2 SUB SWAP1 REVERT JUMPDEST PUSH2 0x1BA9 DUP2 PUSH2 0x1C33 JUMP JUMPDEST POP JUMP JUMPDEST PUSH2 0x1BB4 PUSH2 0x22DD JUMP JUMPDEST PUSH20 0xFFFFFFFFFFFFFFFFFFFFFFFFFFFFFFFFFFFFFFFF AND PUSH2 0x1BD2 PUSH2 0xFB6 JUMP JUMPDEST PUSH20 0xFFFFFFFFFFFFFFFFFFFFFFFFFFFFFFFFFFFFFFFF AND EQ PUSH2 0x1C31 JUMPI PUSH2 0x1BF5 PUSH2 0x22DD JUMP JUMPDEST PUSH1 0x40 MLOAD PUSH32 0x118CDAA700000000000000000000000000000000000000000000000000000000 DUP2 MSTORE PUSH1 0x4 ADD PUSH2 0x1C28 SWAP2 SWAP1 PUSH2 0x25BC JUMP JUMPDEST PUSH1 0x40 MLOAD DUP1 SWAP2 SUB SWAP1 REVERT JUMPDEST JUMP JUMPDEST PUSH1 0x0 DUP1 PUSH1 0x0 SWAP1 SLOAD SWAP1 PUSH2 0x100 EXP SWAP1 DIV PUSH20 0xFFFFFFFFFFFFFFFFFFFFFFFFFFFFFFFFFFFFFFFF AND SWAP1 POP DUP2 PUSH1 0x0 DUP1 PUSH2 0x100 EXP DUP2 SLOAD DUP2 PUSH20 0xFFFFFFFFFFFFFFFFFFFFFFFFFFFFFFFFFFFFFFFF MUL NOT AND SWAP1 DUP4 PUSH20 0xFFFFFFFFFFFFFFFFFFFFFFFFFFFFFFFFFFFFFFFF AND MUL OR SWAP1 SSTORE POP DUP2 PUSH20 0xFFFFFFFFFFFFFFFFFFFFFFFFFFFFFFFFFFFFFFFF AND DUP2 PUSH20 0xFFFFFFFFFFFFFFFFFFFFFFFFFFFFFFFFFFFFFFFF AND PUSH32 0x8BE0079C531659141344CD1FD0A4F28419497F9722A3DAAFE3B4186F6B6457E0 PUSH1 0x40 MLOAD PUSH1 0x40 MLOAD DUP1 SWAP2 SUB SWAP1 LOG3 POP POP JUMP JUMPDEST PUSH1 0x0 DUP1 PUSH1 0x1 PUSH1 0x0 SWAP1 SLOAD SWAP1 PUSH2 0x100 EXP SWAP1 DIV PUSH20 0xFFFFFFFFFFFFFFFFFFFFFFFFFFFFFFFFFFFFFFFF AND PUSH20 0xFFFFFFFFFFFFFFFFFFFFFFFFFFFFFFFFFFFFFFFF AND PUSH4 0xE6A43905 DUP5 PUSH1 0x2 PUSH1 0x0 SWAP1 SLOAD SWAP1 PUSH2 0x100 EXP SWAP1 DIV PUSH20 0xFFFFFFFFFFFFFFFFFFFFFFFFFFFFFFFFFFFFFFFF AND PUSH20 0xFFFFFFFFFFFFFFFFFFFFFFFFFFFFFFFFFFFFFFFF AND PUSH4 0xAD5C4648 PUSH1 0x40 MLOAD DUP2 PUSH4 0xFFFFFFFF AND PUSH1 0xE0 SHL DUP2 MSTORE PUSH1 0x4 ADD PUSH1 0x20 PUSH1 0x40 MLOAD DUP1 DUP4 SUB DUP2 DUP7 GAS STATICCALL ISZERO DUP1 ISZERO PUSH2 0x1DA6 JUMPI RETURNDATASIZE PUSH1 0x0 DUP1 RETURNDATACOPY RETURNDATASIZE PUSH1 0x0 REVERT JUMPDEST POP POP POP POP PUSH1 0x40 MLOAD RETURNDATASIZE PUSH1 0x1F NOT PUSH1 0x1F DUP3 ADD AND DUP3 ADD DUP1 PUSH1 0x40 MSTORE POP DUP2 ADD SWAP1 PUSH2 0x1DCA SWAP2 SWAP1 PUSH2 0x326F JUMP JUMPDEST PUSH1 0x40 MLOAD DUP4 PUSH4 0xFFFFFFFF AND PUSH1 0xE0 SHL DUP2 MSTORE PUSH1 0x4 ADD PUSH2 0x1DE7 SWAP3 SWAP2 SWAP1 PUSH2 0x329C JUMP JUMPDEST PUSH1 0x20 PUSH1 0x40 MLOAD DUP1 DUP4 SUB DUP2 DUP7 GAS STATICCALL ISZERO DUP1 ISZERO PUSH2 0x1E04 JUMPI RETURNDATASIZE PUSH1 0x0 DUP1 RETURNDATACOPY RETURNDATASIZE PUSH1 0x0 REVERT JUMPDEST POP POP POP POP PUSH1 0x40 MLOAD RETURNDATASIZE PUSH1 0x1F NOT PUSH1 0x1F DUP3 ADD AND DUP3 ADD DUP1 PUSH1 0x40 MSTORE POP DUP2 ADD SWAP1 PUSH2 0x1E28 SWAP2 SWAP1 PUSH2 0x326F JUMP JUMPDEST SWAP1 POP PUSH1 0x0 PUSH20 0xFFFFFFFFFFFFFFFFFFFFFFFFFFFFFFFFFFFFFFFF AND DUP2 PUSH20 0xFFFFFFFFFFFFFFFFFFFFFFFFFFFFFFFFFFFFFFFF AND SUB PUSH2 0x1F95 JUMPI PUSH1 0x1 PUSH1 0x0 SWAP1 SLOAD SWAP1 PUSH2 0x100 EXP SWAP1 DIV PUSH20 0xFFFFFFFFFFFFFFFFFFFFFFFFFFFFFFFFFFFFFFFF AND PUSH20 0xFFFFFFFFFFFFFFFFFFFFFFFFFFFFFFFFFFFFFFFF AND PUSH4 0xC9C65396 DUP5 PUSH1 0x2 PUSH1 0x0 SWAP1 SLOAD SWAP1 PUSH2 0x100 EXP SWAP1 DIV PUSH20 0xFFFFFFFFFFFFFFFFFFFFFFFFFFFFFFFFFFFFFFFF AND PUSH20 0xFFFFFFFFFFFFFFFFFFFFFFFFFFFFFFFFFFFFFFFF AND PUSH4 0xAD5C4648 PUSH1 0x40 MLOAD DUP2 PUSH4 0xFFFFFFFF AND PUSH1 0xE0 SHL DUP2 MSTORE PUSH1 0x4 ADD PUSH1 0x20 PUSH1 0x40 MLOAD DUP1 DUP4 SUB DUP2 DUP7 GAS STATICCALL ISZERO DUP1 ISZERO PUSH2 0x1F0A JUMPI RETURNDATASIZE PUSH1 0x0 DUP1 RETURNDATACOPY RETURNDATASIZE PUSH1 0x0 REVERT JUMPDEST POP POP POP POP PUSH1 0x40 MLOAD RETURNDATASIZE PUSH1 0x1F NOT PUSH1 0x1F DUP3 ADD AND DUP3 ADD DUP1 PUSH1 0x40 MSTORE POP DUP2 ADD SWAP1 PUSH2 0x1F2E SWAP2 SWAP1 PUSH2 0x326F JUMP JUMPDEST PUSH1 0x40 MLOAD DUP4 PUSH4 0xFFFFFFFF AND PUSH1 0xE0 SHL DUP2 MSTORE PUSH1 0x4 ADD PUSH2 0x1F4B SWAP3 SWAP2 SWAP1 PUSH2 0x329C JUMP JUMPDEST PUSH1 0x20 PUSH1 0x40 MLOAD DUP1 DUP4 SUB DUP2 PUSH1 0x0 DUP8 GAS CALL ISZERO DUP1 ISZERO PUSH2 0x1F6A JUMPI RETURNDATASIZE PUSH1 0x0 DUP1 RETURNDATACOPY RETURNDATASIZE PUSH1 0x0 REVERT JUMPDEST POP POP POP POP PUSH1 0x40 MLOAD RETURNDATASIZE PUSH1 0x1F NOT PUSH1 0x1F DUP3 ADD AND DUP3 ADD DUP1 PUSH1 0x40 MSTORE POP DUP2 ADD SWAP1 PUSH2 0x1F8E SWAP2 SWAP1 PUSH2 0x326F JUMP JUMPDEST SWAP2 POP PUSH2 0x1F99 JUMP JUMPDEST DUP1 SWAP2 POP JUMPDEST PUSH1 0x0 DUP4 SWAP1 POP DUP1 PUSH20 0xFFFFFFFFFFFFFFFFFFFFFFFFFFFFFFFFFFFFFFFF AND PUSH4 0x95EA7B3 PUSH1 0x2 PUSH1 0x0 SWAP1 SLOAD SWAP1 PUSH2 0x100 EXP SWAP1 DIV PUSH20 0xFFFFFFFFFFFFFFFFFFFFFFFFFFFFFFFFFFFFFFFF AND PUSH1 0x64 PUSH1 0x14 PUSH12 0x33B2E3C9FD0803CE8000000 PUSH2 0x1FF8 SWAP2 SWAP1 PUSH2 0x2FC9 JUMP JUMPDEST PUSH2 0x2002 SWAP2 SWAP1 PUSH2 0x303A JUMP JUMPDEST PUSH1 0x40 MLOAD DUP4 PUSH4 0xFFFFFFFF AND PUSH1 0xE0 SHL DUP2 MSTORE PUSH1 0x4 ADD PUSH2 0x201F SWAP3 SWAP2 SWAP1 PUSH2 0x2A2A JUMP JUMPDEST PUSH1 0x20 PUSH1 0x40 MLOAD DUP1 DUP4 SUB DUP2 PUSH1 0x0 DUP8 GAS CALL ISZERO DUP1 ISZERO PUSH2 0x203E JUMPI RETURNDATASIZE PUSH1 0x0 DUP1 RETURNDATACOPY RETURNDATASIZE PUSH1 0x0 REVERT JUMPDEST POP POP POP POP PUSH1 0x40 MLOAD RETURNDATASIZE PUSH1 0x1F NOT PUSH1 0x1F DUP3 ADD AND DUP3 ADD DUP1 PUSH1 0x40 MSTORE POP DUP2 ADD SWAP1 PUSH2 0x2062 SWAP2 SWAP1 PUSH2 0x2A8B JUMP JUMPDEST POP PUSH1 0x2 PUSH1 0x0 SWAP1 SLOAD SWAP1 PUSH2 0x100 EXP SWAP1 DIV PUSH20 0xFFFFFFFFFFFFFFFFFFFFFFFFFFFFFFFFFFFFFFFF AND PUSH20 0xFFFFFFFFFFFFFFFFFFFFFFFFFFFFFFFFFFFFFFFF AND PUSH4 0xF305D719 PUSH1 0x64 PUSH1 0x62 PUSH1 0x3 SLOAD PUSH2 0x20B2 SWAP2 SWAP1 PUSH2 0x2FC9 JUMP JUMPDEST PUSH2 0x20BC SWAP2 SWAP1 PUSH2 0x303A JUMP JUMPDEST DUP7 PUSH1 0x64 PUSH1 0x14 PUSH12 0x33B2E3C9FD0803CE8000000 PUSH2 0x20D8 SWAP2 SWAP1 PUSH2 0x2FC9 JUMP JUMPDEST PUSH2 0x20E2 SWAP2 SWAP1 PUSH2 0x303A JUMP JUMPDEST PUSH1 0x0 DUP1 PUSH1 0x0 TIMESTAMP PUSH1 0x40 MLOAD DUP9 PUSH4 0xFFFFFFFF AND PUSH1 0xE0 SHL DUP2 MSTORE PUSH1 0x4 ADD PUSH2 0x2109 SWAP7 SWAP6 SWAP5 SWAP4 SWAP3 SWAP2 SWAP1 PUSH2 0x3300 JUMP JUMPDEST PUSH1 0x60 PUSH1 0x40 MLOAD DUP1 DUP4 SUB DUP2 DUP6 DUP9 GAS CALL ISZERO DUP1 ISZERO PUSH2 0x2127 JUMPI RETURNDATASIZE PUSH1 0x0 DUP1 RETURNDATACOPY RETURNDATASIZE PUSH1 0x0 REVERT JUMPDEST POP POP POP POP POP PUSH1 0x40 MLOAD RETURNDATASIZE PUSH1 0x1F NOT PUSH1 0x1F DUP3 ADD AND DUP3 ADD DUP1 PUSH1 0x40 MSTORE POP DUP2 ADD SWAP1 PUSH2 0x214C SWAP2 SWAP1 PUSH2 0x3361 JUMP JUMPDEST POP POP POP PUSH1 0x5 PUSH1 0x0 DUP6 PUSH20 0xFFFFFFFFFFFFFFFFFFFFFFFFFFFFFFFFFFFFFFFF AND PUSH20 0xFFFFFFFFFFFFFFFFFFFFFFFFFFFFFFFFFFFFFFFF AND DUP2 MSTORE PUSH1 0x20 ADD SWAP1 DUP2 MSTORE PUSH1 0x20 ADD PUSH1 0x0 KECCAK256 PUSH1 0x4 ADD PUSH1 0x0 SWAP1 SLOAD SWAP1 PUSH2 0x100 EXP SWAP1 DIV PUSH20 0xFFFFFFFFFFFFFFFFFFFFFFFFFFFFFFFFFFFFFFFF AND PUSH20 0xFFFFFFFFFFFFFFFFFFFFFFFFFFFFFFFFFFFFFFFF AND PUSH2 0x8FC PUSH1 0x64 PUSH1 0x2 PUSH1 0x3 SLOAD PUSH2 0x21DC SWAP2 SWAP1 PUSH2 0x2FC9 JUMP JUMPDEST PUSH2 0x21E6 SWAP2 SWAP1 PUSH2 0x303A JUMP JUMPDEST SWAP1 DUP2 ISZERO MUL SWAP1 PUSH1 0x40 MLOAD PUSH1 0x0 PUSH1 0x40 MLOAD DUP1 DUP4 SUB DUP2 DUP6 DUP9 DUP9 CALL SWAP4 POP POP POP POP ISZERO DUP1 ISZERO PUSH2 0x2211 JUMPI RETURNDATASIZE PUSH1 0x0 DUP1 RETURNDATACOPY RETURNDATASIZE PUSH1 0x0 REVERT JUMPDEST POP PUSH1 0x2 PUSH1 0x5 PUSH1 0x0 DUP7 PUSH20 0xFFFFFFFFFFFFFFFFFFFFFFFFFFFFFFFFFFFFFFFF AND PUSH20 0xFFFFFFFFFFFFFFFFFFFFFFFFFFFFFFFFFFFFFFFF AND DUP2 MSTORE PUSH1 0x20 ADD SWAP1 DUP2 MSTORE PUSH1 0x20 ADD PUSH1 0x0 KECCAK256 PUSH1 0x4 ADD PUSH1 0x14 PUSH2 0x100 EXP DUP2 SLOAD DUP2 PUSH1 0xFF MUL NOT AND SWAP1 DUP4 PUSH1 0x2 DUP2 GT ISZERO PUSH2 0x2278 JUMPI PUSH2 0x2277 PUSH2 0x2448 JUMP JUMPDEST JUMPDEST MUL OR SWAP1 SSTORE POP DUP3 PUSH20 0xFFFFFFFFFFFFFFFFFFFFFFFFFFFFFFFFFFFFFFFF AND DUP5 PUSH20 0xFFFFFFFFFFFFFFFFFFFFFFFFFFFFFFFFFFFFFFFF AND PUSH32 0x806EF27E0C58D1DB68E3780CB50BDE63B59139693B61AB9FDFF83126ACC3A9A0 PUSH1 0x40 MLOAD PUSH1 0x40 MLOAD DUP1 SWAP2 SUB SWAP1 LOG3 POP POP POP POP JUMP JUMPDEST PUSH1 0x0 CALLER SWAP1 POP SWAP1 JUMP JUMPDEST PUSH2 0x1985 DUP1 PUSH2 0x33B5 DUP4 CODECOPY ADD SWAP1 JUMP JUMPDEST PUSH1 0x40 MLOAD DUP1 PUSH1 0x60 ADD PUSH1 0x40 MSTORE DUP1 PUSH1 0x3 SWAP1 PUSH1 0x20 DUP3 MUL DUP1 CALLDATASIZE DUP4 CALLDATACOPY DUP1 DUP3 ADD SWAP2 POP POP SWAP1 POP POP SWAP1 JUMP JUMPDEST PUSH1 0x0 DUP1 REVERT JUMPDEST PUSH1 0x0 DUP1 REVERT JUMPDEST PUSH1 0x0 PUSH20 0xFFFFFFFFFFFFFFFFFFFFFFFFFFFFFFFFFFFFFFFF DUP3 AND SWAP1 POP SWAP2 SWAP1 POP JUMP JUMPDEST PUSH1 0x0 PUSH2 0x2349 DUP3 PUSH2 0x231E JUMP JUMPDEST SWAP1 POP SWAP2 SWAP1 POP JUMP JUMPDEST PUSH2 0x2359 DUP2 PUSH2 0x233E JUMP JUMPDEST DUP2 EQ PUSH2 0x2364 JUMPI PUSH1 0x0 DUP1 REVERT JUMPDEST POP JUMP JUMPDEST PUSH1 0x0 DUP2 CALLDATALOAD SWAP1 POP PUSH2 0x2376 DUP2 PUSH2 0x2350 JUMP JUMPDEST SWAP3 SWAP2 POP POP JUMP JUMPDEST PUSH1 0x0 PUSH1 0x20 DUP3 DUP5 SUB SLT ISZERO PUSH2 0x2392 JUMPI PUSH2 0x2391 PUSH2 0x2314 JUMP JUMPDEST JUMPDEST PUSH1 0x0 PUSH2 0x23A0 DUP5 DUP3 DUP6 ADD PUSH2 0x2367 JUMP JUMPDEST SWAP2 POP POP SWAP3 SWAP2 POP POP JUMP JUMPDEST PUSH1 0x0 DUP2 MLOAD SWAP1 POP SWAP2 SWAP1 POP JUMP JUMPDEST PUSH1 0x0 DUP3 DUP3 MSTORE PUSH1 0x20 DUP3 ADD SWAP1 POP SWAP3 SWAP2 POP POP JUMP JUMPDEST PUSH1 0x0 JUMPDEST DUP4 DUP2 LT ISZERO PUSH2 0x23E3 JUMPI DUP1 DUP3 ADD MLOAD DUP2 DUP5 ADD MSTORE PUSH1 0x20 DUP2 ADD SWAP1 POP PUSH2 0x23C8 JUMP JUMPDEST PUSH1 0x0 DUP5 DUP5 ADD MSTORE POP POP POP POP JUMP JUMPDEST PUSH1 0x0 PUSH1 0x1F NOT PUSH1 0x1F DUP4 ADD AND SWAP1 POP SWAP2 SWAP1 POP JUMP JUMPDEST PUSH1 0x0 PUSH2 0x240B DUP3 PUSH2 0x23A9 JUMP JUMPDEST PUSH2 0x2415 DUP2 DUP6 PUSH2 0x23B4 JUMP JUMPDEST SWAP4 POP PUSH2 0x2425 DUP2 DUP6 PUSH1 0x20 DUP7 ADD PUSH2 0x23C5 JUMP JUMPDEST PUSH2 0x242E DUP2 PUSH2 0x23EF JUMP JUMPDEST DUP5 ADD SWAP2 POP POP SWAP3 SWAP2 POP POP JUMP JUMPDEST PUSH2 0x2442 DUP2 PUSH2 0x233E JUMP JUMPDEST DUP3 MSTORE POP POP JUMP JUMPDEST PUSH32 0x4E487B7100000000000000000000000000000000000000000000000000000000 PUSH1 0x0 MSTORE PUSH1 0x21 PUSH1 0x4 MSTORE PUSH1 0x24 PUSH1 0x0 REVERT JUMPDEST PUSH1 0x3 DUP2 LT PUSH2 0x2488 JUMPI PUSH2 0x2487 PUSH2 0x2448 JUMP JUMPDEST JUMPDEST POP JUMP JUMPDEST PUSH1 0x0 DUP2 SWAP1 POP PUSH2 0x2499 DUP3 PUSH2 0x2477 JUMP JUMPDEST SWAP2 SWAP1 POP JUMP JUMPDEST PUSH1 0x0 PUSH2 0x24A9 DUP3 PUSH2 0x248B JUMP JUMPDEST SWAP1 POP SWAP2 SWAP1 POP JUMP JUMPDEST PUSH2 0x24B9 DUP2 PUSH2 0x249E JUMP JUMPDEST DUP3 MSTORE POP POP JUMP JUMPDEST PUSH1 0x0 DUP2 SWAP1 POP SWAP2 SWAP1 POP JUMP JUMPDEST PUSH2 0x24D2 DUP2 PUSH2 0x24BF JUMP JUMPDEST DUP3 MSTORE POP POP JUMP JUMPDEST PUSH1 0x0 PUSH1 0xE0 DUP3 ADD SWAP1 POP DUP2 DUP2 SUB PUSH1 0x0 DUP4 ADD MSTORE PUSH2 0x24F2 DUP2 DUP11 PUSH2 0x2400 JUMP JUMPDEST SWAP1 POP DUP2 DUP2 SUB PUSH1 0x20 DUP4 ADD MSTORE PUSH2 0x2506 DUP2 DUP10 PUSH2 0x2400 JUMP JUMPDEST SWAP1 POP DUP2 DUP2 SUB PUSH1 0x40 DUP4 ADD MSTORE PUSH2 0x251A DUP2 DUP9 PUSH2 0x2400 JUMP JUMPDEST SWAP1 POP DUP2 DUP2 SUB PUSH1 0x60 DUP4 ADD MSTORE PUSH2 0x252E DUP2 DUP8 PUSH2 0x2400 JUMP JUMPDEST SWAP1 POP PUSH2 0x253D PUSH1 0x80 DUP4 ADD DUP7 PUSH2 0x2439 JUMP JUMPDEST PUSH2 0x254A PUSH1 0xA0 DUP4 ADD DUP6 PUSH2 0x24B0 JUMP JUMPDEST PUSH2 0x2557 PUSH1 0xC0 DUP4 ADD DUP5 PUSH2 0x24C9 JUMP JUMPDEST SWAP9 SWAP8 POP POP POP POP POP POP POP POP JUMP JUMPDEST PUSH2 0x256C DUP2 PUSH2 0x24BF JUMP JUMPDEST DUP2 EQ PUSH2 0x2577 JUMPI PUSH1 0x0 DUP1 REVERT JUMPDEST POP JUMP JUMPDEST PUSH1 0x0 DUP2 CALLDATALOAD SWAP1 POP PUSH2 0x2589 DUP2 PUSH2 0x2563 JUMP JUMPDEST SWAP3 SWAP2 POP POP JUMP JUMPDEST PUSH1 0x0 PUSH1 0x20 DUP3 DUP5 SUB SLT ISZERO PUSH2 0x25A5 JUMPI PUSH2 0x25A4 PUSH2 0x2314 JUMP JUMPDEST JUMPDEST PUSH1 0x0 PUSH2 0x25B3 DUP5 DUP3 DUP6 ADD PUSH2 0x257A JUMP JUMPDEST SWAP2 POP POP SWAP3 SWAP2 POP POP JUMP JUMPDEST PUSH1 0x0 PUSH1 0x20 DUP3 ADD SWAP1 POP PUSH2 0x25D1 PUSH1 0x0 DUP4 ADD DUP5 PUSH2 0x2439 JUMP JUMPDEST SWAP3 SWAP2 POP POP JUMP JUMPDEST PUSH1 0x0 PUSH1 0x20 DUP3 ADD SWAP1 POP PUSH2 0x25EC PUSH1 0x0 DUP4 ADD DUP5 PUSH2 0x24C9 JUMP JUMPDEST SWAP3 SWAP2 POP POP JUMP JUMPDEST PUSH1 0x0 DUP1 PUSH1 0x40 DUP4 DUP6 SUB SLT ISZERO PUSH2 0x2609 JUMPI PUSH2 0x2608 PUSH2 0x2314 JUMP JUMPDEST JUMPDEST PUSH1 0x0 PUSH2 0x2617 DUP6 DUP3 DUP7 ADD PUSH2 0x2367 JUMP JUMPDEST SWAP3 POP POP PUSH1 0x20 PUSH2 0x2628 DUP6 DUP3 DUP7 ADD PUSH2 0x257A JUMP JUMPDEST SWAP2 POP POP SWAP3 POP SWAP3 SWAP1 POP JUMP JUMPDEST PUSH1 0x0 DUP1 REVERT JUMPDEST PUSH1 0x0 DUP1 REVERT JUMPDEST PUSH1 0x0 DUP1 REVERT JUMPDEST PUSH1 0x0 DUP1 DUP4 PUSH1 0x1F DUP5 ADD SLT PUSH2 0x2657 JUMPI PUSH2 0x2656 PUSH2 0x2632 JUMP JUMPDEST JUMPDEST DUP3 CALLDATALOAD SWAP1 POP PUSH8 0xFFFFFFFFFFFFFFFF DUP2 GT ISZERO PUSH2 0x2674 JUMPI PUSH2 0x2673 PUSH2 0x2637 JUMP JUMPDEST JUMPDEST PUSH1 0x20 DUP4 ADD SWAP2 POP DUP4 PUSH1 0x1 DUP3 MUL DUP4 ADD GT ISZERO PUSH2 0x2690 JUMPI PUSH2 0x268F PUSH2 0x263C JUMP JUMPDEST JUMPDEST SWAP3 POP SWAP3 SWAP1 POP JUMP JUMPDEST PUSH1 0x0 DUP1 PUSH1 0x0 DUP1 PUSH1 0x0 DUP1 PUSH1 0x0 DUP1 PUSH1 0x80 DUP10 DUP12 SUB SLT ISZERO PUSH2 0x26B7 JUMPI PUSH2 0x26B6 PUSH2 0x2314 JUMP JUMPDEST JUMPDEST PUSH1 0x0 DUP10 ADD CALLDATALOAD PUSH8 0xFFFFFFFFFFFFFFFF DUP2 GT ISZERO PUSH2 0x26D5 JUMPI PUSH2 0x26D4 PUSH2 0x2319 JUMP JUMPDEST JUMPDEST PUSH2 0x26E1 DUP12 DUP3 DUP13 ADD PUSH2 0x2641 JUMP JUMPDEST SWAP9 POP SWAP9 POP POP PUSH1 0x20 DUP10 ADD CALLDATALOAD PUSH8 0xFFFFFFFFFFFFFFFF DUP2 GT ISZERO PUSH2 0x2704 JUMPI PUSH2 0x2703 PUSH2 0x2319 JUMP JUMPDEST JUMPDEST PUSH2 0x2710 DUP12 DUP3 DUP13 ADD PUSH2 0x2641 JUMP JUMPDEST SWAP7 POP SWAP7 POP POP PUSH1 0x40 DUP10 ADD CALLDATALOAD PUSH8 0xFFFFFFFFFFFFFFFF DUP2 GT ISZERO PUSH2 0x2733 JUMPI PUSH2 0x2732 PUSH2 0x2319 JUMP JUMPDEST JUMPDEST PUSH2 0x273F DUP12 DUP3 DUP13 ADD PUSH2 0x2641 JUMP JUMPDEST SWAP5 POP SWAP5 POP POP PUSH1 0x60 DUP10 ADD CALLDATALOAD PUSH8 0xFFFFFFFFFFFFFFFF DUP2 GT ISZERO PUSH2 0x2762 JUMPI PUSH2 0x2761 PUSH2 0x2319 JUMP JUMPDEST JUMPDEST PUSH2 0x276E DUP12 DUP3 DUP13 ADD PUSH2 0x2641 JUMP JUMPDEST SWAP3 POP SWAP3 POP POP SWAP3 SWAP6 SWAP9 POP SWAP3 SWAP6 SWAP9 SWAP1 SWAP4 SWAP7 POP JUMP JUMPDEST PUSH1 0x0 PUSH1 0x3 SWAP1 POP SWAP2 SWAP1 POP JUMP JUMPDEST PUSH1 0x0 DUP2 SWAP1 POP SWAP3 SWAP2 POP POP JUMP JUMPDEST PUSH1 0x0 DUP2 SWAP1 POP SWAP2 SWAP1 POP JUMP JUMPDEST PUSH2 0x27A9 DUP2 PUSH2 0x24BF JUMP JUMPDEST DUP3 MSTORE POP POP JUMP JUMPDEST PUSH1 0x0 PUSH2 0x27BB DUP4 DUP4 PUSH2 0x27A0 JUMP JUMPDEST PUSH1 0x20 DUP4 ADD SWAP1 POP SWAP3 SWAP2 POP POP JUMP JUMPDEST PUSH1 0x0 PUSH1 0x20 DUP3 ADD SWAP1 POP SWAP2 SWAP1 POP JUMP JUMPDEST PUSH2 0x27DD DUP2 PUSH2 0x2780 JUMP JUMPDEST PUSH2 0x27E7 DUP2 DUP5 PUSH2 0x278B JUMP JUMPDEST SWAP3 POP PUSH2 0x27F2 DUP3 PUSH2 0x2796 JUMP JUMPDEST DUP1 PUSH1 0x0 JUMPDEST DUP4 DUP2 LT ISZERO PUSH2 0x2823 JUMPI DUP2 MLOAD PUSH2 0x280A DUP8 DUP3 PUSH2 0x27AF JUMP JUMPDEST SWAP7 POP PUSH2 0x2815 DUP4 PUSH2 0x27C7 JUMP JUMPDEST SWAP3 POP POP PUSH1 0x1 DUP2 ADD SWAP1 POP PUSH2 0x27F6 JUMP JUMPDEST POP POP POP POP POP POP JUMP JUMPDEST PUSH1 0x0 PUSH1 0x60 DUP3 ADD SWAP1 POP PUSH2 0x2840 PUSH1 0x0 DUP4 ADD DUP5 PUSH2 0x27D4 JUMP JUMPDEST SWAP3 SWAP2 POP POP JUMP JUMPDEST PUSH1 0x0 DUP1 PUSH1 0x40 DUP4 DUP6 SUB SLT ISZERO PUSH2 0x285D JUMPI PUSH2 0x285C PUSH2 0x2314 JUMP JUMPDEST JUMPDEST PUSH1 0x0 PUSH2 0x286B DUP6 DUP3 DUP7 ADD PUSH2 0x2367 JUMP JUMPDEST SWAP3 POP POP PUSH1 0x20 PUSH2 0x287C DUP6 DUP3 DUP7 ADD PUSH2 0x2367 JUMP JUMPDEST SWAP2 POP POP SWAP3 POP SWAP3 SWAP1 POP JUMP JUMPDEST PUSH32 0x4E487B7100000000000000000000000000000000000000000000000000000000 PUSH1 0x0 MSTORE PUSH1 0x22 PUSH1 0x4 MSTORE PUSH1 0x24 PUSH1 0x0 REVERT JUMPDEST PUSH1 0x0 PUSH1 0x2 DUP3 DIV SWAP1 POP PUSH1 0x1 DUP3 AND DUP1 PUSH2 0x28CD JUMPI PUSH1 0x7F DUP3 AND SWAP2 POP JUMPDEST PUSH1 0x20 DUP3 LT DUP2 SUB PUSH2 0x28E0 JUMPI PUSH2 0x28DF PUSH2 0x2886 JUMP JUMPDEST JUMPDEST POP SWAP2 SWAP1 POP JUMP JUMPDEST PUSH32 0x4E6F206665657320746F20776974686472617700000000000000000000000000 PUSH1 0x0 DUP3 ADD MSTORE POP JUMP JUMPDEST PUSH1 0x0 PUSH2 0x291C PUSH1 0x13 DUP4 PUSH2 0x23B4 JUMP JUMPDEST SWAP2 POP PUSH2 0x2927 DUP3 PUSH2 0x28E6 JUMP JUMPDEST PUSH1 0x20 DUP3 ADD SWAP1 POP SWAP2 SWAP1 POP JUMP JUMPDEST PUSH1 0x0 PUSH1 0x20 DUP3 ADD SWAP1 POP DUP2 DUP2 SUB PUSH1 0x0 DUP4 ADD MSTORE PUSH2 0x294B DUP2 PUSH2 0x290F JUMP JUMPDEST SWAP1 POP SWAP2 SWAP1 POP JUMP JUMPDEST PUSH32 0x496E76616C696420746F6B656E20737461676500000000000000000000000000 PUSH1 0x0 DUP3 ADD MSTORE POP JUMP JUMPDEST PUSH1 0x0 PUSH2 0x2988 PUSH1 0x13 DUP4 PUSH2 0x23B4 JUMP JUMPDEST SWAP2 POP PUSH2 0x2993 DUP3 PUSH2 0x2952 JUMP JUMPDEST PUSH1 0x20 DUP3 ADD SWAP1 POP SWAP2 SWAP1 POP JUMP JUMPDEST PUSH1 0x0 PUSH1 0x20 DUP3 ADD SWAP1 POP DUP2 DUP2 SUB PUSH1 0x0 DUP4 ADD MSTORE PUSH2 0x29B7 DUP2 PUSH2 0x297B JUMP JUMPDEST SWAP1 POP SWAP2 SWAP1 POP JUMP JUMPDEST PUSH32 0x496E73756666696369656E7420746F6B656E2062616C616E6365000000000000 PUSH1 0x0 DUP3 ADD MSTORE POP JUMP JUMPDEST PUSH1 0x0 PUSH2 0x29F4 PUSH1 0x1A DUP4 PUSH2 0x23B4 JUMP JUMPDEST SWAP2 POP PUSH2 0x29FF DUP3 PUSH2 0x29BE JUMP JUMPDEST PUSH1 0x20 DUP3 ADD SWAP1 POP SWAP2 SWAP1 POP JUMP JUMPDEST PUSH1 0x0 PUSH1 0x20 DUP3 ADD SWAP1 POP DUP2 DUP2 SUB PUSH1 0x0 DUP4 ADD MSTORE PUSH2 0x2A23 DUP2 PUSH2 0x29E7 JUMP JUMPDEST SWAP1 POP SWAP2 SWAP1 POP JUMP JUMPDEST PUSH1 0x0 PUSH1 0x40 DUP3 ADD SWAP1 POP PUSH2 0x2A3F PUSH1 0x0 DUP4 ADD DUP6 PUSH2 0x2439 JUMP JUMPDEST PUSH2 0x2A4C PUSH1 0x20 DUP4 ADD DUP5 PUSH2 0x24C9 JUMP JUMPDEST SWAP4 SWAP3 POP POP POP JUMP JUMPDEST PUSH1 0x0 DUP2 ISZERO ISZERO SWAP1 POP SWAP2 SWAP1 POP JUMP JUMPDEST PUSH2 0x2A68 DUP2 PUSH2 0x2A53 JUMP JUMPDEST DUP2 EQ PUSH2 0x2A73 JUMPI PUSH1 0x0 DUP1 REVERT JUMPDEST POP JUMP JUMPDEST PUSH1 0x0 DUP2 MLOAD SWAP1 POP PUSH2 0x2A85 DUP2 PUSH2 0x2A5F JUMP JUMPDEST SWAP3 SWAP2 POP POP JUMP JUMPDEST PUSH1 0x0 PUSH1 0x20 DUP3 DUP5 SUB SLT ISZERO PUSH2 0x2AA1 JUMPI PUSH2 0x2AA0 PUSH2 0x2314 JUMP JUMPDEST JUMPDEST PUSH1 0x0 PUSH2 0x2AAF DUP5 DUP3 DUP6 ADD PUSH2 0x2A76 JUMP JUMPDEST SWAP2 POP POP SWAP3 SWAP2 POP POP JUMP JUMPDEST PUSH32 0x4E487B7100000000000000000000000000000000000000000000000000000000 PUSH1 0x0 MSTORE PUSH1 0x32 PUSH1 0x4 MSTORE PUSH1 0x24 PUSH1 0x0 REVERT JUMPDEST PUSH32 0x4E487B7100000000000000000000000000000000000000000000000000000000 PUSH1 0x0 MSTORE PUSH1 0x11 PUSH1 0x4 MSTORE PUSH1 0x24 PUSH1 0x0 REVERT JUMPDEST PUSH1 0x0 PUSH2 0x2B21 DUP3 PUSH2 0x24BF JUMP JUMPDEST SWAP2 POP PUSH2 0x2B2C DUP4 PUSH2 0x24BF JUMP JUMPDEST SWAP3 POP DUP3 DUP3 SUB SWAP1 POP DUP2 DUP2 GT ISZERO PUSH2 0x2B44 JUMPI PUSH2 0x2B43 PUSH2 0x2AE7 JUMP JUMPDEST JUMPDEST SWAP3 SWAP2 POP POP JUMP JUMPDEST PUSH32 0x496E73756666696369656E7420636F6E74726163742062616C616E6365000000 PUSH1 0x0 DUP3 ADD MSTORE POP JUMP JUMPDEST PUSH1 0x0 PUSH2 0x2B80 PUSH1 0x1D DUP4 PUSH2 0x23B4 JUMP JUMPDEST SWAP2 POP PUSH2 0x2B8B DUP3 PUSH2 0x2B4A JUMP JUMPDEST PUSH1 0x20 DUP3 ADD SWAP1 POP SWAP2 SWAP1 POP JUMP JUMPDEST PUSH1 0x0 PUSH1 0x20 DUP3 ADD SWAP1 POP DUP2 DUP2 SUB PUSH1 0x0 DUP4 ADD MSTORE PUSH2 0x2BAF DUP2 PUSH2 0x2B73 JUMP JUMPDEST SWAP1 POP SWAP2 SWAP1 POP JUMP JUMPDEST PUSH1 0x0 PUSH2 0x2BC1 DUP3 PUSH2 0x24BF JUMP JUMPDEST SWAP2 POP PUSH2 0x2BCC DUP4 PUSH2 0x24BF JUMP JUMPDEST SWAP3 POP DUP3 DUP3 ADD SWAP1 POP DUP1 DUP3 GT ISZERO PUSH2 0x2BE4 JUMPI PUSH2 0x2BE3 PUSH2 0x2AE7 JUMP JUMPDEST JUMPDEST SWAP3 SWAP2 POP POP JUMP JUMPDEST PUSH1 0x0 PUSH1 0x40 DUP3 ADD SWAP1 POP PUSH2 0x2BFF PUSH1 0x0 DUP4 ADD DUP6 PUSH2 0x24C9 JUMP JUMPDEST PUSH2 0x2C0C PUSH1 0x20 DUP4 ADD DUP5 PUSH2 0x24C9 JUMP JUMPDEST SWAP4 SWAP3 POP POP POP JUMP JUMPDEST PUSH32 0x496E73756666696369656E7420424E4220666F72206372656174696F6E206665 PUSH1 0x0 DUP3 ADD MSTORE PUSH32 0x6500000000000000000000000000000000000000000000000000000000000000 PUSH1 0x20 DUP3 ADD MSTORE POP JUMP JUMPDEST PUSH1 0x0 PUSH2 0x2C6F PUSH1 0x21 DUP4 PUSH2 0x23B4 JUMP JUMPDEST SWAP2 POP PUSH2 0x2C7A DUP3 PUSH2 0x2C13 JUMP JUMPDEST PUSH1 0x40 DUP3 ADD SWAP1 POP SWAP2 SWAP1 POP JUMP JUMPDEST PUSH1 0x0 PUSH1 0x20 DUP3 ADD SWAP1 POP DUP2 DUP2 SUB PUSH1 0x0 DUP4 ADD MSTORE PUSH2 0x2C9E DUP2 PUSH2 0x2C62 JUMP JUMPDEST SWAP1 POP SWAP2 SWAP1 POP JUMP JUMPDEST DUP3 DUP2 DUP4 CALLDATACOPY PUSH1 0x0 DUP4 DUP4 ADD MSTORE POP POP POP JUMP JUMPDEST PUSH1 0x0 PUSH2 0x2CC0 DUP4 DUP6 PUSH2 0x23B4 JUMP JUMPDEST SWAP4 POP PUSH2 0x2CCD DUP4 DUP6 DUP5 PUSH2 0x2CA5 JUMP JUMPDEST PUSH2 0x2CD6 DUP4 PUSH2 0x23EF JUMP JUMPDEST DUP5 ADD SWAP1 POP SWAP4 SWAP3 POP POP POP JUMP JUMPDEST PUSH1 0x0 PUSH1 0x40 DUP3 ADD SWAP1 POP DUP2 DUP2 SUB PUSH1 0x0 DUP4 ADD MSTORE PUSH2 0x2CFC DUP2 DUP7 DUP9 PUSH2 0x2CB4 JUMP JUMPDEST SWAP1 POP DUP2 DUP2 SUB PUSH1 0x20 DUP4 ADD MSTORE PUSH2 0x2D11 DUP2 DUP5 DUP7 PUSH2 0x2CB4 JUMP JUMPDEST SWAP1 POP SWAP6 SWAP5 POP POP POP POP POP JUMP JUMPDEST PUSH32 0x4E487B7100000000000000000000000000000000000000000000000000000000 PUSH1 0x0 MSTORE PUSH1 0x41 PUSH1 0x4 MSTORE PUSH1 0x24 PUSH1 0x0 REVERT JUMPDEST PUSH1 0x0 DUP2 SWAP1 POP DUP2 PUSH1 0x0 MSTORE PUSH1 0x20 PUSH1 0x0 KECCAK256 SWAP1 POP SWAP2 SWAP1 POP JUMP JUMPDEST PUSH1 0x0 PUSH1 0x20 PUSH1 0x1F DUP4 ADD DIV SWAP1 POP SWAP2 SWAP1 POP JUMP JUMPDEST PUSH1 0x0 DUP3 DUP3 SHL SWAP1 POP SWAP3 SWAP2 POP POP JUMP JUMPDEST PUSH1 0x0 PUSH1 0x8 DUP4 MUL PUSH2 0x2DAD PUSH32 0xFFFFFFFFFFFFFFFFFFFFFFFFFFFFFFFFFFFFFFFFFFFFFFFFFFFFFFFFFFFFFFFF DUP3 PUSH2 0x2D70 JUMP JUMPDEST PUSH2 0x2DB7 DUP7 DUP4 PUSH2 0x2D70 JUMP JUMPDEST SWAP6 POP DUP1 NOT DUP5 AND SWAP4 POP DUP1 DUP7 AND DUP5 OR SWAP3 POP POP POP SWAP4 SWAP3 POP POP POP JUMP JUMPDEST PUSH1 0x0 DUP2 SWAP1 POP SWAP2 SWAP1 POP JUMP JUMPDEST PUSH1 0x0 PUSH2 0x2DF4 PUSH2 0x2DEF PUSH2 0x2DEA DUP5 PUSH2 0x24BF JUMP JUMPDEST PUSH2 0x2DCF JUMP JUMPDEST PUSH2 0x24BF JUMP JUMPDEST SWAP1 POP SWAP2 SWAP1 POP JUMP JUMPDEST PUSH1 0x0 DUP2 SWAP1 POP SWAP2 SWAP1 POP JUMP JUMPDEST PUSH2 0x2E0E DUP4 PUSH2 0x2DD9 JUMP JUMPDEST PUSH2 0x2E22 PUSH2 0x2E1A DUP3 PUSH2 0x2DFB JUMP JUMPDEST DUP5 DUP5 SLOAD PUSH2 0x2D7D JUMP JUMPDEST DUP3 SSTORE POP POP POP POP JUMP JUMPDEST PUSH1 0x0 SWAP1 JUMP JUMPDEST PUSH2 0x2E37 PUSH2 0x2E2A JUMP JUMPDEST PUSH2 0x2E42 DUP2 DUP5 DUP5 PUSH2 0x2E05 JUMP JUMPDEST POP POP POP JUMP JUMPDEST JUMPDEST DUP2 DUP2 LT ISZERO PUSH2 0x2E66 JUMPI PUSH2 0x2E5B PUSH1 0x0 DUP3 PUSH2 0x2E2F JUMP JUMPDEST PUSH1 0x1 DUP2 ADD SWAP1 POP PUSH2 0x2E48 JUMP JUMPDEST POP POP JUMP JUMPDEST PUSH1 0x1F DUP3 GT ISZERO PUSH2 0x2EAB JUMPI PUSH2 0x2E7C DUP2 PUSH2 0x2D4B JUMP JUMPDEST PUSH2 0x2E85 DUP5 PUSH2 0x2D60 JUMP JUMPDEST DUP2 ADD PUSH1 0x20 DUP6 LT ISZERO PUSH2 0x2E94 JUMPI DUP2 SWAP1 POP JUMPDEST PUSH2 0x2EA8 PUSH2 0x2EA0 DUP6 PUSH2 0x2D60 JUMP JUMPDEST DUP4 ADD DUP3 PUSH2 0x2E47 JUMP JUMPDEST POP POP JUMPDEST POP POP POP JUMP JUMPDEST PUSH1 0x0 DUP3 DUP3 SHR SWAP1 POP SWAP3 SWAP2 POP POP JUMP JUMPDEST PUSH1 0x0 PUSH2 0x2ECE PUSH1 0x0 NOT DUP5 PUSH1 0x8 MUL PUSH2 0x2EB0 JUMP JUMPDEST NOT DUP1 DUP4 AND SWAP2 POP POP SWAP3 SWAP2 POP POP JUMP JUMPDEST PUSH1 0x0 PUSH2 0x2EE7 DUP4 DUP4 PUSH2 0x2EBD JUMP JUMPDEST SWAP2 POP DUP3 PUSH1 0x2 MUL DUP3 OR SWAP1 POP SWAP3 SWAP2 POP POP JUMP JUMPDEST PUSH2 0x2F00 DUP3 PUSH2 0x23A9 JUMP JUMPDEST PUSH8 0xFFFFFFFFFFFFFFFF DUP2 GT ISZERO PUSH2 0x2F19 JUMPI PUSH2 0x2F18 PUSH2 0x2D1C JUMP JUMPDEST JUMPDEST PUSH2 0x2F23 DUP3 SLOAD PUSH2 0x28B5 JUMP JUMPDEST PUSH2 0x2F2E DUP3 DUP3 DUP6 PUSH2 0x2E6A JUMP JUMPDEST PUSH1 0x0 PUSH1 0x20 SWAP1 POP PUSH1 0x1F DUP4 GT PUSH1 0x1 DUP2 EQ PUSH2 0x2F61 JUMPI PUSH1 0x0 DUP5 ISZERO PUSH2 0x2F4F JUMPI DUP3 DUP8 ADD MLOAD SWAP1 POP JUMPDEST PUSH2 0x2F59 DUP6 DUP3 PUSH2 0x2EDB JUMP JUMPDEST DUP7 SSTORE POP PUSH2 0x2FC1 JUMP JUMPDEST PUSH1 0x1F NOT DUP5 AND PUSH2 0x2F6F DUP7 PUSH2 0x2D4B JUMP JUMPDEST PUSH1 0x0 JUMPDEST DUP3 DUP2 LT ISZERO PUSH2 0x2F97 JUMPI DUP5 DUP10 ADD MLOAD DUP3 SSTORE PUSH1 0x1 DUP3 ADD SWAP2 POP PUSH1 0x20 DUP6 ADD SWAP5 POP PUSH1 0x20 DUP2 ADD SWAP1 POP PUSH2 0x2F72 JUMP JUMPDEST DUP7 DUP4 LT ISZERO PUSH2 0x2FB4 JUMPI DUP5 DUP10 ADD MLOAD PUSH2 0x2FB0 PUSH1 0x1F DUP10 AND DUP3 PUSH2 0x2EBD JUMP JUMPDEST DUP4 SSTORE POP JUMPDEST PUSH1 0x1 PUSH1 0x2 DUP9 MUL ADD DUP9 SSTORE POP POP POP JUMPDEST POP POP POP POP POP POP JUMP JUMPDEST PUSH1 0x0 PUSH2 0x2FD4 DUP3 PUSH2 0x24BF JUMP JUMPDEST SWAP2 POP PUSH2 0x2FDF DUP4 PUSH2 0x24BF JUMP JUMPDEST SWAP3 POP DUP3 DUP3 MUL PUSH2 0x2FED DUP2 PUSH2 0x24BF JUMP JUMPDEST SWAP2 POP DUP3 DUP3 DIV DUP5 EQ DUP4 ISZERO OR PUSH2 0x3004 JUMPI PUSH2 0x3003 PUSH2 0x2AE7 JUMP JUMPDEST JUMPDEST POP SWAP3 SWAP2 POP POP JUMP JUMPDEST PUSH32 0x4E487B7100000000000000000000000000000000000000000000000000000000 PUSH1 0x0 MSTORE PUSH1 0x12 PUSH1 0x4 MSTORE PUSH1 0x24 PUSH1 0x0 REVERT JUMPDEST PUSH1 0x0 PUSH2 0x3045 DUP3 PUSH2 0x24BF JUMP JUMPDEST SWAP2 POP PUSH2 0x3050 DUP4 PUSH2 0x24BF JUMP JUMPDEST SWAP3 POP DUP3 PUSH2 0x3060 JUMPI PUSH2 0x305F PUSH2 0x300B JUMP JUMPDEST JUMPDEST DUP3 DUP3 DIV SWAP1 POP SWAP3 SWAP2 POP POP JUMP JUMPDEST PUSH1 0x0 PUSH1 0x80 DUP3 ADD SWAP1 POP DUP2 DUP2 SUB PUSH1 0x0 DUP4 ADD MSTORE PUSH2 0x3086 DUP2 DUP11 DUP13 PUSH2 0x2CB4 JUMP JUMPDEST SWAP1 POP DUP2 DUP2 SUB PUSH1 0x20 DUP4 ADD MSTORE PUSH2 0x309B DUP2 DUP9 DUP11 PUSH2 0x2CB4 JUMP JUMPDEST SWAP1 POP DUP2 DUP2 SUB PUSH1 0x40 DUP4 ADD MSTORE PUSH2 0x30B0 DUP2 DUP7 DUP9 PUSH2 0x2CB4 JUMP JUMPDEST SWAP1 POP DUP2 DUP2 SUB PUSH1 0x60 DUP4 ADD MSTORE PUSH2 0x30C5 DUP2 DUP5 DUP7 PUSH2 0x2CB4 JUMP JUMPDEST SWAP1 POP SWAP10 SWAP9 POP POP POP POP POP POP POP POP POP JUMP JUMPDEST PUSH1 0x0 DUP2 MLOAD SWAP1 POP PUSH2 0x30E3 DUP2 PUSH2 0x2563 JUMP JUMPDEST SWAP3 SWAP2 POP POP JUMP JUMPDEST PUSH1 0x0 PUSH1 0x20 DUP3 DUP5 SUB SLT ISZERO PUSH2 0x30FF JUMPI PUSH2 0x30FE PUSH2 0x2314 JUMP JUMPDEST JUMPDEST PUSH1 0x0 PUSH2 0x310D DUP5 DUP3 DUP6 ADD PUSH2 0x30D4 JUMP JUMPDEST SWAP2 POP POP SWAP3 SWAP2 POP POP JUMP JUMPDEST PUSH32 0x496E76616C696420746F6B656E00000000000000000000000000000000000000 PUSH1 0x0 DUP3 ADD MSTORE POP JUMP JUMPDEST PUSH1 0x0 PUSH2 0x314C PUSH1 0xD DUP4 PUSH2 0x23B4 JUMP JUMPDEST SWAP2 POP PUSH2 0x3157 DUP3 PUSH2 0x3116 JUMP JUMPDEST PUSH1 0x20 DUP3 ADD SWAP1 POP SWAP2 SWAP1 POP JUMP JUMPDEST PUSH1 0x0 PUSH1 0x20 DUP3 ADD SWAP1 POP DUP2 DUP2 SUB PUSH1 0x0 DUP4 ADD MSTORE PUSH2 0x317B DUP2 PUSH2 0x313F JUMP JUMPDEST SWAP1 POP SWAP2 SWAP1 POP JUMP JUMPDEST PUSH32 0x4E6F7420656E6F75676820617661696C61626C6520746F6B656E730000000000 PUSH1 0x0 DUP3 ADD MSTORE POP JUMP JUMPDEST PUSH1 0x0 PUSH2 0x31B8 PUSH1 0x1B DUP4 PUSH2 0x23B4 JUMP JUMPDEST SWAP2 POP PUSH2 0x31C3 DUP3 PUSH2 0x3182 JUMP JUMPDEST PUSH1 0x20 DUP3 ADD SWAP1 POP SWAP2 SWAP1 POP JUMP JUMPDEST PUSH1 0x0 PUSH1 0x20 DUP3 ADD SWAP1 POP DUP2 DUP2 SUB PUSH1 0x0 DUP4 ADD MSTORE PUSH2 0x31E7 DUP2 PUSH2 0x31AB JUMP JUMPDEST SWAP1 POP SWAP2 SWAP1 POP JUMP JUMPDEST PUSH32 0x4E6F7420656E6F75676820424E4220666F722074726164650000000000000000 PUSH1 0x0 DUP3 ADD MSTORE POP JUMP JUMPDEST PUSH1 0x0 PUSH2 0x3224 PUSH1 0x18 DUP4 PUSH2 0x23B4 JUMP JUMPDEST SWAP2 POP PUSH2 0x322F DUP3 PUSH2 0x31EE JUMP JUMPDEST PUSH1 0x20 DUP3 ADD SWAP1 POP SWAP2 SWAP1 POP JUMP JUMPDEST PUSH1 0x0 PUSH1 0x20 DUP3 ADD SWAP1 POP DUP2 DUP2 SUB PUSH1 0x0 DUP4 ADD MSTORE PUSH2 0x3253 DUP2 PUSH2 0x3217 JUMP JUMPDEST SWAP1 POP SWAP2 SWAP1 POP JUMP JUMPDEST PUSH1 0x0 DUP2 MLOAD SWAP1 POP PUSH2 0x3269 DUP2 PUSH2 0x2350 JUMP JUMPDEST SWAP3 SWAP2 POP POP JUMP JUMPDEST PUSH1 0x0 PUSH1 0x20 DUP3 DUP5 SUB SLT ISZERO PUSH2 0x3285 JUMPI PUSH2 0x3284 PUSH2 0x2314 JUMP JUMPDEST JUMPDEST PUSH1 0x0 PUSH2 0x3293 DUP5 DUP3 DUP6 ADD PUSH2 0x325A JUMP JUMPDEST SWAP2 POP POP SWAP3 SWAP2 POP POP JUMP JUMPDEST PUSH1 0x0 PUSH1 0x40 DUP3 ADD SWAP1 POP PUSH2 0x32B1 PUSH1 0x0 DUP4 ADD DUP6 PUSH2 0x2439 JUMP JUMPDEST PUSH2 0x32BE PUSH1 0x20 DUP4 ADD DUP5 PUSH2 0x2439 JUMP JUMPDEST SWAP4 SWAP3 POP POP POP JUMP JUMPDEST PUSH1 0x0 DUP2 SWAP1 POP SWAP2 SWAP1 POP JUMP JUMPDEST PUSH1 0x0 PUSH2 0x32EA PUSH2 0x32E5 PUSH2 0x32E0 DUP5 PUSH2 0x32C5 JUMP JUMPDEST PUSH2 0x2DCF JUMP JUMPDEST PUSH2 0x24BF JUMP JUMPDEST SWAP1 POP SWAP2 SWAP1 POP JUMP JUMPDEST PUSH2 0x32FA DUP2 PUSH2 0x32CF JUMP JUMPDEST DUP3 MSTORE POP POP JUMP JUMPDEST PUSH1 0x0 PUSH1 0xC0 DUP3 ADD SWAP1 POP PUSH2 0x3315 PUSH1 0x0 DUP4 ADD DUP10 PUSH2 0x2439 JUMP JUMPDEST PUSH2 0x3322 PUSH1 0x20 DUP4 ADD DUP9 PUSH2 0x24C9 JUMP JUMPDEST PUSH2 0x332F PUSH1 0x40 DUP4 ADD DUP8 PUSH2 0x32F1 JUMP JUMPDEST PUSH2 0x333C PUSH1 0x60 DUP4 ADD DUP7 PUSH2 0x32F1 JUMP JUMPDEST PUSH2 0x3349 PUSH1 0x80 DUP4 ADD DUP6 PUSH2 0x2439 JUMP JUMPDEST PUSH2 0x3356 PUSH1 0xA0 DUP4 ADD DUP5 PUSH2 0x24C9 JUMP JUMPDEST SWAP8 SWAP7 POP POP POP POP POP POP POP JUMP JUMPDEST PUSH1 0x0 DUP1 PUSH1 0x0 PUSH1 0x60 DUP5 DUP7 SUB SLT ISZERO PUSH2 0x337A JUMPI PUSH2 0x3379 PUSH2 0x2314 JUMP JUMPDEST JUMPDEST PUSH1 0x0 PUSH2 0x3388 DUP7 DUP3 DUP8 ADD PUSH2 0x30D4 JUMP JUMPDEST SWAP4 POP POP PUSH1 0x20 PUSH2 0x3399 DUP7 DUP3 DUP8 ADD PUSH2 0x30D4 JUMP JUMPDEST SWAP3 POP POP PUSH1 0x40 PUSH2 0x33AA DUP7 DUP3 DUP8 ADD PUSH2 0x30D4 JUMP JUMPDEST SWAP2 POP POP SWAP3 POP SWAP3 POP SWAP3 JUMP INVALID PUSH1 0x80 PUSH1 0x40 MSTORE CALLVALUE DUP1 ISZERO PUSH2 0x10 JUMPI PUSH1 0x0 DUP1 REVERT JUMPDEST POP PUSH1 0x40 MLOAD PUSH2 0x1985 CODESIZE SUB DUP1 PUSH2 0x1985 DUP4 CODECOPY DUP2 DUP2 ADD PUSH1 0x40 MSTORE DUP2 ADD SWAP1 PUSH2 0x32 SWAP2 SWAP1 PUSH2 0x31B JUMP JUMPDEST CALLER DUP3 DUP3 DUP2 PUSH1 0x3 SWAP1 DUP2 PUSH2 0x44 SWAP2 SWAP1 PUSH2 0x5B4 JUMP JUMPDEST POP DUP1 PUSH1 0x4 SWAP1 DUP2 PUSH2 0x54 SWAP2 SWAP1 PUSH2 0x5B4 JUMP JUMPDEST POP POP POP PUSH1 0x0 PUSH20 0xFFFFFFFFFFFFFFFFFFFFFFFFFFFFFFFFFFFFFFFF AND DUP2 PUSH20 0xFFFFFFFFFFFFFFFFFFFFFFFFFFFFFFFFFFFFFFFF AND SUB PUSH2 0xC9 JUMPI PUSH1 0x0 PUSH1 0x40 MLOAD PUSH32 0x1E4FBDF700000000000000000000000000000000000000000000000000000000 DUP2 MSTORE PUSH1 0x4 ADD PUSH2 0xC0 SWAP2 SWAP1 PUSH2 0x6C7 JUMP JUMPDEST PUSH1 0x40 MLOAD DUP1 SWAP2 SUB SWAP1 REVERT JUMPDEST PUSH2 0xD8 DUP2 PUSH2 0xE0 PUSH1 0x20 SHL PUSH1 0x20 SHR JUMP JUMPDEST POP POP POP PUSH2 0x6E2 JUMP JUMPDEST PUSH1 0x0 PUSH1 0x5 PUSH1 0x0 SWAP1 SLOAD SWAP1 PUSH2 0x100 EXP SWAP1 DIV PUSH20 0xFFFFFFFFFFFFFFFFFFFFFFFFFFFFFFFFFFFFFFFF AND SWAP1 POP DUP2 PUSH1 0x5 PUSH1 0x0 PUSH2 0x100 EXP DUP2 SLOAD DUP2 PUSH20 0xFFFFFFFFFFFFFFFFFFFFFFFFFFFFFFFFFFFFFFFF MUL NOT AND SWAP1 DUP4 PUSH20 0xFFFFFFFFFFFFFFFFFFFFFFFFFFFFFFFFFFFFFFFF AND MUL OR SWAP1 SSTORE POP DUP2 PUSH20 0xFFFFFFFFFFFFFFFFFFFFFFFFFFFFFFFFFFFFFFFF AND DUP2 PUSH20 0xFFFFFFFFFFFFFFFFFFFFFFFFFFFFFFFFFFFFFFFF AND PUSH32 0x8BE0079C531659141344CD1FD0A4F28419497F9722A3DAAFE3B4186F6B6457E0 PUSH1 0x40 MLOAD PUSH1 0x40 MLOAD DUP1 SWAP2 SUB SWAP1 LOG3 POP POP JUMP JUMPDEST PUSH1 0x0 PUSH1 0x40 MLOAD SWAP1 POP SWAP1 JUMP JUMPDEST PUSH1 0x0 DUP1 REVERT JUMPDEST PUSH1 0x0 DUP1 REVERT JUMPDEST PUSH1 0x0 DUP1 REVERT JUMPDEST PUSH1 0x0 DUP1 REVERT JUMPDEST PUSH1 0x0 PUSH1 0x1F NOT PUSH1 0x1F DUP4 ADD AND SWAP1 POP SWAP2 SWAP1 POP JUMP JUMPDEST PUSH32 0x4E487B7100000000000000000000000000000000000000000000000000000000 PUSH1 0x0 MSTORE PUSH1 0x41 PUSH1 0x4 MSTORE PUSH1 0x24 PUSH1 0x0 REVERT JUMPDEST PUSH2 0x20D DUP3 PUSH2 0x1C4 JUMP JUMPDEST DUP2 ADD DUP2 DUP2 LT PUSH8 0xFFFFFFFFFFFFFFFF DUP3 GT OR ISZERO PUSH2 0x22C JUMPI PUSH2 0x22B PUSH2 0x1D5 JUMP JUMPDEST JUMPDEST DUP1 PUSH1 0x40 MSTORE POP POP POP JUMP JUMPDEST PUSH1 0x0 PUSH2 0x23F PUSH2 0x1A6 JUMP JUMPDEST SWAP1 POP PUSH2 0x24B DUP3 DUP3 PUSH2 0x204 JUMP JUMPDEST SWAP2 SWAP1 POP JUMP JUMPDEST PUSH1 0x0 PUSH8 0xFFFFFFFFFFFFFFFF DUP3 GT ISZERO PUSH2 0x26B JUMPI PUSH2 0x26A PUSH2 0x1D5 JUMP JUMPDEST JUMPDEST PUSH2 0x274 DUP3 PUSH2 0x1C4 JUMP JUMPDEST SWAP1 POP PUSH1 0x20 DUP2 ADD SWAP1 POP SWAP2 SWAP1 POP JUMP JUMPDEST PUSH1 0x0 JUMPDEST DUP4 DUP2 LT ISZERO PUSH2 0x29F JUMPI DUP1 DUP3 ADD MLOAD DUP2 DUP5 ADD MSTORE PUSH1 0x20 DUP2 ADD SWAP1 POP PUSH2 0x284 JUMP JUMPDEST PUSH1 0x0 DUP5 DUP5 ADD MSTORE POP POP POP POP JUMP JUMPDEST PUSH1 0x0 PUSH2 0x2BE PUSH2 0x2B9 DUP5 PUSH2 0x250 JUMP JUMPDEST PUSH2 0x235 JUMP JUMPDEST SWAP1 POP DUP3 DUP2 MSTORE PUSH1 0x20 DUP2 ADD DUP5 DUP5 DUP5 ADD GT ISZERO PUSH2 0x2DA JUMPI PUSH2 0x2D9 PUSH2 0x1BF JUMP JUMPDEST JUMPDEST PUSH2 0x2E5 DUP5 DUP3 DUP6 PUSH2 0x281 JUMP JUMPDEST POP SWAP4 SWAP3 POP POP POP JUMP JUMPDEST PUSH1 0x0 DUP3 PUSH1 0x1F DUP4 ADD SLT PUSH2 0x302 JUMPI PUSH2 0x301 PUSH2 0x1BA JUMP JUMPDEST JUMPDEST DUP2 MLOAD PUSH2 0x312 DUP5 DUP3 PUSH1 0x20 DUP7 ADD PUSH2 0x2AB JUMP JUMPDEST SWAP2 POP POP SWAP3 SWAP2 POP POP JUMP JUMPDEST PUSH1 0x0 DUP1 PUSH1 0x40 DUP4 DUP6 SUB SLT ISZERO PUSH2 0x332 JUMPI PUSH2 0x331 PUSH2 0x1B0 JUMP JUMPDEST JUMPDEST PUSH1 0x0 DUP4 ADD MLOAD PUSH8 0xFFFFFFFFFFFFFFFF DUP2 GT ISZERO PUSH2 0x350 JUMPI PUSH2 0x34F PUSH2 0x1B5 JUMP JUMPDEST JUMPDEST PUSH2 0x35C DUP6 DUP3 DUP7 ADD PUSH2 0x2ED JUMP JUMPDEST SWAP3 POP POP PUSH1 0x20 DUP4 ADD MLOAD PUSH8 0xFFFFFFFFFFFFFFFF DUP2 GT ISZERO PUSH2 0x37D JUMPI PUSH2 0x37C PUSH2 0x1B5 JUMP JUMPDEST JUMPDEST PUSH2 0x389 DUP6 DUP3 DUP7 ADD PUSH2 0x2ED JUMP JUMPDEST SWAP2 POP POP SWAP3 POP SWAP3 SWAP1 POP JUMP JUMPDEST PUSH1 0x0 DUP2 MLOAD SWAP1 POP SWAP2 SWAP1 POP JUMP JUMPDEST PUSH32 0x4E487B7100000000000000000000000000000000000000000000000000000000 PUSH1 0x0 MSTORE PUSH1 0x22 PUSH1 0x4 MSTORE PUSH1 0x24 PUSH1 0x0 REVERT JUMPDEST PUSH1 0x0 PUSH1 0x2 DUP3 DIV SWAP1 POP PUSH1 0x1 DUP3 AND DUP1 PUSH2 0x3E5 JUMPI PUSH1 0x7F DUP3 AND SWAP2 POP JUMPDEST PUSH1 0x20 DUP3 LT DUP2 SUB PUSH2 0x3F8 JUMPI PUSH2 0x3F7 PUSH2 0x39E JUMP JUMPDEST JUMPDEST POP SWAP2 SWAP1 POP JUMP JUMPDEST PUSH1 0x0 DUP2 SWAP1 POP DUP2 PUSH1 0x0 MSTORE PUSH1 0x20 PUSH1 0x0 KECCAK256 SWAP1 POP SWAP2 SWAP1 POP JUMP JUMPDEST PUSH1 0x0 PUSH1 0x20 PUSH1 0x1F DUP4 ADD DIV SWAP1 POP SWAP2 SWAP1 POP JUMP JUMPDEST PUSH1 0x0 DUP3 DUP3 SHL SWAP1 POP SWAP3 SWAP2 POP POP JUMP JUMPDEST PUSH1 0x0 PUSH1 0x8 DUP4 MUL PUSH2 0x460 PUSH32 0xFFFFFFFFFFFFFFFFFFFFFFFFFFFFFFFFFFFFFFFFFFFFFFFFFFFFFFFFFFFFFFFF DUP3 PUSH2 0x423 JUMP JUMPDEST PUSH2 0x46A DUP7 DUP4 PUSH2 0x423 JUMP JUMPDEST SWAP6 POP DUP1 NOT DUP5 AND SWAP4 POP DUP1 DUP7 AND DUP5 OR SWAP3 POP POP POP SWAP4 SWAP3 POP POP POP JUMP JUMPDEST PUSH1 0x0 DUP2 SWAP1 POP SWAP2 SWAP1 POP JUMP JUMPDEST PUSH1 0x0 DUP2 SWAP1 POP SWAP2 SWAP1 POP JUMP JUMPDEST PUSH1 0x0 PUSH2 0x4B1 PUSH2 0x4AC PUSH2 0x4A7 DUP5 PUSH2 0x482 JUMP JUMPDEST PUSH2 0x48C JUMP JUMPDEST PUSH2 0x482 JUMP JUMPDEST SWAP1 POP SWAP2 SWAP1 POP JUMP JUMPDEST PUSH1 0x0 DUP2 SWAP1 POP SWAP2 SWAP1 POP JUMP JUMPDEST PUSH2 0x4CB DUP4 PUSH2 0x496 JUMP JUMPDEST PUSH2 0x4DF PUSH2 0x4D7 DUP3 PUSH2 0x4B8 JUMP JUMPDEST DUP5 DUP5 SLOAD PUSH2 0x430 JUMP JUMPDEST DUP3 SSTORE POP POP POP POP JUMP JUMPDEST PUSH1 0x0 SWAP1 JUMP JUMPDEST PUSH2 0x4F4 PUSH2 0x4E7 JUMP JUMPDEST PUSH2 0x4FF DUP2 DUP5 DUP5 PUSH2 0x4C2 JUMP JUMPDEST POP POP POP JUMP JUMPDEST JUMPDEST DUP2 DUP2 LT ISZERO PUSH2 0x523 JUMPI PUSH2 0x518 PUSH1 0x0 DUP3 PUSH2 0x4EC JUMP JUMPDEST PUSH1 0x1 DUP2 ADD SWAP1 POP PUSH2 0x505 JUMP JUMPDEST POP POP JUMP JUMPDEST PUSH1 0x1F DUP3 GT ISZERO PUSH2 0x568 JUMPI PUSH2 0x539 DUP2 PUSH2 0x3FE JUMP JUMPDEST PUSH2 0x542 DUP5 PUSH2 0x413 JUMP JUMPDEST DUP2 ADD PUSH1 0x20 DUP6 LT ISZERO PUSH2 0x551 JUMPI DUP2 SWAP1 POP JUMPDEST PUSH2 0x565 PUSH2 0x55D DUP6 PUSH2 0x413 JUMP JUMPDEST DUP4 ADD DUP3 PUSH2 0x504 JUMP JUMPDEST POP POP JUMPDEST POP POP POP JUMP JUMPDEST PUSH1 0x0 DUP3 DUP3 SHR SWAP1 POP SWAP3 SWAP2 POP POP JUMP JUMPDEST PUSH1 0x0 PUSH2 0x58B PUSH1 0x0 NOT DUP5 PUSH1 0x8 MUL PUSH2 0x56D JUMP JUMPDEST NOT DUP1 DUP4 AND SWAP2 POP POP SWAP3 SWAP2 POP POP JUMP JUMPDEST PUSH1 0x0 PUSH2 0x5A4 DUP4 DUP4 PUSH2 0x57A JUMP JUMPDEST SWAP2 POP DUP3 PUSH1 0x2 MUL DUP3 OR SWAP1 POP SWAP3 SWAP2 POP POP JUMP JUMPDEST PUSH2 0x5BD DUP3 PUSH2 0x393 JUMP JUMPDEST PUSH8 0xFFFFFFFFFFFFFFFF DUP2 GT ISZERO PUSH2 0x5D6 JUMPI PUSH2 0x5D5 PUSH2 0x1D5 JUMP JUMPDEST JUMPDEST PUSH2 0x5E0 DUP3 SLOAD PUSH2 0x3CD JUMP JUMPDEST PUSH2 0x5EB DUP3 DUP3 DUP6 PUSH2 0x527 JUMP JUMPDEST PUSH1 0x0 PUSH1 0x20 SWAP1 POP PUSH1 0x1F DUP4 GT PUSH1 0x1 DUP2 EQ PUSH2 0x61E JUMPI PUSH1 0x0 DUP5 ISZERO PUSH2 0x60C JUMPI DUP3 DUP8 ADD MLOAD SWAP1 POP JUMPDEST PUSH2 0x616 DUP6 DUP3 PUSH2 0x598 JUMP JUMPDEST DUP7 SSTORE POP PUSH2 0x67E JUMP JUMPDEST PUSH1 0x1F NOT DUP5 AND PUSH2 0x62C DUP7 PUSH2 0x3FE JUMP JUMPDEST PUSH1 0x0 JUMPDEST DUP3 DUP2 LT ISZERO PUSH2 0x654 JUMPI DUP5 DUP10 ADD MLOAD DUP3 SSTORE PUSH1 0x1 DUP3 ADD SWAP2 POP PUSH1 0x20 DUP6 ADD SWAP5 POP PUSH1 0x20 DUP2 ADD SWAP1 POP PUSH2 0x62F JUMP JUMPDEST DUP7 DUP4 LT ISZERO PUSH2 0x671 JUMPI DUP5 DUP10 ADD MLOAD PUSH2 0x66D PUSH1 0x1F DUP10 AND DUP3 PUSH2 0x57A JUMP JUMPDEST DUP4 SSTORE POP JUMPDEST PUSH1 0x1 PUSH1 0x2 DUP9 MUL ADD DUP9 SSTORE POP POP POP JUMPDEST POP POP POP POP POP POP JUMP JUMPDEST PUSH1 0x0 PUSH20 0xFFFFFFFFFFFFFFFFFFFFFFFFFFFFFFFFFFFFFFFF DUP3 AND SWAP1 POP SWAP2 SWAP1 POP JUMP JUMPDEST PUSH1 0x0 PUSH2 0x6B1 DUP3 PUSH2 0x686 JUMP JUMPDEST SWAP1 POP SWAP2 SWAP1 POP JUMP JUMPDEST PUSH2 0x6C1 DUP2 PUSH2 0x6A6 JUMP JUMPDEST DUP3 MSTORE POP POP JUMP JUMPDEST PUSH1 0x0 PUSH1 0x20 DUP3 ADD SWAP1 POP PUSH2 0x6DC PUSH1 0x0 DUP4 ADD DUP5 PUSH2 0x6B8 JUMP JUMPDEST SWAP3 SWAP2 POP POP JUMP JUMPDEST PUSH2 0x1294 DUP1 PUSH2 0x6F1 PUSH1 0x0 CODECOPY PUSH1 0x0 RETURN INVALID PUSH1 0x80 PUSH1 0x40 MSTORE CALLVALUE DUP1 ISZERO PUSH2 0x10 JUMPI PUSH1 0x0 DUP1 REVERT JUMPDEST POP PUSH1 0x4 CALLDATASIZE LT PUSH2 0xEA JUMPI PUSH1 0x0 CALLDATALOAD PUSH1 0xE0 SHR DUP1 PUSH4 0x715018A6 GT PUSH2 0x8C JUMPI DUP1 PUSH4 0xA0712D68 GT PUSH2 0x66 JUMPI DUP1 PUSH4 0xA0712D68 EQ PUSH2 0x23B JUMPI DUP1 PUSH4 0xA9059CBB EQ PUSH2 0x257 JUMPI DUP1 PUSH4 0xDD62ED3E EQ PUSH2 0x287 JUMPI DUP1 PUSH4 0xF2FDE38B EQ PUSH2 0x2B7 JUMPI PUSH2 0xEA JUMP JUMPDEST DUP1 PUSH4 0x715018A6 EQ PUSH2 0x1F5 JUMPI DUP1 PUSH4 0x8DA5CB5B EQ PUSH2 0x1FF JUMPI DUP1 PUSH4 0x95D89B41 EQ PUSH2 0x21D JUMPI PUSH2 0xEA JUMP JUMPDEST DUP1 PUSH4 0x23B872DD GT PUSH2 0xC8 JUMPI DUP1 PUSH4 0x23B872DD EQ PUSH2 0x15B JUMPI DUP1 PUSH4 0x313CE567 EQ PUSH2 0x18B JUMPI DUP1 PUSH4 0x42966C68 EQ PUSH2 0x1A9 JUMPI DUP1 PUSH4 0x70A08231 EQ PUSH2 0x1C5 JUMPI PUSH2 0xEA JUMP JUMPDEST DUP1 PUSH4 0x6FDDE03 EQ PUSH2 0xEF JUMPI DUP1 PUSH4 0x95EA7B3 EQ PUSH2 0x10D JUMPI DUP1 PUSH4 0x18160DDD EQ PUSH2 0x13D JUMPI JUMPDEST PUSH1 0x0 DUP1 REVERT JUMPDEST PUSH2 0xF7 PUSH2 0x2D3 JUMP JUMPDEST PUSH1 0x40 MLOAD PUSH2 0x104 SWAP2 SWAP1 PUSH2 0xEBB JUMP JUMPDEST PUSH1 0x40 MLOAD DUP1 SWAP2 SUB SWAP1 RETURN JUMPDEST PUSH2 0x127 PUSH1 0x4 DUP1 CALLDATASIZE SUB DUP2 ADD SWAP1 PUSH2 0x122 SWAP2 SWAP1 PUSH2 0xF76 JUMP JUMPDEST PUSH2 0x365 JUMP JUMPDEST PUSH1 0x40 MLOAD PUSH2 0x134 SWAP2 SWAP1 PUSH2 0xFD1 JUMP JUMPDEST PUSH1 0x40 MLOAD DUP1 SWAP2 SUB SWAP1 RETURN JUMPDEST PUSH2 0x145 PUSH2 0x388 JUMP JUMPDEST PUSH1 0x40 MLOAD PUSH2 0x152 SWAP2 SWAP1 PUSH2 0xFFB JUMP JUMPDEST PUSH1 0x40 MLOAD DUP1 SWAP2 SUB SWAP1 RETURN JUMPDEST PUSH2 0x175 PUSH1 0x4 DUP1 CALLDATASIZE SUB DUP2 ADD SWAP1 PUSH2 0x170 SWAP2 SWAP1 PUSH2 0x1016 JUMP JUMPDEST PUSH2 0x392 JUMP JUMPDEST PUSH1 0x40 MLOAD PUSH2 0x182 SWAP2 SWAP1 PUSH2 0xFD1 JUMP JUMPDEST PUSH1 0x40 MLOAD DUP1 SWAP2 SUB SWAP1 RETURN JUMPDEST PUSH2 0x193 PUSH2 0x3C1 JUMP JUMPDEST PUSH1 0x40 MLOAD PUSH2 0x1A0 SWAP2 SWAP1 PUSH2 0x1085 JUMP JUMPDEST PUSH1 0x40 MLOAD DUP1 SWAP2 SUB SWAP1 RETURN JUMPDEST PUSH2 0x1C3 PUSH1 0x4 DUP1 CALLDATASIZE SUB DUP2 ADD SWAP1 PUSH2 0x1BE SWAP2 SWAP1 PUSH2 0x10A0 JUMP JUMPDEST PUSH2 0x3CA JUMP JUMPDEST STOP JUMPDEST PUSH2 0x1DF PUSH1 0x4 DUP1 CALLDATASIZE SUB DUP2 ADD SWAP1 PUSH2 0x1DA SWAP2 SWAP1 PUSH2 0x10CD JUMP JUMPDEST PUSH2 0x3DF JUMP JUMPDEST PUSH1 0x40 MLOAD PUSH2 0x1EC SWAP2 SWAP1 PUSH2 0xFFB JUMP JUMPDEST PUSH1 0x40 MLOAD DUP1 SWAP2 SUB SWAP1 RETURN JUMPDEST PUSH2 0x1FD PUSH2 0x427 JUMP JUMPDEST STOP JUMPDEST PUSH2 0x207 PUSH2 0x43B JUMP JUMPDEST PUSH1 0x40 MLOAD PUSH2 0x214 SWAP2 SWAP1 PUSH2 0x1109 JUMP JUMPDEST PUSH1 0x40 MLOAD DUP1 SWAP2 SUB SWAP1 RETURN JUMPDEST PUSH2 0x225 PUSH2 0x465 JUMP JUMPDEST PUSH1 0x40 MLOAD PUSH2 0x232 SWAP2 SWAP1 PUSH2 0xEBB JUMP JUMPDEST PUSH1 0x40 MLOAD DUP1 SWAP2 SUB SWAP1 RETURN JUMPDEST PUSH2 0x255 PUSH1 0x4 DUP1 CALLDATASIZE SUB DUP2 ADD SWAP1 PUSH2 0x250 SWAP2 SWAP1 PUSH2 0x10A0 JUMP JUMPDEST PUSH2 0x4F7 JUMP JUMPDEST STOP JUMPDEST PUSH2 0x271 PUSH1 0x4 DUP1 CALLDATASIZE SUB DUP2 ADD SWAP1 PUSH2 0x26C SWAP2 SWAP1 PUSH2 0xF76 JUMP JUMPDEST PUSH2 0x50C JUMP JUMPDEST PUSH1 0x40 MLOAD PUSH2 0x27E SWAP2 SWAP1 PUSH2 0xFD1 JUMP JUMPDEST PUSH1 0x40 MLOAD DUP1 SWAP2 SUB SWAP1 RETURN JUMPDEST PUSH2 0x2A1 PUSH1 0x4 DUP1 CALLDATASIZE SUB DUP2 ADD SWAP1 PUSH2 0x29C SWAP2 SWAP1 PUSH2 0x1124 JUMP JUMPDEST PUSH2 0x52F JUMP JUMPDEST PUSH1 0x40 MLOAD PUSH2 0x2AE SWAP2 SWAP1 PUSH2 0xFFB JUMP JUMPDEST PUSH1 0x40 MLOAD DUP1 SWAP2 SUB SWAP1 RETURN JUMPDEST PUSH2 0x2D1 PUSH1 0x4 DUP1 CALLDATASIZE SUB DUP2 ADD SWAP1 PUSH2 0x2CC SWAP2 SWAP1 PUSH2 0x10CD JUMP JUMPDEST PUSH2 0x5B6 JUMP JUMPDEST STOP JUMPDEST PUSH1 0x60 PUSH1 0x3 DUP1 SLOAD PUSH2 0x2E2 SWAP1 PUSH2 0x1193 JUMP JUMPDEST DUP1 PUSH1 0x1F ADD PUSH1 0x20 DUP1 SWAP2 DIV MUL PUSH1 0x20 ADD PUSH1 0x40 MLOAD SWAP1 DUP2 ADD PUSH1 0x40 MSTORE DUP1 SWAP3 SWAP2 SWAP1 DUP2 DUP2 MSTORE PUSH1 0x20 ADD DUP3 DUP1 SLOAD PUSH2 0x30E SWAP1 PUSH2 0x1193 JUMP JUMPDEST DUP1 ISZERO PUSH2 0x35B JUMPI DUP1 PUSH1 0x1F LT PUSH2 0x330 JUMPI PUSH2 0x100 DUP1 DUP4 SLOAD DIV MUL DUP4 MSTORE SWAP2 PUSH1 0x20 ADD SWAP2 PUSH2 0x35B JUMP JUMPDEST DUP3 ADD SWAP2 SWAP1 PUSH1 0x0 MSTORE PUSH1 0x20 PUSH1 0x0 KECCAK256 SWAP1 JUMPDEST DUP2 SLOAD DUP2 MSTORE SWAP1 PUSH1 0x1 ADD SWAP1 PUSH1 0x20 ADD DUP1 DUP4 GT PUSH2 0x33E JUMPI DUP3 SWAP1 SUB PUSH1 0x1F AND DUP3 ADD SWAP2 JUMPDEST POP POP POP POP POP SWAP1 POP SWAP1 JUMP JUMPDEST PUSH1 0x0 DUP1 PUSH2 0x370 PUSH2 0x63C JUMP JUMPDEST SWAP1 POP PUSH2 0x37D DUP2 DUP6 DUP6 PUSH2 0x644 JUMP JUMPDEST PUSH1 0x1 SWAP2 POP POP SWAP3 SWAP2 POP POP JUMP JUMPDEST PUSH1 0x0 PUSH1 0x2 SLOAD SWAP1 POP SWAP1 JUMP JUMPDEST PUSH1 0x0 DUP1 PUSH2 0x39D PUSH2 0x63C JUMP JUMPDEST SWAP1 POP PUSH2 0x3AA DUP6 DUP3 DUP6 PUSH2 0x656 JUMP JUMPDEST PUSH2 0x3B5 DUP6 DUP6 DUP6 PUSH2 0x6EA JUMP JUMPDEST PUSH1 0x1 SWAP2 POP POP SWAP4 SWAP3 POP POP POP JUMP JUMPDEST PUSH1 0x0 PUSH1 0x12 SWAP1 POP SWAP1 JUMP JUMPDEST PUSH2 0x3D2 PUSH2 0x7DE JUMP JUMPDEST PUSH2 0x3DC CALLER DUP3 PUSH2 0x865 JUMP JUMPDEST POP JUMP JUMPDEST PUSH1 0x0 DUP1 PUSH1 0x0 DUP4 PUSH20 0xFFFFFFFFFFFFFFFFFFFFFFFFFFFFFFFFFFFFFFFF AND PUSH20 0xFFFFFFFFFFFFFFFFFFFFFFFFFFFFFFFFFFFFFFFF AND DUP2 MSTORE PUSH1 0x20 ADD SWAP1 DUP2 MSTORE PUSH1 0x20 ADD PUSH1 0x0 KECCAK256 SLOAD SWAP1 POP SWAP2 SWAP1 POP JUMP JUMPDEST PUSH2 0x42F PUSH2 0x7DE JUMP JUMPDEST PUSH2 0x439 PUSH1 0x0 PUSH2 0x8E7 JUMP JUMPDEST JUMP JUMPDEST PUSH1 0x0 PUSH1 0x5 PUSH1 0x0 SWAP1 SLOAD SWAP1 PUSH2 0x100 EXP SWAP1 DIV PUSH20 0xFFFFFFFFFFFFFFFFFFFFFFFFFFFFFFFFFFFFFFFF AND SWAP1 POP SWAP1 JUMP JUMPDEST PUSH1 0x60 PUSH1 0x4 DUP1 SLOAD PUSH2 0x474 SWAP1 PUSH2 0x1193 JUMP JUMPDEST DUP1 PUSH1 0x1F ADD PUSH1 0x20 DUP1 SWAP2 DIV MUL PUSH1 0x20 ADD PUSH1 0x40 MLOAD SWAP1 DUP2 ADD PUSH1 0x40 MSTORE DUP1 SWAP3 SWAP2 SWAP1 DUP2 DUP2 MSTORE PUSH1 0x20 ADD DUP3 DUP1 SLOAD PUSH2 0x4A0 SWAP1 PUSH2 0x1193 JUMP JUMPDEST DUP1 ISZERO PUSH2 0x4ED JUMPI DUP1 PUSH1 0x1F LT PUSH2 0x4C2 JUMPI PUSH2 0x100 DUP1 DUP4 SLOAD DIV MUL DUP4 MSTORE SWAP2 PUSH1 0x20 ADD SWAP2 PUSH2 0x4ED JUMP JUMPDEST DUP3 ADD SWAP2 SWAP1 PUSH1 0x0 MSTORE PUSH1 0x20 PUSH1 0x0 KECCAK256 SWAP1 JUMPDEST DUP2 SLOAD DUP2 MSTORE SWAP1 PUSH1 0x1 ADD SWAP1 PUSH1 0x20 ADD DUP1 DUP4 GT PUSH2 0x4D0 JUMPI DUP3 SWAP1 SUB PUSH1 0x1F AND DUP3 ADD SWAP2 JUMPDEST POP POP POP POP POP SWAP1 POP SWAP1 JUMP JUMPDEST PUSH2 0x4FF PUSH2 0x7DE JUMP JUMPDEST PUSH2 0x509 CALLER DUP3 PUSH2 0x9AD JUMP JUMPDEST POP JUMP JUMPDEST PUSH1 0x0 DUP1 PUSH2 0x517 PUSH2 0x63C JUMP JUMPDEST SWAP1 POP PUSH2 0x524 DUP2 DUP6 DUP6 PUSH2 0x6EA JUMP JUMPDEST PUSH1 0x1 SWAP2 POP POP SWAP3 SWAP2 POP POP JUMP JUMPDEST PUSH1 0x0 PUSH1 0x1 PUSH1 0x0 DUP5 PUSH20 0xFFFFFFFFFFFFFFFFFFFFFFFFFFFFFFFFFFFFFFFF AND PUSH20 0xFFFFFFFFFFFFFFFFFFFFFFFFFFFFFFFFFFFFFFFF AND DUP2 MSTORE PUSH1 0x20 ADD SWAP1 DUP2 MSTORE PUSH1 0x20 ADD PUSH1 0x0 KECCAK256 PUSH1 0x0 DUP4 PUSH20 0xFFFFFFFFFFFFFFFFFFFFFFFFFFFFFFFFFFFFFFFF AND PUSH20 0xFFFFFFFFFFFFFFFFFFFFFFFFFFFFFFFFFFFFFFFF AND DUP2 MSTORE PUSH1 0x20 ADD SWAP1 DUP2 MSTORE PUSH1 0x20 ADD PUSH1 0x0 KECCAK256 SLOAD SWAP1 POP SWAP3 SWAP2 POP POP JUMP JUMPDEST PUSH2 0x5BE PUSH2 0x7DE JUMP JUMPDEST PUSH1 0x0 PUSH20 0xFFFFFFFFFFFFFFFFFFFFFFFFFFFFFFFFFFFFFFFF AND DUP2 PUSH20 0xFFFFFFFFFFFFFFFFFFFFFFFFFFFFFFFFFFFFFFFF AND SUB PUSH2 0x630 JUMPI PUSH1 0x0 PUSH1 0x40 MLOAD PUSH32 0x1E4FBDF700000000000000000000000000000000000000000000000000000000 DUP2 MSTORE PUSH1 0x4 ADD PUSH2 0x627 SWAP2 SWAP1 PUSH2 0x1109 JUMP JUMPDEST PUSH1 0x40 MLOAD DUP1 SWAP2 SUB SWAP1 REVERT JUMPDEST PUSH2 0x639 DUP2 PUSH2 0x8E7 JUMP JUMPDEST POP JUMP JUMPDEST PUSH1 0x0 CALLER SWAP1 POP SWAP1 JUMP JUMPDEST PUSH2 0x651 DUP4 DUP4 DUP4 PUSH1 0x1 PUSH2 0xA2F JUMP JUMPDEST POP POP POP JUMP JUMPDEST PUSH1 0x0 PUSH2 0x662 DUP5 DUP5 PUSH2 0x52F JUMP JUMPDEST SWAP1 POP PUSH32 0xFFFFFFFFFFFFFFFFFFFFFFFFFFFFFFFFFFFFFFFFFFFFFFFFFFFFFFFFFFFFFFFF DUP2 EQ PUSH2 0x6E4 JUMPI DUP2 DUP2 LT ISZERO PUSH2 0x6D4 JUMPI DUP3 DUP2 DUP4 PUSH1 0x40 MLOAD PUSH32 0xFB8F41B200000000000000000000000000000000000000000000000000000000 DUP2 MSTORE PUSH1 0x4 ADD PUSH2 0x6CB SWAP4 SWAP3 SWAP2 SWAP1 PUSH2 0x11C4 JUMP JUMPDEST PUSH1 0x40 MLOAD DUP1 SWAP2 SUB SWAP1 REVERT JUMPDEST PUSH2 0x6E3 DUP5 DUP5 DUP5 DUP5 SUB PUSH1 0x0 PUSH2 0xA2F JUMP JUMPDEST JUMPDEST POP POP POP POP JUMP JUMPDEST PUSH1 0x0 PUSH20 0xFFFFFFFFFFFFFFFFFFFFFFFFFFFFFFFFFFFFFFFF AND DUP4 PUSH20 0xFFFFFFFFFFFFFFFFFFFFFFFFFFFFFFFFFFFFFFFF AND SUB PUSH2 0x75C JUMPI PUSH1 0x0 PUSH1 0x40 MLOAD PUSH32 0x96C6FD1E00000000000000000000000000000000000000000000000000000000 DUP2 MSTORE PUSH1 0x4 ADD PUSH2 0x753 SWAP2 SWAP1 PUSH2 0x1109 JUMP JUMPDEST PUSH1 0x40 MLOAD DUP1 SWAP2 SUB SWAP1 REVERT JUMPDEST PUSH1 0x0 PUSH20 0xFFFFFFFFFFFFFFFFFFFFFFFFFFFFFFFFFFFFFFFF AND DUP3 PUSH20 0xFFFFFFFFFFFFFFFFFFFFFFFFFFFFFFFFFFFFFFFF AND SUB PUSH2 0x7CE JUMPI PUSH1 0x0 PUSH1 0x40 MLOAD PUSH32 0xEC442F0500000000000000000000000000000000000000000000000000000000 DUP2 MSTORE PUSH1 0x4 ADD PUSH2 0x7C5 SWAP2 SWAP1 PUSH2 0x1109 JUMP JUMPDEST PUSH1 0x40 MLOAD DUP1 SWAP2 SUB SWAP1 REVERT JUMPDEST PUSH2 0x7D9 DUP4 DUP4 DUP4 PUSH2 0xC06 JUMP JUMPDEST POP POP POP JUMP JUMPDEST PUSH2 0x7E6 PUSH2 0x63C JUMP JUMPDEST PUSH20 0xFFFFFFFFFFFFFFFFFFFFFFFFFFFFFFFFFFFFFFFF AND PUSH2 0x804 PUSH2 0x43B JUMP JUMPDEST PUSH20 0xFFFFFFFFFFFFFFFFFFFFFFFFFFFFFFFFFFFFFFFF AND EQ PUSH2 0x863 JUMPI PUSH2 0x827 PUSH2 0x63C JUMP JUMPDEST PUSH1 0x40 MLOAD PUSH32 0x118CDAA700000000000000000000000000000000000000000000000000000000 DUP2 MSTORE PUSH1 0x4 ADD PUSH2 0x85A SWAP2 SWAP1 PUSH2 0x1109 JUMP JUMPDEST PUSH1 0x40 MLOAD DUP1 SWAP2 SUB SWAP1 REVERT JUMPDEST JUMP JUMPDEST PUSH1 0x0 PUSH20 0xFFFFFFFFFFFFFFFFFFFFFFFFFFFFFFFFFFFFFFFF AND DUP3 PUSH20 0xFFFFFFFFFFFFFFFFFFFFFFFFFFFFFFFFFFFFFFFF AND SUB PUSH2 0x8D7 JUMPI PUSH1 0x0 PUSH1 0x40 MLOAD PUSH32 0x96C6FD1E00000000000000000000000000000000000000000000000000000000 DUP2 MSTORE PUSH1 0x4 ADD PUSH2 0x8CE SWAP2 SWAP1 PUSH2 0x1109 JUMP JUMPDEST PUSH1 0x40 MLOAD DUP1 SWAP2 SUB SWAP1 REVERT JUMPDEST PUSH2 0x8E3 DUP3 PUSH1 0x0 DUP4 PUSH2 0xC06 JUMP JUMPDEST POP POP JUMP JUMPDEST PUSH1 0x0 PUSH1 0x5 PUSH1 0x0 SWAP1 SLOAD SWAP1 PUSH2 0x100 EXP SWAP1 DIV PUSH20 0xFFFFFFFFFFFFFFFFFFFFFFFFFFFFFFFFFFFFFFFF AND SWAP1 POP DUP2 PUSH1 0x5 PUSH1 0x0 PUSH2 0x100 EXP DUP2 SLOAD DUP2 PUSH20 0xFFFFFFFFFFFFFFFFFFFFFFFFFFFFFFFFFFFFFFFF MUL NOT AND SWAP1 DUP4 PUSH20 0xFFFFFFFFFFFFFFFFFFFFFFFFFFFFFFFFFFFFFFFF AND MUL OR SWAP1 SSTORE POP DUP2 PUSH20 0xFFFFFFFFFFFFFFFFFFFFFFFFFFFFFFFFFFFFFFFF AND DUP2 PUSH20 0xFFFFFFFFFFFFFFFFFFFFFFFFFFFFFFFFFFFFFFFF AND PUSH32 0x8BE0079C531659141344CD1FD0A4F28419497F9722A3DAAFE3B4186F6B6457E0 PUSH1 0x40 MLOAD PUSH1 0x40 MLOAD DUP1 SWAP2 SUB SWAP1 LOG3 POP POP JUMP JUMPDEST PUSH1 0x0 PUSH20 0xFFFFFFFFFFFFFFFFFFFFFFFFFFFFFFFFFFFFFFFF AND DUP3 PUSH20 0xFFFFFFFFFFFFFFFFFFFFFFFFFFFFFFFFFFFFFFFF AND SUB PUSH2 0xA1F JUMPI PUSH1 0x0 PUSH1 0x40 MLOAD PUSH32 0xEC442F0500000000000000000000000000000000000000000000000000000000 DUP2 MSTORE PUSH1 0x4 ADD PUSH2 0xA16 SWAP2 SWAP1 PUSH2 0x1109 JUMP JUMPDEST PUSH1 0x40 MLOAD DUP1 SWAP2 SUB SWAP1 REVERT JUMPDEST PUSH2 0xA2B PUSH1 0x0 DUP4 DUP4 PUSH2 0xC06 JUMP JUMPDEST POP POP JUMP JUMPDEST PUSH1 0x0 PUSH20 0xFFFFFFFFFFFFFFFFFFFFFFFFFFFFFFFFFFFFFFFF AND DUP5 PUSH20 0xFFFFFFFFFFFFFFFFFFFFFFFFFFFFFFFFFFFFFFFF AND SUB PUSH2 0xAA1 JUMPI PUSH1 0x0 PUSH1 0x40 MLOAD PUSH32 0xE602DF0500000000000000000000000000000000000000000000000000000000 DUP2 MSTORE PUSH1 0x4 ADD PUSH2 0xA98 SWAP2 SWAP1 PUSH2 0x1109 JUMP JUMPDEST PUSH1 0x40 MLOAD DUP1 SWAP2 SUB SWAP1 REVERT JUMPDEST PUSH1 0x0 PUSH20 0xFFFFFFFFFFFFFFFFFFFFFFFFFFFFFFFFFFFFFFFF AND DUP4 PUSH20 0xFFFFFFFFFFFFFFFFFFFFFFFFFFFFFFFFFFFFFFFF AND SUB PUSH2 0xB13 JUMPI PUSH1 0x0 PUSH1 0x40 MLOAD PUSH32 0x94280D6200000000000000000000000000000000000000000000000000000000 DUP2 MSTORE PUSH1 0x4 ADD PUSH2 0xB0A SWAP2 SWAP1 PUSH2 0x1109 JUMP JUMPDEST PUSH1 0x40 MLOAD DUP1 SWAP2 SUB SWAP1 REVERT JUMPDEST DUP2 PUSH1 0x1 PUSH1 0x0 DUP7 PUSH20 0xFFFFFFFFFFFFFFFFFFFFFFFFFFFFFFFFFFFFFFFF AND PUSH20 0xFFFFFFFFFFFFFFFFFFFFFFFFFFFFFFFFFFFFFFFF AND DUP2 MSTORE PUSH1 0x20 ADD SWAP1 DUP2 MSTORE PUSH1 0x20 ADD PUSH1 0x0 KECCAK256 PUSH1 0x0 DUP6 PUSH20 0xFFFFFFFFFFFFFFFFFFFFFFFFFFFFFFFFFFFFFFFF AND PUSH20 0xFFFFFFFFFFFFFFFFFFFFFFFFFFFFFFFFFFFFFFFF AND DUP2 MSTORE PUSH1 0x20 ADD SWAP1 DUP2 MSTORE PUSH1 0x20 ADD PUSH1 0x0 KECCAK256 DUP2 SWAP1 SSTORE POP DUP1 ISZERO PUSH2 0xC00 JUMPI DUP3 PUSH20 0xFFFFFFFFFFFFFFFFFFFFFFFFFFFFFFFFFFFFFFFF AND DUP5 PUSH20 0xFFFFFFFFFFFFFFFFFFFFFFFFFFFFFFFFFFFFFFFF AND PUSH32 0x8C5BE1E5EBEC7D5BD14F71427D1E84F3DD0314C0F7B2291E5B200AC8C7C3B925 DUP5 PUSH1 0x40 MLOAD PUSH2 0xBF7 SWAP2 SWAP1 PUSH2 0xFFB JUMP JUMPDEST PUSH1 0x40 MLOAD DUP1 SWAP2 SUB SWAP1 LOG3 JUMPDEST POP POP POP POP JUMP JUMPDEST PUSH1 0x0 PUSH20 0xFFFFFFFFFFFFFFFFFFFFFFFFFFFFFFFFFFFFFFFF AND DUP4 PUSH20 0xFFFFFFFFFFFFFFFFFFFFFFFFFFFFFFFFFFFFFFFF AND SUB PUSH2 0xC58 JUMPI DUP1 PUSH1 0x2 PUSH1 0x0 DUP3 DUP3 SLOAD PUSH2 0xC4C SWAP2 SWAP1 PUSH2 0x122A JUMP JUMPDEST SWAP3 POP POP DUP2 SWAP1 SSTORE POP PUSH2 0xD2B JUMP JUMPDEST PUSH1 0x0 DUP1 PUSH1 0x0 DUP6 PUSH20 0xFFFFFFFFFFFFFFFFFFFFFFFFFFFFFFFFFFFFFFFF AND PUSH20 0xFFFFFFFFFFFFFFFFFFFFFFFFFFFFFFFFFFFFFFFF AND DUP2 MSTORE PUSH1 0x20 ADD SWAP1 DUP2 MSTORE PUSH1 0x20 ADD PUSH1 0x0 KECCAK256 SLOAD SWAP1 POP DUP2 DUP2 LT ISZERO PUSH2 0xCE4 JUMPI DUP4 DUP2 DUP4 PUSH1 0x40 MLOAD PUSH32 0xE450D38C00000000000000000000000000000000000000000000000000000000 DUP2 MSTORE PUSH1 0x4 ADD PUSH2 0xCDB SWAP4 SWAP3 SWAP2 SWAP1 PUSH2 0x11C4 JUMP JUMPDEST PUSH1 0x40 MLOAD DUP1 SWAP2 SUB SWAP1 REVERT JUMPDEST DUP2 DUP2 SUB PUSH1 0x0 DUP1 DUP7 PUSH20 0xFFFFFFFFFFFFFFFFFFFFFFFFFFFFFFFFFFFFFFFF AND PUSH20 0xFFFFFFFFFFFFFFFFFFFFFFFFFFFFFFFFFFFFFFFF AND DUP2 MSTORE PUSH1 0x20 ADD SWAP1 DUP2 MSTORE PUSH1 0x20 ADD PUSH1 0x0 KECCAK256 DUP2 SWAP1 SSTORE POP POP JUMPDEST PUSH1 0x0 PUSH20 0xFFFFFFFFFFFFFFFFFFFFFFFFFFFFFFFFFFFFFFFF AND DUP3 PUSH20 0xFFFFFFFFFFFFFFFFFFFFFFFFFFFFFFFFFFFFFFFF AND SUB PUSH2 0xD74 JUMPI DUP1 PUSH1 0x2 PUSH1 0x0 DUP3 DUP3 SLOAD SUB SWAP3 POP POP DUP2 SWAP1 SSTORE POP PUSH2 0xDC1 JUMP JUMPDEST DUP1 PUSH1 0x0 DUP1 DUP5 PUSH20 0xFFFFFFFFFFFFFFFFFFFFFFFFFFFFFFFFFFFFFFFF AND PUSH20 0xFFFFFFFFFFFFFFFFFFFFFFFFFFFFFFFFFFFFFFFF AND DUP2 MSTORE PUSH1 0x20 ADD SWAP1 DUP2 MSTORE PUSH1 0x20 ADD PUSH1 0x0 KECCAK256 PUSH1 0x0 DUP3 DUP3 SLOAD ADD SWAP3 POP POP DUP2 SWAP1 SSTORE POP JUMPDEST DUP2 PUSH20 0xFFFFFFFFFFFFFFFFFFFFFFFFFFFFFFFFFFFFFFFF AND DUP4 PUSH20 0xFFFFFFFFFFFFFFFFFFFFFFFFFFFFFFFFFFFFFFFF AND PUSH32 0xDDF252AD1BE2C89B69C2B068FC378DAA952BA7F163C4A11628F55A4DF523B3EF DUP4 PUSH1 0x40 MLOAD PUSH2 0xE1E SWAP2 SWAP1 PUSH2 0xFFB JUMP JUMPDEST PUSH1 0x40 MLOAD DUP1 SWAP2 SUB SWAP1 LOG3 POP POP POP JUMP JUMPDEST PUSH1 0x0 DUP2 MLOAD SWAP1 POP SWAP2 SWAP1 POP JUMP JUMPDEST PUSH1 0x0 DUP3 DUP3 MSTORE PUSH1 0x20 DUP3 ADD SWAP1 POP SWAP3 SWAP2 POP POP JUMP JUMPDEST PUSH1 0x0 JUMPDEST DUP4 DUP2 LT ISZERO PUSH2 0xE65 JUMPI DUP1 DUP3 ADD MLOAD DUP2 DUP5 ADD MSTORE PUSH1 0x20 DUP2 ADD SWAP1 POP PUSH2 0xE4A JUMP JUMPDEST PUSH1 0x0 DUP5 DUP5 ADD MSTORE POP POP POP POP JUMP JUMPDEST PUSH1 0x0 PUSH1 0x1F NOT PUSH1 0x1F DUP4 ADD AND SWAP1 POP SWAP2 SWAP1 POP JUMP JUMPDEST PUSH1 0x0 PUSH2 0xE8D DUP3 PUSH2 0xE2B JUMP JUMPDEST PUSH2 0xE97 DUP2 DUP6 PUSH2 0xE36 JUMP JUMPDEST SWAP4 POP PUSH2 0xEA7 DUP2 DUP6 PUSH1 0x20 DUP7 ADD PUSH2 0xE47 JUMP JUMPDEST PUSH2 0xEB0 DUP2 PUSH2 0xE71 JUMP JUMPDEST DUP5 ADD SWAP2 POP POP SWAP3 SWAP2 POP POP JUMP JUMPDEST PUSH1 0x0 PUSH1 0x20 DUP3 ADD SWAP1 POP DUP2 DUP2 SUB PUSH1 0x0 DUP4 ADD MSTORE PUSH2 0xED5 DUP2 DUP5 PUSH2 0xE82 JUMP JUMPDEST SWAP1 POP SWAP3 SWAP2 POP POP JUMP JUMPDEST PUSH1 0x0 DUP1 REVERT JUMPDEST PUSH1 0x0 PUSH20 0xFFFFFFFFFFFFFFFFFFFFFFFFFFFFFFFFFFFFFFFF DUP3 AND SWAP1 POP SWAP2 SWAP1 POP JUMP JUMPDEST PUSH1 0x0 PUSH2 0xF0D DUP3 PUSH2 0xEE2 JUMP JUMPDEST SWAP1 POP SWAP2 SWAP1 POP JUMP JUMPDEST PUSH2 0xF1D DUP2 PUSH2 0xF02 JUMP JUMPDEST DUP2 EQ PUSH2 0xF28 JUMPI PUSH1 0x0 DUP1 REVERT JUMPDEST POP JUMP JUMPDEST PUSH1 0x0 DUP2 CALLDATALOAD SWAP1 POP PUSH2 0xF3A DUP2 PUSH2 0xF14 JUMP JUMPDEST SWAP3 SWAP2 POP POP JUMP JUMPDEST PUSH1 0x0 DUP2 SWAP1 POP SWAP2 SWAP1 POP JUMP JUMPDEST PUSH2 0xF53 DUP2 PUSH2 0xF40 JUMP JUMPDEST DUP2 EQ PUSH2 0xF5E JUMPI PUSH1 0x0 DUP1 REVERT JUMPDEST POP JUMP JUMPDEST PUSH1 0x0 DUP2 CALLDATALOAD SWAP1 POP PUSH2 0xF70 DUP2 PUSH2 0xF4A JUMP JUMPDEST SWAP3 SWAP2 POP POP JUMP JUMPDEST PUSH1 0x0 DUP1 PUSH1 0x40 DUP4 DUP6 SUB SLT ISZERO PUSH2 0xF8D JUMPI PUSH2 0xF8C PUSH2 0xEDD JUMP JUMPDEST JUMPDEST PUSH1 0x0 PUSH2 0xF9B DUP6 DUP3 DUP7 ADD PUSH2 0xF2B JUMP JUMPDEST SWAP3 POP POP PUSH1 0x20 PUSH2 0xFAC DUP6 DUP3 DUP7 ADD PUSH2 0xF61 JUMP JUMPDEST SWAP2 POP POP SWAP3 POP SWAP3 SWAP1 POP JUMP JUMPDEST PUSH1 0x0 DUP2 ISZERO ISZERO SWAP1 POP SWAP2 SWAP1 POP JUMP JUMPDEST PUSH2 0xFCB DUP2 PUSH2 0xFB6 JUMP JUMPDEST DUP3 MSTORE POP POP JUMP JUMPDEST PUSH1 0x0 PUSH1 0x20 DUP3 ADD SWAP1 POP PUSH2 0xFE6 PUSH1 0x0 DUP4 ADD DUP5 PUSH2 0xFC2 JUMP JUMPDEST SWAP3 SWAP2 POP POP JUMP JUMPDEST PUSH2 0xFF5 DUP2 PUSH2 0xF40 JUMP JUMPDEST DUP3 MSTORE POP POP JUMP JUMPDEST PUSH1 0x0 PUSH1 0x20 DUP3 ADD SWAP1 POP PUSH2 0x1010 PUSH1 0x0 DUP4 ADD DUP5 PUSH2 0xFEC JUMP JUMPDEST SWAP3 SWAP2 POP POP JUMP JUMPDEST PUSH1 0x0 DUP1 PUSH1 0x0 PUSH1 0x60 DUP5 DUP7 SUB SLT ISZERO PUSH2 0x102F JUMPI PUSH2 0x102E PUSH2 0xEDD JUMP JUMPDEST JUMPDEST PUSH1 0x0 PUSH2 0x103D DUP7 DUP3 DUP8 ADD PUSH2 0xF2B JUMP JUMPDEST SWAP4 POP POP PUSH1 0x20 PUSH2 0x104E DUP7 DUP3 DUP8 ADD PUSH2 0xF2B JUMP JUMPDEST SWAP3 POP POP PUSH1 0x40 PUSH2 0x105F DUP7 DUP3 DUP8 ADD PUSH2 0xF61 JUMP JUMPDEST SWAP2 POP POP SWAP3 POP SWAP3 POP SWAP3 JUMP JUMPDEST PUSH1 0x0 PUSH1 0xFF DUP3 AND SWAP1 POP SWAP2 SWAP1 POP JUMP JUMPDEST PUSH2 0x107F DUP2 PUSH2 0x1069 JUMP JUMPDEST DUP3 MSTORE POP POP JUMP JUMPDEST PUSH1 0x0 PUSH1 0x20 DUP3 ADD SWAP1 POP PUSH2 0x109A PUSH1 0x0 DUP4 ADD DUP5 PUSH2 0x1076 JUMP JUMPDEST SWAP3 SWAP2 POP POP JUMP JUMPDEST PUSH1 0x0 PUSH1 0x20 DUP3 DUP5 SUB SLT ISZERO PUSH2 0x10B6 JUMPI PUSH2 0x10B5 PUSH2 0xEDD JUMP JUMPDEST JUMPDEST PUSH1 0x0 PUSH2 0x10C4 DUP5 DUP3 DUP6 ADD PUSH2 0xF61 JUMP JUMPDEST SWAP2 POP POP SWAP3 SWAP2 POP POP JUMP JUMPDEST PUSH1 0x0 PUSH1 0x20 DUP3 DUP5 SUB SLT ISZERO PUSH2 0x10E3 JUMPI PUSH2 0x10E2 PUSH2 0xEDD JUMP JUMPDEST JUMPDEST PUSH1 0x0 PUSH2 0x10F1 DUP5 DUP3 DUP6 ADD PUSH2 0xF2B JUMP JUMPDEST SWAP2 POP POP SWAP3 SWAP2 POP POP JUMP JUMPDEST PUSH2 0x1103 DUP2 PUSH2 0xF02 JUMP JUMPDEST DUP3 MSTORE POP POP JUMP JUMPDEST PUSH1 0x0 PUSH1 0x20 DUP3 ADD SWAP1 POP PUSH2 0x111E PUSH1 0x0 DUP4 ADD DUP5 PUSH2 0x10FA JUMP JUMPDEST SWAP3 SWAP2 POP POP JUMP JUMPDEST PUSH1 0x0 DUP1 PUSH1 0x40 DUP4 DUP6 SUB SLT ISZERO PUSH2 0x113B JUMPI PUSH2 0x113A PUSH2 0xEDD JUMP JUMPDEST JUMPDEST PUSH1 0x0 PUSH2 0x1149 DUP6 DUP3 DUP7 ADD PUSH2 0xF2B JUMP JUMPDEST SWAP3 POP POP PUSH1 0x20 PUSH2 0x115A DUP6 DUP3 DUP7 ADD PUSH2 0xF2B JUMP JUMPDEST SWAP2 POP POP SWAP3 POP SWAP3 SWAP1 POP JUMP JUMPDEST PUSH32 0x4E487B7100000000000000000000000000000000000000000000000000000000 PUSH1 0x0 MSTORE PUSH1 0x22 PUSH1 0x4 MSTORE PUSH1 0x24 PUSH1 0x0 REVERT JUMPDEST PUSH1 0x0 PUSH1 0x2 DUP3 DIV SWAP1 POP PUSH1 0x1 DUP3 AND DUP1 PUSH2 0x11AB JUMPI PUSH1 0x7F DUP3 AND SWAP2 POP JUMPDEST PUSH1 0x20 DUP3 LT DUP2 SUB PUSH2 0x11BE JUMPI PUSH2 0x11BD PUSH2 0x1164 JUMP JUMPDEST JUMPDEST POP SWAP2 SWAP1 POP JUMP JUMPDEST PUSH1 0x0 PUSH1 0x60 DUP3 ADD SWAP1 POP PUSH2 0x11D9 PUSH1 0x0 DUP4 ADD DUP7 PUSH2 0x10FA JUMP JUMPDEST PUSH2 0x11E6 PUSH1 0x20 DUP4 ADD DUP6 PUSH2 0xFEC JUMP JUMPDEST PUSH2 0x11F3 PUSH1 0x40 DUP4 ADD DUP5 PUSH2 0xFEC JUMP JUMPDEST SWAP5 SWAP4 POP POP POP POP JUMP JUMPDEST PUSH32 0x4E487B7100000000000000000000000000000000000000000000000000000000 PUSH1 0x0 MSTORE PUSH1 0x11 PUSH1 0x4 MSTORE PUSH1 0x24 PUSH1 0x0 REVERT JUMPDEST PUSH1 0x0 PUSH2 0x1235 DUP3 PUSH2 0xF40 JUMP JUMPDEST SWAP2 POP PUSH2 0x1240 DUP4 PUSH2 0xF40 JUMP JUMPDEST SWAP3 POP DUP3 DUP3 ADD SWAP1 POP DUP1 DUP3 GT ISZERO PUSH2 0x1258 JUMPI PUSH2 0x1257 PUSH2 0x11FB JUMP JUMPDEST JUMPDEST SWAP3 SWAP2 POP POP JUMP INVALID LOG2 PUSH5 0x6970667358 0x22 SLT KECCAK256 0x1E 0xE 0xC3 0xC SWAP11 PUSH23 0x127BE9186F759E6C0080A55BD21F761B21770F4BB94F7D EXP 0xE3 0xC5 PUSH5 0x736F6C6343 STOP ADDMOD SHR STOP CALLER LOG2 PUSH5 0x6970667358 0x22 SLT KECCAK256 DUP10 DUP12 0xCD 0xD7 EQ 0x26 STOP GT 0xA5 PUSH6 0x2BEAF931D27C 0xEF 0x2B 0xCE PUSH26 0x26FF63D80DCE235CCD773DA464736F6C634300081C0033000000 "
        },
        "methodIdentifiers": {
          "SCALING_FACTOR()": "ef4cadc5",
          "balance(address,address)": "b203bb99",
          "buy(address,uint256)": "cce7ec13",
          "createMeme(string,string,string,string)": "a6fd28a4",
          "creationFee()": "dce0b4e4",
          "feesBalance()": "7518c965",
          "getBNBAmount(address,uint256)": "ac0e0a6d",
          "graduationAmount()": "cf60a1dc",
          "k()": "b4f40c61",
          "maxSupply()": "d5abeb01",
          "offset()": "d5556544",
          "owner()": "8da5cb5b",
          "renounceOwnership()": "715018a6",
          "sell(address,uint256)": "6c197ff5",
          "setGraduationAmount(uint256)": "6d36f6c3",
          "tokenData(address)": "27e45c2c",
          "tokens(uint256)": "4f64b2be",
          "tradeFeePercent()": "69b253e3",
          "transferOwnership(address)": "f2fde38b",
          "withdrawFees()": "476343ee",
          "withdrawTokens(address)": "49df728c"
        }
      }
    }
  }
}