{
  "_format": "hh-sol-artifact-1",
  "contractName": "MemedBattle",
  "sourceName": "contracts/MemedBattle.sol",
  "abi": [
    {
      "inputs": [
        {
          "internalType": "address payable",
          "name": "_factory",
          "type": "address"
        }
      ],
      "stateMutability": "nonpayable",
      "type": "constructor"
    },
    {
      "inputs": [
        {
          "internalType": "address",
          "name": "owner",
          "type": "address"
        }
      ],
      "name": "OwnableInvalidOwner",
      "type": "error"
    },
    {
      "inputs": [
        {
          "internalType": "address",
          "name": "account",
          "type": "address"
        }
      ],
      "name": "OwnableUnauthorizedAccount",
      "type": "error"
    },
    {
      "anonymous": false,
      "inputs": [
        {
          "indexed": true,
          "internalType": "uint256",
          "name": "battleId",
          "type": "uint256"
        },
        {
          "indexed": true,
          "internalType": "address",
          "name": "token1",
          "type": "address"
        },
        {
          "indexed": true,
          "internalType": "address",
          "name": "token2",
          "type": "address"
        },
        {
          "indexed": false,
          "internalType": "uint256",
          "name": "startTime",
          "type": "uint256"
        },
        {
          "indexed": false,
          "internalType": "uint256",
          "name": "endTime",
          "type": "uint256"
        }
      ],
      "name": "BattleCreated",
      "type": "event"
    },
    {
      "anonymous": false,
      "inputs": [
        {
          "indexed": true,
          "internalType": "uint256",
          "name": "battleId",
          "type": "uint256"
        },
        {
          "indexed": true,
          "internalType": "address",
          "name": "winner",
          "type": "address"
        },
        {
          "indexed": false,
          "internalType": "uint256",
          "name": "token1FinalVotes",
          "type": "uint256"
        },
        {
          "indexed": false,
          "internalType": "uint256",
          "name": "token2FinalVotes",
          "type": "uint256"
        }
      ],
      "name": "BattleSettled",
      "type": "event"
    },
    {
      "anonymous": false,
      "inputs": [
        {
          "indexed": true,
          "internalType": "address",
          "name": "token",
          "type": "address"
        },
        {
          "indexed": false,
          "internalType": "uint256",
          "name": "timestamp",
          "type": "uint256"
        }
      ],
      "name": "NewKingCrowned",
      "type": "event"
    },
    {
      "anonymous": false,
      "inputs": [
        {
          "indexed": true,
          "internalType": "address",
          "name": "previousOwner",
          "type": "address"
        },
        {
          "indexed": true,
          "internalType": "address",
          "name": "newOwner",
          "type": "address"
        }
      ],
      "name": "OwnershipTransferred",
      "type": "event"
    },
    {
      "anonymous": false,
      "inputs": [
        {
          "indexed": true,
          "internalType": "uint256",
          "name": "battleId",
          "type": "uint256"
        },
        {
          "indexed": true,
          "internalType": "address",
          "name": "voter",
          "type": "address"
        },
        {
          "indexed": true,
          "internalType": "address",
          "name": "votedFor",
          "type": "address"
        },
        {
          "indexed": false,
          "internalType": "uint256",
          "name": "votingPower",
          "type": "uint256"
        }
      ],
      "name": "VoteCast",
      "type": "event"
    },
    {
      "inputs": [],
      "name": "BATTLE_DURATION",
      "outputs": [
        {
          "internalType": "uint256",
          "name": "",
          "type": "uint256"
        }
      ],
      "stateMutability": "view",
      "type": "function"
    },
    {
      "inputs": [],
      "name": "CREATION_FEE",
      "outputs": [
        {
          "internalType": "uint256",
          "name": "",
          "type": "uint256"
        }
      ],
      "stateMutability": "view",
      "type": "function"
    },
    {
      "inputs": [],
      "name": "MIN_TOKENS_TO_CREATE",
      "outputs": [
        {
          "internalType": "uint256",
          "name": "",
          "type": "uint256"
        }
      ],
      "stateMutability": "view",
      "type": "function"
    },
    {
      "inputs": [],
      "name": "battleCount",
      "outputs": [
        {
          "internalType": "uint256",
          "name": "",
          "type": "uint256"
        }
      ],
      "stateMutability": "view",
      "type": "function"
    },
    {
      "inputs": [
        {
          "internalType": "uint256",
          "name": "",
          "type": "uint256"
        }
      ],
      "name": "battles",
      "outputs": [
        {
          "internalType": "address",
          "name": "token1",
          "type": "address"
        },
        {
          "internalType": "address",
          "name": "token2",
          "type": "address"
        },
        {
          "internalType": "uint256",
          "name": "token1Votes",
          "type": "uint256"
        },
        {
          "internalType": "uint256",
          "name": "token2Votes",
          "type": "uint256"
        },
        {
          "internalType": "uint256",
          "name": "startTime",
          "type": "uint256"
        },
        {
          "internalType": "uint256",
          "name": "endTime",
          "type": "uint256"
        },
        {
          "internalType": "bool",
          "name": "settled",
          "type": "bool"
        },
        {
          "internalType": "address",
          "name": "winner",
          "type": "address"
        }
      ],
      "stateMutability": "view",
      "type": "function"
    },
    {
      "inputs": [
        {
          "internalType": "address",
          "name": "_voter",
          "type": "address"
        },
        {
          "internalType": "address",
          "name": "_token1",
          "type": "address"
        },
        {
          "internalType": "address",
          "name": "_token2",
          "type": "address"
        }
      ],
      "name": "calculateVotingPower",
      "outputs": [
        {
          "internalType": "uint256",
          "name": "",
          "type": "uint256"
        }
      ],
      "stateMutability": "view",
      "type": "function"
    },
    {
      "inputs": [
        {
          "internalType": "address",
          "name": "_token1",
          "type": "address"
        },
        {
          "internalType": "address",
          "name": "_token2",
          "type": "address"
        }
      ],
      "name": "createBattle",
      "outputs": [],
      "stateMutability": "payable",
      "type": "function"
    },
    {
      "inputs": [],
      "name": "currentKing",
      "outputs": [
        {
          "internalType": "address",
          "name": "",
          "type": "address"
        }
      ],
      "stateMutability": "view",
      "type": "function"
    },
    {
      "inputs": [],
      "name": "factory",
      "outputs": [
        {
          "internalType": "contract Factory",
          "name": "",
          "type": "address"
        }
      ],
      "stateMutability": "view",
      "type": "function"
    },
    {
      "inputs": [],
      "name": "feesBalance",
      "outputs": [
        {
          "internalType": "uint256",
          "name": "",
          "type": "uint256"
        }
      ],
      "stateMutability": "view",
      "type": "function"
    },
    {
      "inputs": [
        {
          "internalType": "uint256",
          "name": "limit",
          "type": "uint256"
        }
      ],
      "name": "getLeaderboard",
      "outputs": [
        {
          "internalType": "address[]",
          "name": "tokens",
          "type": "address[]"
        },
        {
          "internalType": "uint256[]",
          "name": "wins",
          "type": "uint256[]"
        },
        {
          "internalType": "uint256[]",
          "name": "totalBattles",
          "type": "uint256[]"
        },
        {
          "internalType": "uint256[]",
          "name": "totalVotes",
          "type": "uint256[]"
        }
      ],
      "stateMutability": "view",
      "type": "function"
    },
    {
      "inputs": [
        {
          "internalType": "address",
          "name": "token",
          "type": "address"
        }
      ],
      "name": "getTokenBasicStats",
      "outputs": [
        {
          "internalType": "uint256",
          "name": "totalBattles",
          "type": "uint256"
        },
        {
          "internalType": "uint256",
          "name": "totalWins",
          "type": "uint256"
        },
        {
          "internalType": "uint256",
          "name": "totalVotes",
          "type": "uint256"
        },
        {
          "internalType": "bool",
          "name": "isCurrentKing",
          "type": "bool"
        },
        {
          "internalType": "uint256",
          "name": "kingTime",
          "type": "uint256"
        }
      ],
      "stateMutability": "view",
      "type": "function"
    },
    {
      "inputs": [
        {
          "internalType": "address",
          "name": "token",
          "type": "address"
        }
      ],
      "name": "getTokenMonthlyStats",
      "outputs": [
        {
          "internalType": "uint256[]",
          "name": "monthlyBattles",
          "type": "uint256[]"
        },
        {
          "internalType": "uint256[]",
          "name": "monthlyWins",
          "type": "uint256[]"
        }
      ],
      "stateMutability": "view",
      "type": "function"
    },
    {
      "inputs": [
        {
          "internalType": "uint256",
          "name": "",
          "type": "uint256"
        },
        {
          "internalType": "address",
          "name": "",
          "type": "address"
        }
      ],
      "name": "hasVoted",
      "outputs": [
        {
          "internalType": "bool",
          "name": "",
          "type": "bool"
        }
      ],
      "stateMutability": "view",
      "type": "function"
    },
    {
      "inputs": [
        {
          "internalType": "address",
          "name": "",
          "type": "address"
        },
        {
          "internalType": "uint256",
          "name": "",
          "type": "uint256"
        }
      ],
      "name": "monthlyBattleCount",
      "outputs": [
        {
          "internalType": "uint256",
          "name": "",
          "type": "uint256"
        }
      ],
      "stateMutability": "view",
      "type": "function"
    },
    {
      "inputs": [
        {
          "internalType": "address",
          "name": "",
          "type": "address"
        },
        {
          "internalType": "uint256",
          "name": "",
          "type": "uint256"
        }
      ],
      "name": "monthlyWinCount",
      "outputs": [
        {
          "internalType": "uint256",
          "name": "",
          "type": "uint256"
        }
      ],
      "stateMutability": "view",
      "type": "function"
    },
    {
      "inputs": [],
      "name": "owner",
      "outputs": [
        {
          "internalType": "address",
          "name": "",
          "type": "address"
        }
      ],
      "stateMutability": "view",
      "type": "function"
    },
    {
      "inputs": [],
      "name": "renounceOwnership",
      "outputs": [],
      "stateMutability": "nonpayable",
      "type": "function"
    },
    {
      "inputs": [
        {
          "internalType": "uint256",
          "name": "_battleId",
          "type": "uint256"
        }
      ],
      "name": "settleBattle",
      "outputs": [],
      "stateMutability": "nonpayable",
      "type": "function"
    },
    {
      "inputs": [
        {
          "internalType": "address",
          "name": "",
          "type": "address"
        }
      ],
      "name": "tokenScores",
      "outputs": [
        {
          "internalType": "uint256",
          "name": "wins",
          "type": "uint256"
        },
        {
          "internalType": "uint256",
          "name": "totalBattles",
          "type": "uint256"
        },
        {
          "internalType": "uint256",
          "name": "totalVotes",
          "type": "uint256"
        }
      ],
      "stateMutability": "view",
      "type": "function"
    },
    {
      "inputs": [
        {
          "internalType": "address",
          "name": "",
          "type": "address"
        }
      ],
      "name": "tokenStats",
      "outputs": [
        {
          "internalType": "uint256",
          "name": "totalBattlesInitiated",
          "type": "uint256"
        },
        {
          "internalType": "uint256",
          "name": "totalBattlesParticipated",
          "type": "uint256"
        },
        {
          "internalType": "uint256",
          "name": "totalWins",
          "type": "uint256"
        },
        {
          "internalType": "uint256",
          "name": "totalVotes",
          "type": "uint256"
        },
        {
          "internalType": "uint256",
          "name": "lastBattleTime",
          "type": "uint256"
        },
        {
          "internalType": "uint256",
          "name": "lastWinTime",
          "type": "uint256"
        },
        {
          "internalType": "bool",
          "name": "isKing",
          "type": "bool"
        },
        {
          "internalType": "uint256",
          "name": "kingCrownedTime",
          "type": "uint256"
        }
      ],
      "stateMutability": "view",
      "type": "function"
    },
    {
      "inputs": [
        {
          "internalType": "address",
          "name": "newOwner",
          "type": "address"
        }
      ],
      "name": "transferOwnership",
      "outputs": [],
      "stateMutability": "nonpayable",
      "type": "function"
    },
    {
      "inputs": [
        {
          "internalType": "uint256",
          "name": "",
          "type": "uint256"
        },
        {
          "internalType": "address",
          "name": "",
          "type": "address"
        }
      ],
      "name": "userVotingPower",
      "outputs": [
        {
          "internalType": "uint256",
          "name": "",
          "type": "uint256"
        }
      ],
      "stateMutability": "view",
      "type": "function"
    },
    {
      "inputs": [
        {
          "internalType": "uint256",
          "name": "_battleId",
          "type": "uint256"
        },
        {
          "internalType": "address",
          "name": "_votingFor",
          "type": "address"
        }
      ],
      "name": "vote",
      "outputs": [],
      "stateMutability": "nonpayable",
      "type": "function"
    },
    {
      "inputs": [],
      "name": "withdrawFees",
      "outputs": [],
      "stateMutability": "nonpayable",
      "type": "function"
    }
  ],
  "bytecode": "0x608060405234801561001057600080fd5b50604051613ec9380380613ec983398181016040528101906100329190610223565b33600073ffffffffffffffffffffffffffffffffffffffff168173ffffffffffffffffffffffffffffffffffffffff16036100a55760006040517f1e4fbdf700000000000000000000000000000000000000000000000000000000815260040161009c9190610271565b60405180910390fd5b6100b4816100fc60201b60201c565b5080600160006101000a81548173ffffffffffffffffffffffffffffffffffffffff021916908373ffffffffffffffffffffffffffffffffffffffff1602179055505061028c565b60008060009054906101000a900473ffffffffffffffffffffffffffffffffffffffff169050816000806101000a81548173ffffffffffffffffffffffffffffffffffffffff021916908373ffffffffffffffffffffffffffffffffffffffff1602179055508173ffffffffffffffffffffffffffffffffffffffff168173ffffffffffffffffffffffffffffffffffffffff167f8be0079c531659141344cd1fd0a4f28419497f9722a3daafe3b4186f6b6457e060405160405180910390a35050565b600080fd5b600073ffffffffffffffffffffffffffffffffffffffff82169050919050565b60006101f0826101c5565b9050919050565b610200816101e5565b811461020b57600080fd5b50565b60008151905061021d816101f7565b92915050565b600060208284031215610239576102386101c0565b5b60006102478482850161020e565b91505092915050565b600061025b826101c5565b9050919050565b61026b81610250565b82525050565b60006020820190506102866000830184610262565b92915050565b613c2e8061029b6000396000f3fe6080604052600436106101665760003560e01c80638da5cb5b116100d1578063c45a01551161008a578063e41385a311610064578063e41385a31461056a578063ece80528146105a7578063f2fde38b146105eb578063f5b457141461061457610166565b8063c45a0155146104d5578063e00b636314610500578063e0690d991461052b57610166565b80638da5cb5b14610396578063a34b46fe146103c1578063af1f64c214610401578063b236eb8d1461043e578063b34e753914610469578063bd54b9701461049457610166565b8063476343ee11610123578063476343ee146102a557806348eaa2f0146102bc57806349a2104d146102e5578063606d2e9614610310578063715018a6146103545780637518c9651461036b57610166565b806302d947ef1461016b5780630625ef581461019457806332670c44146101d157806338c7e2781461020e5780633d0ebf481461024c5780634385963214610268575b600080fd5b34801561017757600080fd5b50610192600480360381019061018d91906129d3565b61063f565b005b3480156101a057600080fd5b506101bb60048036038101906101b69190612a13565b610b1d565b6040516101c89190612a62565b60405180910390f35b3480156101dd57600080fd5b506101f860048036038101906101f39190612a7d565b610b42565b6040516102059190612a62565b60405180910390f35b34801561021a57600080fd5b5061023560048036038101906102309190612ad0565b610c7e565b604051610243929190612bbb565b60405180910390f35b61026660048036038101906102619190612bf2565b610e55565b005b34801561027457600080fd5b5061028f600480360381019061028a91906129d3565b6114cf565b60405161029c9190612c4d565b60405180910390f35b3480156102b157600080fd5b506102ba6114fe565b005b3480156102c857600080fd5b506102e360048036038101906102de9190612c68565b611566565b005b3480156102f157600080fd5b506102fa611a6a565b6040516103079190612a62565b60405180910390f35b34801561031c57600080fd5b5061033760048036038101906103329190612c68565b611a74565b60405161034b989796959493929190612ca4565b60405180910390f35b34801561036057600080fd5b50610369611b29565b005b34801561037757600080fd5b50610380611b3d565b60405161038d9190612a62565b60405180910390f35b3480156103a257600080fd5b506103ab611b43565b6040516103b89190612d22565b60405180910390f35b3480156103cd57600080fd5b506103e860048036038101906103e39190612c68565b611b6c565b6040516103f89493929190612dfb565b60405180910390f35b34801561040d57600080fd5b5061042860048036038101906104239190612a13565b6123da565b6040516104359190612a62565b60405180910390f35b34801561044a57600080fd5b506104536123ff565b6040516104609190612a62565b60405180910390f35b34801561047557600080fd5b5061047e612405565b60405161048b9190612a62565b60405180910390f35b3480156104a057600080fd5b506104bb60048036038101906104b69190612ad0565b612412565b6040516104cc959493929190612e5c565b60405180910390f35b3480156104e157600080fd5b506104ea6124d5565b6040516104f79190612f0e565b60405180910390f35b34801561050c57600080fd5b506105156124fb565b6040516105229190612a62565b60405180910390f35b34801561053757600080fd5b50610552600480360381019061054d9190612ad0565b612501565b60405161056193929190612f29565b60405180910390f35b34801561057657600080fd5b50610591600480360381019061058c91906129d3565b61252b565b60405161059e9190612a62565b60405180910390f35b3480156105b357600080fd5b506105ce60048036038101906105c99190612ad0565b612550565b6040516105e2989796959493929190612f60565b60405180910390f35b3480156105f757600080fd5b50610612600480360381019061060d9190612ad0565b6125a5565b005b34801561062057600080fd5b5061062961262b565b6040516106369190612d22565b60405180910390f35b6000600260008481526020019081526020016000209050806004015442101561069d576040517f08c379a00000000000000000000000000000000000000000000000000000000081526004016106949061303b565b60405180910390fd5b806005015442106106e3576040517f08c379a00000000000000000000000000000000000000000000000000000000081526004016106da906130a7565b60405180910390fd5b6004600084815260200190815260200160002060003373ffffffffffffffffffffffffffffffffffffffff1673ffffffffffffffffffffffffffffffffffffffff16815260200190815260200160002060009054906101000a900460ff1615610781576040517f08c379a000000000000000000000000000000000000000000000000000000000815260040161077890613113565b60405180910390fd5b8060000160009054906101000a900473ffffffffffffffffffffffffffffffffffffffff1673ffffffffffffffffffffffffffffffffffffffff168273ffffffffffffffffffffffffffffffffffffffff16148061082e57508060010160009054906101000a900473ffffffffffffffffffffffffffffffffffffffff1673ffffffffffffffffffffffffffffffffffffffff168273ffffffffffffffffffffffffffffffffffffffff16145b61086d576040517f08c379a00000000000000000000000000000000000000000000000000000000081526004016108649061317f565b60405180910390fd5b60006108c2338360000160009054906101000a900473ffffffffffffffffffffffffffffffffffffffff168460010160009054906101000a900473ffffffffffffffffffffffffffffffffffffffff16610b42565b905060008111610907576040517f08c379a00000000000000000000000000000000000000000000000000000000081526004016108fe906131eb565b60405180910390fd5b8160000160009054906101000a900473ffffffffffffffffffffffffffffffffffffffff1673ffffffffffffffffffffffffffffffffffffffff168373ffffffffffffffffffffffffffffffffffffffff160361097e5780826002016000828254610972919061323a565b9250508190555061099a565b80826003016000828254610992919061323a565b925050819055505b80600660008573ffffffffffffffffffffffffffffffffffffffff1673ffffffffffffffffffffffffffffffffffffffff16815260200190815260200160002060030160008282546109ec919061323a565b9250508190555060016004600086815260200190815260200160002060003373ffffffffffffffffffffffffffffffffffffffff1673ffffffffffffffffffffffffffffffffffffffff16815260200190815260200160002060006101000a81548160ff021916908315150217905550806005600086815260200190815260200160002060003373ffffffffffffffffffffffffffffffffffffffff1673ffffffffffffffffffffffffffffffffffffffff168152602001908152602001600020819055508273ffffffffffffffffffffffffffffffffffffffff163373ffffffffffffffffffffffffffffffffffffffff16857f044652d717a831bada29c3f4822836fca71492a56031a029c131e915bd00ce8e84604051610b0f9190612a62565b60405180910390a450505050565b6008602052816000526040600020602052806000526040600020600091509150505481565b600080839050600083905060008273ffffffffffffffffffffffffffffffffffffffff166370a08231886040518263ffffffff1660e01b8152600401610b889190612d22565b602060405180830381865afa158015610ba5573d6000803e3d6000fd5b505050506040513d601f19601f82011682018060405250810190610bc99190613283565b905060008273ffffffffffffffffffffffffffffffffffffffff166370a08231896040518263ffffffff1660e01b8152600401610c069190612d22565b602060405180830381865afa158015610c23573d6000803e3d6000fd5b505050506040513d601f19601f82011682018060405250810190610c479190613283565b90506000610c5483612651565b90506000610c6183612651565b90508082610c6f919061323a565b96505050505050509392505050565b606080600667ffffffffffffffff811115610c9c57610c9b6132b0565b5b604051908082528060200260200182016040528015610cca5781602001602082028036833780820191505090505b509150600667ffffffffffffffff811115610ce857610ce76132b0565b5b604051908082528060200260200182016040528015610d165781602001602082028036833780820191505090505b5090506000600662278d0042610d2c919061330e565b610d36919061333f565b905060005b6006811015610e4e57600060068284610d54919061323a565b610d5e919061333f565b9050600760008773ffffffffffffffffffffffffffffffffffffffff1673ffffffffffffffffffffffffffffffffffffffff168152602001908152602001600020600082815260200190815260200160002054858381518110610dc457610dc3613370565b5b602002602001018181525050600860008773ffffffffffffffffffffffffffffffffffffffff1673ffffffffffffffffffffffffffffffffffffffff168152602001908152602001600020600082815260200190815260200160002054848381518110610e3457610e33613370565b5b602002602001018181525050508080600101915050610d3b565b5050915091565b65b5e620f48000341015610e9e576040517f08c379a0000000000000000000000000000000000000000000000000000000008152600401610e95906133eb565b60405180910390fd5b8073ffffffffffffffffffffffffffffffffffffffff168273ffffffffffffffffffffffffffffffffffffffff1603610f0c576040517f08c379a0000000000000000000000000000000000000000000000000000000008152600401610f0390613457565b60405180910390fd5b6000600160009054906101000a900473ffffffffffffffffffffffffffffffffffffffff1673ffffffffffffffffffffffffffffffffffffffff166327e45c2c846040518263ffffffff1660e01b8152600401610f699190612d22565b600060405180830381865afa158015610f86573d6000803e3d6000fd5b505050506040513d6000823e3d601f19601f82011682018060405250810190610faf91906135e3565b5050955050505050506000600160009054906101000a900473ffffffffffffffffffffffffffffffffffffffff1673ffffffffffffffffffffffffffffffffffffffff166327e45c2c846040518263ffffffff1660e01b81526004016110159190612d22565b600060405180830381865afa158015611032573d6000803e3d6000fd5b505050506040513d6000823e3d601f19601f8201168201806040525081019061105b91906135e3565b50509550505050505060028081111561107757611076613709565b5b82600281111561108a57611089613709565b5b1480156110ba57506002808111156110a5576110a4613709565b5b8160028111156110b8576110b7613709565b5b145b6110f9576040517f08c379a00000000000000000000000000000000000000000000000000000000081526004016110f090613784565b60405180910390fd5b60008490506000849050683635c9adc5dea000008273ffffffffffffffffffffffffffffffffffffffff166318160ddd6040518163ffffffff1660e01b8152600401602060405180830381865afa158015611158573d6000803e3d6000fd5b505050506040513d601f19601f8201168201806040525081019061117c9190613283565b101580156112015750683635c9adc5dea000008173ffffffffffffffffffffffffffffffffffffffff166318160ddd6040518163ffffffff1660e01b8152600401602060405180830381865afa1580156111da573d6000803e3d6000fd5b505050506040513d601f19601f820116820180604052508101906111fe9190613283565b10155b611240576040517f08c379a0000000000000000000000000000000000000000000000000000000008152600401611237906137f0565b60405180910390fd5b60006009600081548092919061125590613810565b9190505590506000429050600061025882611270919061323a565b90506040518061010001604052808a73ffffffffffffffffffffffffffffffffffffffff1681526020018973ffffffffffffffffffffffffffffffffffffffff1681526020016000815260200160008152602001838152602001828152602001600015158152602001600073ffffffffffffffffffffffffffffffffffffffff168152506002600085815260200190815260200160002060008201518160000160006101000a81548173ffffffffffffffffffffffffffffffffffffffff021916908373ffffffffffffffffffffffffffffffffffffffff16021790555060208201518160010160006101000a81548173ffffffffffffffffffffffffffffffffffffffff021916908373ffffffffffffffffffffffffffffffffffffffff16021790555060408201518160020155606082015181600301556080820151816004015560a0820151816005015560c08201518160060160006101000a81548160ff02191690831515021790555060e08201518160060160016101000a81548173ffffffffffffffffffffffffffffffffffffffff021916908373ffffffffffffffffffffffffffffffffffffffff1602179055509050506114328960016126c6565b61143d8860006126c6565b65b5e620f48000600a6000828254611455919061323a565b925050819055508773ffffffffffffffffffffffffffffffffffffffff168973ffffffffffffffffffffffffffffffffffffffff16847f054dfa40cda6e656e0543ff5ec8422055d03392e6f368d4243843ca5a233240c85856040516114bc929190613858565b60405180910390a4505050505050505050565b60046020528160005260406000206020528060005260406000206000915091509054906101000a900460ff1681565b6115066127d8565b6000600a5490506000600a8190555061151d611b43565b73ffffffffffffffffffffffffffffffffffffffff166108fc829081150290604051600060405180830381858888f19350505050158015611562573d6000803e3d6000fd5b5050565b600060026000838152602001908152602001600020905080600501544210156115c4576040517f08c379a00000000000000000000000000000000000000000000000000000000081526004016115bb906138cd565b60405180910390fd5b8060060160009054906101000a900460ff1615611616576040517f08c379a000000000000000000000000000000000000000000000000000000000815260040161160d90613939565b60405180910390fd5b6000816003015482600201541115611654578160000160009054906101000a900473ffffffffffffffffffffffffffffffffffffffff16905061170c565b816002015482600301541115611690578160010160009054906101000a900473ffffffffffffffffffffffffffffffffffffffff16905061170b565b60008260020154146117055760006002426116ab919061333f565b146116da578160010160009054906101000a900473ffffffffffffffffffffffffffffffffffffffff16611700565b8160000160009054906101000a900473ffffffffffffffffffffffffffffffffffffffff165b611708565b60005b90505b5b808260060160016101000a81548173ffffffffffffffffffffffffffffffffffffffff021916908373ffffffffffffffffffffffffffffffffffffffff16021790555060018260060160006101000a81548160ff021916908315150217905550600073ffffffffffffffffffffffffffffffffffffffff168173ffffffffffffffffffffffffffffffffffffffff1614611a0c576000600660008373ffffffffffffffffffffffffffffffffffffffff1673ffffffffffffffffffffffffffffffffffffffff16815260200190815260200160002090508060020160008154809291906117f890613810565b9190505550428160050181905550600860008373ffffffffffffffffffffffffffffffffffffffff1673ffffffffffffffffffffffffffffffffffffffff1681526020019081526020016000206000600662278d0042611858919061330e565b611862919061333f565b8152602001908152602001600020600081548092919061188190613810565b91905055506003600860008473ffffffffffffffffffffffffffffffffffffffff1673ffffffffffffffffffffffffffffffffffffffff1681526020019081526020016000206000600662278d00426118da919061330e565b6118e4919061333f565b8152602001908152602001600020541015801561194f5750600b60009054906101000a900473ffffffffffffffffffffffffffffffffffffffff1673ffffffffffffffffffffffffffffffffffffffff168273ffffffffffffffffffffffffffffffffffffffff1614155b15611a0a5781600b60006101000a81548173ffffffffffffffffffffffffffffffffffffffff021916908373ffffffffffffffffffffffffffffffffffffffff16021790555060018160060160006101000a81548160ff0219169083151502179055504281600701819055508173ffffffffffffffffffffffffffffffffffffffff167fe63dd356ac0b0d2a59e773dabc5218b8d608c2ae3852343154111379d5975b6542604051611a019190612a62565b60405180910390a25b505b8073ffffffffffffffffffffffffffffffffffffffff16837f840d22332c343b2f800445e34dcc3f88fb7f2ab20eb74f7f46384db26f416ff584600201548560030154604051611a5d929190613858565b60405180910390a3505050565b65b5e620f4800081565b60026020528060005260406000206000915090508060000160009054906101000a900473ffffffffffffffffffffffffffffffffffffffff16908060010160009054906101000a900473ffffffffffffffffffffffffffffffffffffffff16908060020154908060030154908060040154908060050154908060060160009054906101000a900460ff16908060060160019054906101000a900473ffffffffffffffffffffffffffffffffffffffff16905088565b611b316127d8565b611b3b600061285f565b565b600a5481565b60008060009054906101000a900473ffffffffffffffffffffffffffffffffffffffff16905090565b6060806060806000600160009054906101000a900473ffffffffffffffffffffffffffffffffffffffff1673ffffffffffffffffffffffffffffffffffffffff1663450efe2160006040518263ffffffff1660e01b8152600401611bd09190612d22565b600060405180830381865afa158015611bed573d6000803e3d6000fd5b505050506040513d6000823e3d601f19601f82011682018060405250810190611c169190613baf565b90506000815167ffffffffffffffff811115611c3557611c346132b0565b5b604051908082528060200260200182016040528015611c635781602001602082028036833780820191505090505b5090506000825167ffffffffffffffff811115611c8357611c826132b0565b5b604051908082528060200260200182016040528015611cb15781602001602082028036833780820191505090505b5090506000835167ffffffffffffffff811115611cd157611cd06132b0565b5b604051908082528060200260200182016040528015611cff5781602001602082028036833780820191505090505b5090506000845167ffffffffffffffff811115611d1f57611d1e6132b0565b5b604051908082528060200260200182016040528015611d4d5781602001602082028036833780820191505090505b50905060005b8551811015611eb4576000868281518110611d7157611d70613370565b5b60200260200101516000015190506000600360008373ffffffffffffffffffffffffffffffffffffffff1673ffffffffffffffffffffffffffffffffffffffff1681526020019081526020016000206040518060600160405290816000820154815260200160018201548152602001600282015481525050905081878481518110611dff57611dfe613370565b5b602002602001019073ffffffffffffffffffffffffffffffffffffffff16908173ffffffffffffffffffffffffffffffffffffffff16815250508060000151868481518110611e5157611e50613370565b5b6020026020010181815250508060200151858481518110611e7557611e74613370565b5b6020026020010181815250508060400151848481518110611e9957611e98613370565b5b60200260200101818152505050508080600101915050611d53565b5060005b845181101561215c576000600182611ed0919061323a565b90505b855181101561214e57848281518110611eef57611eee613370565b5b6020026020010151858281518110611f0a57611f09613370565b5b6020026020010151111561214157858181518110611f2b57611f2a613370565b5b6020026020010151868381518110611f4657611f45613370565b5b6020026020010151878481518110611f6157611f60613370565b5b60200260200101888481518110611f7b57611f7a613370565b5b602002602001018273ffffffffffffffffffffffffffffffffffffffff1673ffffffffffffffffffffffffffffffffffffffff168152508273ffffffffffffffffffffffffffffffffffffffff1673ffffffffffffffffffffffffffffffffffffffff168152505050848181518110611ff757611ff6613370565b5b602002602001015185838151811061201257612011613370565b5b602002602001015186848151811061202d5761202c613370565b5b6020026020010187848151811061204757612046613370565b5b602002602001018281525082815250505083818151811061206b5761206a613370565b5b602002602001015184838151811061208657612085613370565b5b60200260200101518584815181106120a1576120a0613370565b5b602002602001018684815181106120bb576120ba613370565b5b60200260200101828152508281525050508281815181106120df576120de613370565b5b60200260200101518383815181106120fa576120f9613370565b5b602002602001015184848151811061211557612114613370565b5b6020026020010185848151811061212f5761212e613370565b5b60200260200101828152508281525050505b8080600101915050611ed3565b508080600101915050611eb8565b50600084518b1161216d578a612170565b84515b90508067ffffffffffffffff81111561218c5761218b6132b0565b5b6040519080825280602002602001820160405280156121ba5781602001602082028036833780820191505090505b5099508067ffffffffffffffff8111156121d7576121d66132b0565b5b6040519080825280602002602001820160405280156122055781602001602082028036833780820191505090505b5098508067ffffffffffffffff811115612222576122216132b0565b5b6040519080825280602002602001820160405280156122505781602001602082028036833780820191505090505b5097508067ffffffffffffffff81111561226d5761226c6132b0565b5b60405190808252806020026020018201604052801561229b5781602001602082028036833780820191505090505b50965060005b818110156123cc578581815181106122bc576122bb613370565b5b60200260200101518b82815181106122d7576122d6613370565b5b602002602001019073ffffffffffffffffffffffffffffffffffffffff16908173ffffffffffffffffffffffffffffffffffffffff168152505084818151811061232457612323613370565b5b60200260200101518a828151811061233f5761233e613370565b5b60200260200101818152505083818151811061235e5761235d613370565b5b602002602001015189828151811061237957612378613370565b5b60200260200101818152505082818151811061239857612397613370565b5b60200260200101518882815181106123b3576123b2613370565b5b60200260200101818152505080806001019150506122a1565b505050505050509193509193565b6007602052816000526040600020602052806000526040600020600091509150505481565b61025881565b683635c9adc5dea0000081565b600080600080600080600660008873ffffffffffffffffffffffffffffffffffffffff1673ffffffffffffffffffffffffffffffffffffffff16815260200190815260200160002090508060010154816002015482600301548973ffffffffffffffffffffffffffffffffffffffff16600b60009054906101000a900473ffffffffffffffffffffffffffffffffffffffff1673ffffffffffffffffffffffffffffffffffffffff16148460070154955095509550955095505091939590929450565b600160009054906101000a900473ffffffffffffffffffffffffffffffffffffffff1681565b60095481565b60036020528060005260406000206000915090508060000154908060010154908060020154905083565b6005602052816000526040600020602052806000526040600020600091509150505481565b60066020528060005260406000206000915090508060000154908060010154908060020154908060030154908060040154908060050154908060060160009054906101000a900460ff16908060070154905088565b6125ad6127d8565b600073ffffffffffffffffffffffffffffffffffffffff168173ffffffffffffffffffffffffffffffffffffffff160361261f5760006040517f1e4fbdf70000000000000000000000000000000000000000000000000000000081526004016126169190612d22565b60405180910390fd5b6126288161285f565b50565b600b60009054906101000a900473ffffffffffffffffffffffffffffffffffffffff1681565b600080820361266357600090506126c1565b60006002600184612674919061323a565b61267e919061330e565b905060008390505b808210156126bb5781905060028283866126a0919061330e565b6126aa919061323a565b6126b4919061330e565b9150612686565b80925050505b919050565b6000600660008473ffffffffffffffffffffffffffffffffffffffff1673ffffffffffffffffffffffffffffffffffffffff16815260200190815260200160002090506000600662278d004261271c919061330e565b612726919061333f565b905082156127495781600001600081548092919061274390613810565b91905055505b81600101600081548092919061275e90613810565b9190505550428260040181905550600760008573ffffffffffffffffffffffffffffffffffffffff1673ffffffffffffffffffffffffffffffffffffffff168152602001908152602001600020600082815260200190815260200160002060008154809291906127cd90613810565b919050555050505050565b6127e0612923565b73ffffffffffffffffffffffffffffffffffffffff166127fe611b43565b73ffffffffffffffffffffffffffffffffffffffff161461285d57612821612923565b6040517f118cdaa70000000000000000000000000000000000000000000000000000000081526004016128549190612d22565b60405180910390fd5b565b60008060009054906101000a900473ffffffffffffffffffffffffffffffffffffffff169050816000806101000a81548173ffffffffffffffffffffffffffffffffffffffff021916908373ffffffffffffffffffffffffffffffffffffffff1602179055508173ffffffffffffffffffffffffffffffffffffffff168173ffffffffffffffffffffffffffffffffffffffff167f8be0079c531659141344cd1fd0a4f28419497f9722a3daafe3b4186f6b6457e060405160405180910390a35050565b600033905090565b6000604051905090565b600080fd5b600080fd5b6000819050919050565b6129528161293f565b811461295d57600080fd5b50565b60008135905061296f81612949565b92915050565b600073ffffffffffffffffffffffffffffffffffffffff82169050919050565b60006129a082612975565b9050919050565b6129b081612995565b81146129bb57600080fd5b50565b6000813590506129cd816129a7565b92915050565b600080604083850312156129ea576129e9612935565b5b60006129f885828601612960565b9250506020612a09858286016129be565b9150509250929050565b60008060408385031215612a2a57612a29612935565b5b6000612a38858286016129be565b9250506020612a4985828601612960565b9150509250929050565b612a5c8161293f565b82525050565b6000602082019050612a776000830184612a53565b92915050565b600080600060608486031215612a9657612a95612935565b5b6000612aa4868287016129be565b9350506020612ab5868287016129be565b9250506040612ac6868287016129be565b9150509250925092565b600060208284031215612ae657612ae5612935565b5b6000612af4848285016129be565b91505092915050565b600081519050919050565b600082825260208201905092915050565b6000819050602082019050919050565b612b328161293f565b82525050565b6000612b448383612b29565b60208301905092915050565b6000602082019050919050565b6000612b6882612afd565b612b728185612b08565b9350612b7d83612b19565b8060005b83811015612bae578151612b958882612b38565b9750612ba083612b50565b925050600181019050612b81565b5085935050505092915050565b60006040820190508181036000830152612bd58185612b5d565b90508181036020830152612be98184612b5d565b90509392505050565b60008060408385031215612c0957612c08612935565b5b6000612c17858286016129be565b9250506020612c28858286016129be565b9150509250929050565b60008115159050919050565b612c4781612c32565b82525050565b6000602082019050612c626000830184612c3e565b92915050565b600060208284031215612c7e57612c7d612935565b5b6000612c8c84828501612960565b91505092915050565b612c9e81612995565b82525050565b600061010082019050612cba600083018b612c95565b612cc7602083018a612c95565b612cd46040830189612a53565b612ce16060830188612a53565b612cee6080830187612a53565b612cfb60a0830186612a53565b612d0860c0830185612c3e565b612d1560e0830184612c95565b9998505050505050505050565b6000602082019050612d376000830184612c95565b92915050565b600081519050919050565b600082825260208201905092915050565b6000819050602082019050919050565b612d7281612995565b82525050565b6000612d848383612d69565b60208301905092915050565b6000602082019050919050565b6000612da882612d3d565b612db28185612d48565b9350612dbd83612d59565b8060005b83811015612dee578151612dd58882612d78565b9750612de083612d90565b925050600181019050612dc1565b5085935050505092915050565b60006080820190508181036000830152612e158187612d9d565b90508181036020830152612e298186612b5d565b90508181036040830152612e3d8185612b5d565b90508181036060830152612e518184612b5d565b905095945050505050565b600060a082019050612e716000830188612a53565b612e7e6020830187612a53565b612e8b6040830186612a53565b612e986060830185612c3e565b612ea56080830184612a53565b9695505050505050565b6000819050919050565b6000612ed4612ecf612eca84612975565b612eaf565b612975565b9050919050565b6000612ee682612eb9565b9050919050565b6000612ef882612edb565b9050919050565b612f0881612eed565b82525050565b6000602082019050612f236000830184612eff565b92915050565b6000606082019050612f3e6000830186612a53565b612f4b6020830185612a53565b612f586040830184612a53565b949350505050565b600061010082019050612f76600083018b612a53565b612f83602083018a612a53565b612f906040830189612a53565b612f9d6060830188612a53565b612faa6080830187612a53565b612fb760a0830186612a53565b612fc460c0830185612c3e565b612fd160e0830184612a53565b9998505050505050505050565b600082825260208201905092915050565b7f426174746c65206e6f7420737461727465640000000000000000000000000000600082015250565b6000613025601283612fde565b915061303082612fef565b602082019050919050565b6000602082019050818103600083015261305481613018565b9050919050565b7f426174746c6520656e6465640000000000000000000000000000000000000000600082015250565b6000613091600c83612fde565b915061309c8261305b565b602082019050919050565b600060208201905081810360008301526130c081613084565b9050919050565b7f416c726561647920766f74656400000000000000000000000000000000000000600082015250565b60006130fd600d83612fde565b9150613108826130c7565b602082019050919050565b6000602082019050818103600083015261312c816130f0565b9050919050565b7f496e76616c696420746f6b656e00000000000000000000000000000000000000600082015250565b6000613169600d83612fde565b915061317482613133565b602082019050919050565b600060208201905081810360008301526131988161315c565b9050919050565b7f4e6f20766f74696e6720706f7765720000000000000000000000000000000000600082015250565b60006131d5600f83612fde565b91506131e08261319f565b602082019050919050565b60006020820190508181036000830152613204816131c8565b9050919050565b7f4e487b7100000000000000000000000000000000000000000000000000000000600052601160045260246000fd5b60006132458261293f565b91506132508361293f565b92508282019050808211156132685761326761320b565b5b92915050565b60008151905061327d81612949565b92915050565b60006020828403121561329957613298612935565b5b60006132a78482850161326e565b91505092915050565b7f4e487b7100000000000000000000000000000000000000000000000000000000600052604160045260246000fd5b7f4e487b7100000000000000000000000000000000000000000000000000000000600052601260045260246000fd5b60006133198261293f565b91506133248361293f565b925082613334576133336132df565b5b828204905092915050565b600061334a8261293f565b91506133558361293f565b925082613365576133646132df565b5b828206905092915050565b7f4e487b7100000000000000000000000000000000000000000000000000000000600052603260045260246000fd5b7f496e73756666696369656e74206372656174696f6e2066656500000000000000600082015250565b60006133d5601983612fde565b91506133e08261339f565b602082019050919050565b60006020820190508181036000830152613404816133c8565b9050919050565b7f43616e6e6f7420626174746c652073616d6520746f6b656e0000000000000000600082015250565b6000613441601883612fde565b915061344c8261340b565b602082019050919050565b6000602082019050818103600083015261347081613434565b9050919050565b600080fd5b600080fd5b6000601f19601f8301169050919050565b61349b82613481565b810181811067ffffffffffffffff821117156134ba576134b96132b0565b5b80604052505050565b60006134cd61292b565b90506134d98282613492565b919050565b600067ffffffffffffffff8211156134f9576134f86132b0565b5b61350282613481565b9050602081019050919050565b60005b8381101561352d578082015181840152602081019050613512565b60008484015250505050565b600061354c613547846134de565b6134c3565b9050828152602081018484840111156135685761356761347c565b5b61357384828561350f565b509392505050565b600082601f8301126135905761358f613477565b5b81516135a0848260208601613539565b91505092915050565b6000815190506135b8816129a7565b92915050565b600381106135cb57600080fd5b50565b6000815190506135dd816135be565b92915050565b600080600080600080600080610100898b03121561360457613603612935565b5b600089015167ffffffffffffffff8111156136225761362161293a565b5b61362e8b828c0161357b565b985050602089015167ffffffffffffffff81111561364f5761364e61293a565b5b61365b8b828c0161357b565b975050604089015167ffffffffffffffff81111561367c5761367b61293a565b5b6136888b828c0161357b565b965050606089015167ffffffffffffffff8111156136a9576136a861293a565b5b6136b58b828c0161357b565b95505060806136c68b828c016135a9565b94505060a06136d78b828c016135ce565b93505060c06136e88b828c0161326e565b92505060e06136f98b828c0161326e565b9150509295985092959890939650565b7f4e487b7100000000000000000000000000000000000000000000000000000000600052602160045260246000fd5b7f4f6e6c792067726164756174656420746f6b656e732063616e20626174746c65600082015250565b600061376e602083612fde565b915061377982613738565b602082019050919050565b6000602082019050818103600083015261379d81613761565b9050919050565b7f496e73756666696369656e7420746f6b656e20737570706c7900000000000000600082015250565b60006137da601983612fde565b91506137e5826137a4565b602082019050919050565b60006020820190508181036000830152613809816137cd565b9050919050565b600061381b8261293f565b91507fffffffffffffffffffffffffffffffffffffffffffffffffffffffffffffffff820361384d5761384c61320b565b5b600182019050919050565b600060408201905061386d6000830185612a53565b61387a6020830184612a53565b9392505050565b7f426174746c65206e6f7420656e64656400000000000000000000000000000000600082015250565b60006138b7601083612fde565b91506138c282613881565b602082019050919050565b600060208201905081810360008301526138e6816138aa565b9050919050565b7f416c726561647920736574746c65640000000000000000000000000000000000600082015250565b6000613923600f83612fde565b915061392e826138ed565b602082019050919050565b6000602082019050818103600083015261395281613916565b9050919050565b600067ffffffffffffffff821115613974576139736132b0565b5b602082029050602081019050919050565b600080fd5b600080fd5b600080fd5b600061014082840312156139ab576139aa61398a565b5b6139b66101406134c3565b905060006139c6848285016135a9565b600083015250602082015167ffffffffffffffff8111156139ea576139e961398f565b5b6139f68482850161357b565b602083015250604082015167ffffffffffffffff811115613a1a57613a1961398f565b5b613a268482850161357b565b604083015250606082015167ffffffffffffffff811115613a4a57613a4961398f565b5b613a568482850161357b565b606083015250608082015167ffffffffffffffff811115613a7a57613a7961398f565b5b613a868482850161357b565b60808301525060a0613a9a848285016135a9565b60a08301525060c0613aae848285016135ce565b60c08301525060e0613ac28482850161326e565b60e083015250610100613ad78482850161326e565b61010083015250610120613aed8482850161326e565b6101208301525092915050565b6000613b0d613b0884613959565b6134c3565b90508083825260208201905060208402830185811115613b3057613b2f613985565b5b835b81811015613b7757805167ffffffffffffffff811115613b5557613b54613477565b5b808601613b628982613994565b85526020850194505050602081019050613b32565b5050509392505050565b600082601f830112613b9657613b95613477565b5b8151613ba6848260208601613afa565b91505092915050565b600060208284031215613bc557613bc4612935565b5b600082015167ffffffffffffffff811115613be357613be261293a565b5b613bef84828501613b81565b9150509291505056fea264697066735822122002c33e26a66e54506703f0991769a9a46dc7a0047feb3c7c9e8222623d445eb764736f6c634300081c0033",
  "linkReferences": {},
  "deployedLinkReferences": {}
}