{
  "_format": "hh-sol-artifact-1",
  "contractName": "Factory",
  "sourceName": "contracts/MemedFactory.sol",
  "abi": [
    {
      "inputs": [],
      "stateMutability": "nonpayable",
      "type": "constructor"
    },
    {
      "inputs": [
        {
          "internalType": "address",
          "name": "owner",
          "type": "address"
        }
      ],
      "name": "OwnableInvalidOwner",
      "type": "error"
    },
    {
      "inputs": [
        {
          "internalType": "address",
          "name": "account",
          "type": "address"
        }
      ],
      "name": "OwnableUnauthorizedAccount",
      "type": "error"
    },
    {
      "anonymous": false,
      "inputs": [
        {
          "indexed": true,
          "internalType": "address",
          "name": "previousOwner",
          "type": "address"
        },
        {
          "indexed": true,
          "internalType": "address",
          "name": "newOwner",
          "type": "address"
        }
      ],
      "name": "OwnershipTransferred",
      "type": "event"
    },
    {
      "anonymous": false,
      "inputs": [
        {
          "indexed": true,
          "internalType": "address",
          "name": "token",
          "type": "address"
        },
        {
          "indexed": true,
          "internalType": "address",
          "name": "owner",
          "type": "address"
        },
        {
          "indexed": false,
          "internalType": "string",
          "name": "name",
          "type": "string"
        },
        {
          "indexed": false,
          "internalType": "string",
          "name": "ticker",
          "type": "string"
        },
        {
          "indexed": false,
          "internalType": "string",
          "name": "description",
          "type": "string"
        },
        {
          "indexed": false,
          "internalType": "string",
          "name": "image",
          "type": "string"
        },
        {
          "indexed": false,
          "internalType": "uint256",
          "name": "createdAt",
          "type": "uint256"
        }
      ],
      "name": "TokenCreated",
      "type": "event"
    },
    {
      "anonymous": false,
      "inputs": [
        {
          "indexed": true,
          "internalType": "address",
          "name": "token",
          "type": "address"
        },
        {
          "indexed": true,
          "internalType": "address",
          "name": "pool",
          "type": "address"
        }
      ],
      "name": "TokenGraduated",
      "type": "event"
    },
    {
      "anonymous": false,
      "inputs": [
        {
          "indexed": true,
          "internalType": "address",
          "name": "token",
          "type": "address"
        },
        {
          "indexed": true,
          "internalType": "address",
          "name": "buyer",
          "type": "address"
        },
        {
          "indexed": false,
          "internalType": "uint256",
          "name": "amount",
          "type": "uint256"
        },
        {
          "indexed": false,
          "internalType": "uint256",
          "name": "totalPrice",
          "type": "uint256"
        }
      ],
      "name": "TokensBought",
      "type": "event"
    },
    {
      "anonymous": false,
      "inputs": [
        {
          "indexed": true,
          "internalType": "address",
          "name": "token",
          "type": "address"
        },
        {
          "indexed": true,
          "internalType": "address",
          "name": "seller",
          "type": "address"
        },
        {
          "indexed": false,
          "internalType": "uint256",
          "name": "amount",
          "type": "uint256"
        },
        {
          "indexed": false,
          "internalType": "uint256",
          "name": "totalPrice",
          "type": "uint256"
        }
      ],
      "name": "TokensSold",
      "type": "event"
    },
    {
      "inputs": [],
      "name": "SCALING_FACTOR",
      "outputs": [
        {
          "internalType": "uint256",
          "name": "",
          "type": "uint256"
        }
      ],
      "stateMutability": "view",
      "type": "function"
    },
    {
      "inputs": [
        {
          "internalType": "address",
          "name": "_token",
          "type": "address"
        },
        {
          "internalType": "uint256",
          "name": "_amount",
          "type": "uint256"
        }
      ],
      "name": "buy",
      "outputs": [],
      "stateMutability": "payable",
      "type": "function"
    },
    {
      "inputs": [
        {
          "internalType": "string",
          "name": "_name",
          "type": "string"
        },
        {
          "internalType": "string",
          "name": "_ticker",
          "type": "string"
        },
        {
          "internalType": "string",
          "name": "_description",
          "type": "string"
        },
        {
          "internalType": "string",
          "name": "_image",
          "type": "string"
        }
      ],
      "name": "createMeme",
      "outputs": [],
      "stateMutability": "payable",
      "type": "function"
    },
    {
      "inputs": [],
      "name": "creationFee",
      "outputs": [
        {
          "internalType": "uint256",
          "name": "",
          "type": "uint256"
        }
      ],
      "stateMutability": "view",
      "type": "function"
    },
    {
      "inputs": [],
      "name": "feesBalance",
      "outputs": [
        {
          "internalType": "uint256",
          "name": "",
          "type": "uint256"
        }
      ],
      "stateMutability": "view",
      "type": "function"
    },
    {
      "inputs": [
        {
          "internalType": "address",
          "name": "_token",
          "type": "address"
        },
        {
          "internalType": "uint256",
          "name": "_amount",
          "type": "uint256"
        }
      ],
      "name": "getBNBAmount",
      "outputs": [
        {
          "internalType": "uint256[3]",
          "name": "",
          "type": "uint256[3]"
        }
      ],
      "stateMutability": "view",
      "type": "function"
    },
    {
      "inputs": [
        {
          "internalType": "address",
          "name": "_token",
          "type": "address"
        }
      ],
      "name": "getTokens",
      "outputs": [
        {
          "components": [
            {
              "internalType": "address",
              "name": "token",
              "type": "address"
            },
            {
              "internalType": "string",
              "name": "name",
              "type": "string"
            },
            {
              "internalType": "string",
              "name": "ticker",
              "type": "string"
            },
            {
              "internalType": "string",
              "name": "description",
              "type": "string"
            },
            {
              "internalType": "string",
              "name": "image",
              "type": "string"
            },
            {
              "internalType": "address",
              "name": "owner",
              "type": "address"
            },
            {
              "internalType": "enum Factory.TokenStages",
              "name": "stage",
              "type": "uint8"
            },
            {
              "internalType": "uint256",
              "name": "collateral",
              "type": "uint256"
            },
            {
              "internalType": "uint256",
              "name": "supply",
              "type": "uint256"
            },
            {
              "internalType": "uint256",
              "name": "createdAt",
              "type": "uint256"
            }
          ],
          "internalType": "struct Factory.AllTokenData[]",
          "name": "",
          "type": "tuple[]"
        }
      ],
      "stateMutability": "view",
      "type": "function"
    },
    {
      "inputs": [],
      "name": "graduationAmount",
      "outputs": [
        {
          "internalType": "uint256",
          "name": "",
          "type": "uint256"
        }
      ],
      "stateMutability": "view",
      "type": "function"
    },
    {
      "inputs": [],
      "name": "k",
      "outputs": [
        {
          "internalType": "uint256",
          "name": "",
          "type": "uint256"
        }
      ],
      "stateMutability": "view",
      "type": "function"
    },
    {
      "inputs": [],
      "name": "maxSupply",
      "outputs": [
        {
          "internalType": "uint256",
          "name": "",
          "type": "uint256"
        }
      ],
      "stateMutability": "view",
      "type": "function"
    },
    {
      "inputs": [],
      "name": "offset",
      "outputs": [
        {
          "internalType": "uint256",
          "name": "",
          "type": "uint256"
        }
      ],
      "stateMutability": "view",
      "type": "function"
    },
    {
      "inputs": [],
      "name": "owner",
      "outputs": [
        {
          "internalType": "address",
          "name": "",
          "type": "address"
        }
      ],
      "stateMutability": "view",
      "type": "function"
    },
    {
      "inputs": [],
      "name": "renounceOwnership",
      "outputs": [],
      "stateMutability": "nonpayable",
      "type": "function"
    },
    {
      "inputs": [
        {
          "internalType": "address",
          "name": "_token",
          "type": "address"
        },
        {
          "internalType": "uint256",
          "name": "_amount",
          "type": "uint256"
        }
      ],
      "name": "sell",
      "outputs": [],
      "stateMutability": "nonpayable",
      "type": "function"
    },
    {
      "inputs": [
        {
          "internalType": "uint256",
          "name": "_amount",
          "type": "uint256"
        }
      ],
      "name": "setGraduationAmount",
      "outputs": [],
      "stateMutability": "nonpayable",
      "type": "function"
    },
    {
      "inputs": [
        {
          "internalType": "address",
          "name": "",
          "type": "address"
        }
      ],
      "name": "tokenData",
      "outputs": [
        {
          "internalType": "string",
          "name": "name",
          "type": "string"
        },
        {
          "internalType": "string",
          "name": "ticker",
          "type": "string"
        },
        {
          "internalType": "string",
          "name": "description",
          "type": "string"
        },
        {
          "internalType": "string",
          "name": "image",
          "type": "string"
        },
        {
          "internalType": "address",
          "name": "owner",
          "type": "address"
        },
        {
          "internalType": "enum Factory.TokenStages",
          "name": "stage",
          "type": "uint8"
        },
        {
          "internalType": "uint256",
          "name": "collateral",
          "type": "uint256"
        },
        {
          "internalType": "uint256",
          "name": "createdAt",
          "type": "uint256"
        }
      ],
      "stateMutability": "view",
      "type": "function"
    },
    {
      "inputs": [
        {
          "internalType": "uint256",
          "name": "",
          "type": "uint256"
        }
      ],
      "name": "tokens",
      "outputs": [
        {
          "internalType": "address",
          "name": "",
          "type": "address"
        }
      ],
      "stateMutability": "view",
      "type": "function"
    },
    {
      "inputs": [],
      "name": "tradeFeePercent",
      "outputs": [
        {
          "internalType": "uint256",
          "name": "",
          "type": "uint256"
        }
      ],
      "stateMutability": "view",
      "type": "function"
    },
    {
      "inputs": [
        {
          "internalType": "address",
          "name": "newOwner",
          "type": "address"
        }
      ],
      "name": "transferOwnership",
      "outputs": [],
      "stateMutability": "nonpayable",
      "type": "function"
    },
    {
      "stateMutability": "payable",
      "type": "receive"
    }
  ],
  "bytecode": "0x608060405273b7926c0430afb07aa7defde6da862ae0bde767bc600160006101000a81548173ffffffffffffffffffffffffffffffffffffffff021916908373ffffffffffffffffffffffffffffffffffffffff160217905550739ac64cc6e4415144c455bd8e4837fea55603e5c3600260006101000a81548173ffffffffffffffffffffffffffffffffffffffff021916908373ffffffffffffffffffffffffffffffffffffffff16021790555066b1a2bc2ec500006003553480156100c557600080fd5b5033600073ffffffffffffffffffffffffffffffffffffffff168173ffffffffffffffffffffffffffffffffffffffff16036101395760006040517f1e4fbdf70000000000000000000000000000000000000000000000000000000081526004016101309190610253565b60405180910390fd5b6101488161014e60201b60201c565b5061026e565b60008060009054906101000a900473ffffffffffffffffffffffffffffffffffffffff169050816000806101000a81548173ffffffffffffffffffffffffffffffffffffffff021916908373ffffffffffffffffffffffffffffffffffffffff1602179055508173ffffffffffffffffffffffffffffffffffffffff168173ffffffffffffffffffffffffffffffffffffffff167f8be0079c531659141344cd1fd0a4f28419497f9722a3daafe3b4186f6b6457e060405160405180910390a35050565b600073ffffffffffffffffffffffffffffffffffffffff82169050919050565b600061023d82610212565b9050919050565b61024d81610232565b82525050565b60006020820190506102686000830184610244565b92915050565b6152918061027d6000396000f3fe6080604052600436106101185760003560e01c8063a6fd28a4116100a0578063d555654411610064578063d555654414610397578063d5abeb01146103c2578063dce0b4e4146103ed578063ef4cadc514610418578063f2fde38b146104435761011f565b8063a6fd28a4146102cc578063ac0e0a6d146102e8578063b4f40c6114610325578063cce7ec1314610350578063cf60a1dc1461036c5761011f565b80636c197ff5116100e75780636c197ff51461020d5780636d36f6c314610236578063715018a61461025f5780637518c965146102765780638da5cb5b146102a15761011f565b806327e45c2c14610124578063450efe21146101685780634f64b2be146101a557806369b253e3146101e25761011f565b3661011f57005b600080fd5b34801561013057600080fd5b5061014b600480360381019061014691906124ec565b61046c565b60405161015f989796959493929190612648565b60405180910390f35b34801561017457600080fd5b5061018f600480360381019061018a91906124ec565b610701565b60405161019c919061290a565b60405180910390f35b3480156101b157600080fd5b506101cc60048036038101906101c79190612958565b610db4565b6040516101d99190612985565b60405180910390f35b3480156101ee57600080fd5b506101f7610df3565b60405161020491906129a0565b60405180910390f35b34801561021957600080fd5b50610234600480360381019061022f91906129bb565b610df8565b005b34801561024257600080fd5b5061025d60048036038101906102589190612958565b6111a1565b005b34801561026b57600080fd5b506102746111b3565b005b34801561028257600080fd5b5061028b6111c7565b60405161029891906129a0565b60405180910390f35b3480156102ad57600080fd5b506102b66111cd565b6040516102c39190612985565b60405180910390f35b6102e660048036038101906102e19190612a60565b6111f6565b005b3480156102f457600080fd5b5061030f600480360381019061030a91906129bb565b61161a565b60405161031c9190612be5565b60405180910390f35b34801561033157600080fd5b5061033a611749565b60405161034791906129a0565b60405180910390f35b61036a600480360381019061036591906129bb565b61174f565b005b34801561037857600080fd5b50610381611ad6565b60405161038e91906129a0565b60405180910390f35b3480156103a357600080fd5b506103ac611adc565b6040516103b991906129a0565b60405180910390f35b3480156103ce57600080fd5b506103d7611aed565b6040516103e491906129a0565b60405180910390f35b3480156103f957600080fd5b50610402611afd565b60405161040f91906129a0565b60405180910390f35b34801561042457600080fd5b5061042d611b08565b60405161043a91906129a0565b60405180910390f35b34801561044f57600080fd5b5061046a600480360381019061046591906124ec565b611b14565b005b600560205280600052604060002060009150905080600001805461048f90612c2f565b80601f01602080910402602001604051908101604052809291908181526020018280546104bb90612c2f565b80156105085780601f106104dd57610100808354040283529160200191610508565b820191906000526020600020905b8154815290600101906020018083116104eb57829003601f168201915b50505050509080600101805461051d90612c2f565b80601f016020809104026020016040519081016040528092919081815260200182805461054990612c2f565b80156105965780601f1061056b57610100808354040283529160200191610596565b820191906000526020600020905b81548152906001019060200180831161057957829003601f168201915b5050505050908060020180546105ab90612c2f565b80601f01602080910402602001604051908101604052809291908181526020018280546105d790612c2f565b80156106245780601f106105f957610100808354040283529160200191610624565b820191906000526020600020905b81548152906001019060200180831161060757829003601f168201915b50505050509080600301805461063990612c2f565b80601f016020809104026020016040519081016040528092919081815260200182805461066590612c2f565b80156106b25780601f10610687576101008083540402835291602001916106b2565b820191906000526020600020905b81548152906001019060200180831161069557829003601f168201915b5050505050908060040160009054906101000a900473ffffffffffffffffffffffffffffffffffffffff16908060040160149054906101000a900460ff16908060050154908060060154905088565b606060008073ffffffffffffffffffffffffffffffffffffffff168373ffffffffffffffffffffffffffffffffffffffff160361074357600680549050610746565b60015b905060008167ffffffffffffffff81111561076457610763612c60565b5b60405190808252806020026020018201604052801561079d57816020015b61078a6123c4565b8152602001906001900390816107825790505b50905060005b82811015610da95760008073ffffffffffffffffffffffffffffffffffffffff168673ffffffffffffffffffffffffffffffffffffffff160361082457600682815481106107f4576107f3612c8f565b5b9060005260206000200160009054906101000a900473ffffffffffffffffffffffffffffffffffffffff16610826565b855b905060008190506040518061014001604052808373ffffffffffffffffffffffffffffffffffffffff168152602001600560008573ffffffffffffffffffffffffffffffffffffffff1673ffffffffffffffffffffffffffffffffffffffff16815260200190815260200160002060000180546108a290612c2f565b80601f01602080910402602001604051908101604052809291908181526020018280546108ce90612c2f565b801561091b5780601f106108f05761010080835404028352916020019161091b565b820191906000526020600020905b8154815290600101906020018083116108fe57829003601f168201915b50505050508152602001600560008573ffffffffffffffffffffffffffffffffffffffff1673ffffffffffffffffffffffffffffffffffffffff168152602001908152602001600020600101805461097290612c2f565b80601f016020809104026020016040519081016040528092919081815260200182805461099e90612c2f565b80156109eb5780601f106109c0576101008083540402835291602001916109eb565b820191906000526020600020905b8154815290600101906020018083116109ce57829003601f168201915b50505050508152602001600560008573ffffffffffffffffffffffffffffffffffffffff1673ffffffffffffffffffffffffffffffffffffffff1681526020019081526020016000206002018054610a4290612c2f565b80601f0160208091040260200160405190810160405280929190818152602001828054610a6e90612c2f565b8015610abb5780601f10610a9057610100808354040283529160200191610abb565b820191906000526020600020905b815481529060010190602001808311610a9e57829003601f168201915b50505050508152602001600560008573ffffffffffffffffffffffffffffffffffffffff1673ffffffffffffffffffffffffffffffffffffffff1681526020019081526020016000206003018054610b1290612c2f565b80601f0160208091040260200160405190810160405280929190818152602001828054610b3e90612c2f565b8015610b8b5780601f10610b6057610100808354040283529160200191610b8b565b820191906000526020600020905b815481529060010190602001808311610b6e57829003601f168201915b50505050508152602001600560008573ffffffffffffffffffffffffffffffffffffffff1673ffffffffffffffffffffffffffffffffffffffff16815260200190815260200160002060040160009054906101000a900473ffffffffffffffffffffffffffffffffffffffff1673ffffffffffffffffffffffffffffffffffffffff168152602001600560008573ffffffffffffffffffffffffffffffffffffffff1673ffffffffffffffffffffffffffffffffffffffff16815260200190815260200160002060040160149054906101000a900460ff166002811115610c7557610c746125b8565b5b8152602001600560008573ffffffffffffffffffffffffffffffffffffffff1673ffffffffffffffffffffffffffffffffffffffff1681526020019081526020016000206005015481526020018273ffffffffffffffffffffffffffffffffffffffff166318160ddd6040518163ffffffff1660e01b8152600401602060405180830381865afa158015610d0d573d6000803e3d6000fd5b505050506040513d601f19601f82011682018060405250810190610d319190612cd3565b8152602001600560008573ffffffffffffffffffffffffffffffffffffffff1673ffffffffffffffffffffffffffffffffffffffff16815260200190815260200160002060060154815250848481518110610d8f57610d8e612c8f565b5b6020026020010181905250505080806001019150506107a3565b508092505050919050565b60068181548110610dc457600080fd5b906000526020600020016000915054906101000a900473ffffffffffffffffffffffffffffffffffffffff1681565b600a81565b60016002811115610e0c57610e0b6125b8565b5b600560008473ffffffffffffffffffffffffffffffffffffffff1673ffffffffffffffffffffffffffffffffffffffff16815260200190815260200160002060040160149054906101000a900460ff166002811115610e6e57610e6d6125b8565b5b14610eae576040517f08c379a0000000000000000000000000000000000000000000000000000000008152600401610ea590612d4c565b60405180910390fd5b6000829050818173ffffffffffffffffffffffffffffffffffffffff166370a08231336040518263ffffffff1660e01b8152600401610eed9190612985565b602060405180830381865afa158015610f0a573d6000803e3d6000fd5b505050506040513d601f19601f82011682018060405250810190610f2e9190612cd3565b1015610f6f576040517f08c379a0000000000000000000000000000000000000000000000000000000008152600401610f6690612db8565b60405180910390fd5b6000610f7b848461161a565b9050600081600060038110610f9357610f92612c8f565b5b6020020151905080471015610fdd576040517f08c379a0000000000000000000000000000000000000000000000000000000008152600401610fd490612e24565b60405180910390fd5b81600260038110610ff157610ff0612c8f565b5b6020020151600460008282546110079190612e73565b925050819055508273ffffffffffffffffffffffffffffffffffffffff16639dc29fac33866040518363ffffffff1660e01b8152600401611049929190612ea7565b600060405180830381600087803b15801561106357600080fd5b505af1158015611077573d6000803e3d6000fd5b505050508160016003811061108f5761108e612c8f565b5b6020020151600560008773ffffffffffffffffffffffffffffffffffffffff1673ffffffffffffffffffffffffffffffffffffffff16815260200190815260200160002060050160008282546110e59190612ed0565b925050819055503373ffffffffffffffffffffffffffffffffffffffff166108fc829081150290604051600060405180830381858888f19350505050158015611132573d6000803e3d6000fd5b503373ffffffffffffffffffffffffffffffffffffffff168573ffffffffffffffffffffffffffffffffffffffff167f697c42d55a5e1fed3f464ec6f38b32546a0bd368dc8068b065c67566d73f32908684604051611192929190612f04565b60405180910390a35050505050565b6111a9611b9a565b8060038190555050565b6111bb611b9a565b6111c56000611c21565b565b60045481565b60008060009054906101000a900473ffffffffffffffffffffffffffffffffffffffff16905090565b66071afd498d0000341015611240576040517f08c379a000000000000000000000000000000000000000000000000000000000815260040161123790612f9f565b60405180910390fd5b66071afd498d0000600460008282546112599190612e73565b9250508190555060008888888860405161127290612455565b61127f9493929190612ffb565b604051809103906000f08015801561129b573d6000803e3d6000fd5b5090506040518061010001604052808a8a8080601f016020809104026020016040519081016040528093929190818152602001838380828437600081840152601f19601f82011690508083019250505050505050815260200188888080601f016020809104026020016040519081016040528093929190818152602001838380828437600081840152601f19601f82011690508083019250505050505050815260200186868080601f016020809104026020016040519081016040528093929190818152602001838380828437600081840152601f19601f82011690508083019250505050505050815260200184848080601f016020809104026020016040519081016040528093929190818152602001838380828437600081840152601f19601f8201169050808301925050505050505081526020013373ffffffffffffffffffffffffffffffffffffffff16815260200160016002811115611402576114016125b8565b5b81526020016000815260200142815250600560008373ffffffffffffffffffffffffffffffffffffffff1673ffffffffffffffffffffffffffffffffffffffff168152602001908152602001600020600082015181600001908161146691906131e2565b50602082015181600101908161147c91906131e2565b50604082015181600201908161149291906131e2565b5060608201518160030190816114a891906131e2565b5060808201518160040160006101000a81548173ffffffffffffffffffffffffffffffffffffffff021916908373ffffffffffffffffffffffffffffffffffffffff16021790555060a08201518160040160146101000a81548160ff0219169083600281111561151b5761151a6125b8565b5b021790555060c0820151816005015560e082015181600601559050506006819080600181540180825580915050600190039060005260206000200160009091909190916101000a81548173ffffffffffffffffffffffffffffffffffffffff021916908373ffffffffffffffffffffffffffffffffffffffff1602179055503373ffffffffffffffffffffffffffffffffffffffff168173ffffffffffffffffffffffffffffffffffffffff167f84955118c0d630fc7e75a789900ebfe299e639839ad94575fd88a843beda9fcf8b8b8b8b8b8b8b8b42604051611607999897969594939291906132b4565b60405180910390a3505050505050505050565b611622612462565b600083905060008173ffffffffffffffffffffffffffffffffffffffff166318160ddd6040518163ffffffff1660e01b8152600401602060405180830381865afa158015611674573d6000803e3d6000fd5b505050506040513d601f19601f820116820180604052508101906116989190612cd3565b9050600084826116a89190612e73565b905060006ceca8847c4129106ce8300000008261b71b6116c8919061332b565b6116d29190612e73565b90506000670de0b6b3a764000082886116eb919061332b565b6116f5919061339c565b90506000612710600a83611709919061332b565b611713919061339c565b90506040518060600160405280828461172c9190612ed0565b815260200183815260200182815250965050505050505092915050565b61b71b81565b60016002811115611763576117626125b8565b5b600560008473ffffffffffffffffffffffffffffffffffffffff1673ffffffffffffffffffffffffffffffffffffffff16815260200190815260200160002060040160149054906101000a900460ff1660028111156117c5576117c46125b8565b5b14611805576040517f08c379a00000000000000000000000000000000000000000000000000000000081526004016117fc90613419565b60405180910390fd5b60008290506000611816848461161a565b90508060006003811061182c5761182b612c8f565b5b6020020151341015611873576040517f08c379a000000000000000000000000000000000000000000000000000000000815260040161186a90613485565b60405180910390fd5b8060026003811061188757611886612c8f565b5b60200201516004600082825461189d9190612e73565b925050819055508173ffffffffffffffffffffffffffffffffffffffff166340c10f1933856040518363ffffffff1660e01b81526004016118df929190612ea7565b600060405180830381600087803b1580156118f957600080fd5b505af115801561190d573d6000803e3d6000fd5b505050508060016003811061192557611924612c8f565b5b6020020151600560008673ffffffffffffffffffffffffffffffffffffffff1673ffffffffffffffffffffffffffffffffffffffff168152602001908152602001600020600501600082825461197b9190612e73565b9250508190555060008160006003811061199857611997612c8f565b5b6020020151346119a89190612ed0565b905060008111156119fb573373ffffffffffffffffffffffffffffffffffffffff166108fc829081150290604051600060405180830381858888f193505050501580156119f9573d6000803e3d6000fd5b505b600354600560008773ffffffffffffffffffffffffffffffffffffffff1673ffffffffffffffffffffffffffffffffffffffff1681526020019081526020016000206005015410611a5057611a4f85611ce5565b5b3373ffffffffffffffffffffffffffffffffffffffff168573ffffffffffffffffffffffffffffffffffffffff167fc244d500136edffae7025aaf7fbd7a07193ac544a1d0cc3132cf2a32452d340c8685600160038110611ab457611ab3612c8f565b5b6020020151604051611ac7929190612f04565b60405180910390a35050505050565b60035481565b6ceca8847c4129106ce83000000081565b6b033b2e3c9fd0803ce800000081565b66071afd498d000081565b670de0b6b3a764000081565b611b1c611b9a565b600073ffffffffffffffffffffffffffffffffffffffff168173ffffffffffffffffffffffffffffffffffffffff1603611b8e5760006040517f1e4fbdf7000000000000000000000000000000000000000000000000000000008152600401611b859190612985565b60405180910390fd5b611b9781611c21565b50565b611ba26123bc565b73ffffffffffffffffffffffffffffffffffffffff16611bc06111cd565b73ffffffffffffffffffffffffffffffffffffffff1614611c1f57611be36123bc565b6040517f118cdaa7000000000000000000000000000000000000000000000000000000008152600401611c169190612985565b60405180910390fd5b565b60008060009054906101000a900473ffffffffffffffffffffffffffffffffffffffff169050816000806101000a81548173ffffffffffffffffffffffffffffffffffffffff021916908373ffffffffffffffffffffffffffffffffffffffff1602179055508173ffffffffffffffffffffffffffffffffffffffff168173ffffffffffffffffffffffffffffffffffffffff167f8be0079c531659141344cd1fd0a4f28419497f9722a3daafe3b4186f6b6457e060405160405180910390a35050565b600080600160009054906101000a900473ffffffffffffffffffffffffffffffffffffffff1673ffffffffffffffffffffffffffffffffffffffff1663e6a4390584600260009054906101000a900473ffffffffffffffffffffffffffffffffffffffff1673ffffffffffffffffffffffffffffffffffffffff1663ad5c46486040518163ffffffff1660e01b8152600401602060405180830381865afa158015611d94573d6000803e3d6000fd5b505050506040513d601f19601f82011682018060405250810190611db891906134ba565b6040518363ffffffff1660e01b8152600401611dd59291906134e7565b602060405180830381865afa158015611df2573d6000803e3d6000fd5b505050506040513d601f19601f82011682018060405250810190611e1691906134ba565b9050600073ffffffffffffffffffffffffffffffffffffffff168173ffffffffffffffffffffffffffffffffffffffff1603611f8357600160009054906101000a900473ffffffffffffffffffffffffffffffffffffffff1673ffffffffffffffffffffffffffffffffffffffff1663c9c6539684600260009054906101000a900473ffffffffffffffffffffffffffffffffffffffff1673ffffffffffffffffffffffffffffffffffffffff1663ad5c46486040518163ffffffff1660e01b8152600401602060405180830381865afa158015611ef8573d6000803e3d6000fd5b505050506040513d601f19601f82011682018060405250810190611f1c91906134ba565b6040518363ffffffff1660e01b8152600401611f399291906134e7565b6020604051808303816000875af1158015611f58573d6000803e3d6000fd5b505050506040513d601f19601f82011682018060405250810190611f7c91906134ba565b9150611f87565b8091505b60008390508073ffffffffffffffffffffffffffffffffffffffff1663af35c6c76040518163ffffffff1660e01b8152600401600060405180830381600087803b158015611fd457600080fd5b505af1158015611fe8573d6000803e3d6000fd5b505050508073ffffffffffffffffffffffffffffffffffffffff166340c10f1930606460146b033b2e3c9fd0803ce8000000612024919061332b565b61202e919061339c565b6040518363ffffffff1660e01b815260040161204b929190612ea7565b600060405180830381600087803b15801561206557600080fd5b505af1158015612079573d6000803e3d6000fd5b505050508073ffffffffffffffffffffffffffffffffffffffff1663095ea7b3600260009054906101000a900473ffffffffffffffffffffffffffffffffffffffff16606460146b033b2e3c9fd0803ce80000006120d7919061332b565b6120e1919061339c565b6040518363ffffffff1660e01b81526004016120fe929190612ea7565b6020604051808303816000875af115801561211d573d6000803e3d6000fd5b505050506040513d601f19601f820116820180604052508101906121419190613548565b50600260009054906101000a900473ffffffffffffffffffffffffffffffffffffffff1673ffffffffffffffffffffffffffffffffffffffff1663f305d71960646062600354612191919061332b565b61219b919061339c565b86606460146b033b2e3c9fd0803ce80000006121b7919061332b565b6121c1919061339c565b6000806000426040518863ffffffff1660e01b81526004016121e8969594939291906135b0565b60606040518083038185885af1158015612206573d6000803e3d6000fd5b50505050506040513d601f19601f8201168201806040525081019061222b9190613611565b505050600560008573ffffffffffffffffffffffffffffffffffffffff1673ffffffffffffffffffffffffffffffffffffffff16815260200190815260200160002060040160009054906101000a900473ffffffffffffffffffffffffffffffffffffffff1673ffffffffffffffffffffffffffffffffffffffff166108fc606460026003546122bb919061332b565b6122c5919061339c565b9081150290604051600060405180830381858888f193505050501580156122f0573d6000803e3d6000fd5b506002600560008673ffffffffffffffffffffffffffffffffffffffff1673ffffffffffffffffffffffffffffffffffffffff16815260200190815260200160002060040160146101000a81548160ff02191690836002811115612357576123566125b8565b5b02179055508273ffffffffffffffffffffffffffffffffffffffff168473ffffffffffffffffffffffffffffffffffffffff167f806ef27e0c58d1db68e3780cb50bde63b59139693b61ab9fdff83126acc3a9a060405160405180910390a350505050565b600033905090565b604051806101400160405280600073ffffffffffffffffffffffffffffffffffffffff16815260200160608152602001606081526020016060815260200160608152602001600073ffffffffffffffffffffffffffffffffffffffff1681526020016000600281111561243a576124396125b8565b5b81526020016000815260200160008152602001600081525090565b611bf78061366583390190565b6040518060600160405280600390602082028036833780820191505090505090565b600080fd5b600080fd5b600073ffffffffffffffffffffffffffffffffffffffff82169050919050565b60006124b98261248e565b9050919050565b6124c9816124ae565b81146124d457600080fd5b50565b6000813590506124e6816124c0565b92915050565b60006020828403121561250257612501612484565b5b6000612510848285016124d7565b91505092915050565b600081519050919050565b600082825260208201905092915050565b60005b83811015612553578082015181840152602081019050612538565b60008484015250505050565b6000601f19601f8301169050919050565b600061257b82612519565b6125858185612524565b9350612595818560208601612535565b61259e8161255f565b840191505092915050565b6125b2816124ae565b82525050565b7f4e487b7100000000000000000000000000000000000000000000000000000000600052602160045260246000fd5b600381106125f8576125f76125b8565b5b50565b6000819050612609826125e7565b919050565b6000612619826125fb565b9050919050565b6126298161260e565b82525050565b6000819050919050565b6126428161262f565b82525050565b6000610100820190508181036000830152612663818b612570565b90508181036020830152612677818a612570565b9050818103604083015261268b8189612570565b9050818103606083015261269f8188612570565b90506126ae60808301876125a9565b6126bb60a0830186612620565b6126c860c0830185612639565b6126d560e0830184612639565b9998505050505050505050565b600081519050919050565b600082825260208201905092915050565b6000819050602082019050919050565b612717816124ae565b82525050565b600082825260208201905092915050565b600061273982612519565b612743818561271d565b9350612753818560208601612535565b61275c8161255f565b840191505092915050565b6127708161260e565b82525050565b61277f8161262f565b82525050565b60006101408301600083015161279e600086018261270e565b50602083015184820360208601526127b6828261272e565b915050604083015184820360408601526127d0828261272e565b915050606083015184820360608601526127ea828261272e565b91505060808301518482036080860152612804828261272e565b91505060a083015161281960a086018261270e565b5060c083015161282c60c0860182612767565b5060e083015161283f60e0860182612776565b50610100830151612854610100860182612776565b50610120830151612869610120860182612776565b508091505092915050565b60006128808383612785565b905092915050565b6000602082019050919050565b60006128a0826126e2565b6128aa81856126ed565b9350836020820285016128bc856126fe565b8060005b858110156128f857848403895281516128d98582612874565b94506128e483612888565b925060208a019950506001810190506128c0565b50829750879550505050505092915050565b600060208201905081810360008301526129248184612895565b905092915050565b6129358161262f565b811461294057600080fd5b50565b6000813590506129528161292c565b92915050565b60006020828403121561296e5761296d612484565b5b600061297c84828501612943565b91505092915050565b600060208201905061299a60008301846125a9565b92915050565b60006020820190506129b56000830184612639565b92915050565b600080604083850312156129d2576129d1612484565b5b60006129e0858286016124d7565b92505060206129f185828601612943565b9150509250929050565b600080fd5b600080fd5b600080fd5b60008083601f840112612a2057612a1f6129fb565b5b8235905067ffffffffffffffff811115612a3d57612a3c612a00565b5b602083019150836001820283011115612a5957612a58612a05565b5b9250929050565b6000806000806000806000806080898b031215612a8057612a7f612484565b5b600089013567ffffffffffffffff811115612a9e57612a9d612489565b5b612aaa8b828c01612a0a565b9850985050602089013567ffffffffffffffff811115612acd57612acc612489565b5b612ad98b828c01612a0a565b9650965050604089013567ffffffffffffffff811115612afc57612afb612489565b5b612b088b828c01612a0a565b9450945050606089013567ffffffffffffffff811115612b2b57612b2a612489565b5b612b378b828c01612a0a565b92509250509295985092959890939650565b600060039050919050565b600081905092915050565b6000819050919050565b6000612b758383612776565b60208301905092915050565b6000602082019050919050565b612b9781612b49565b612ba18184612b54565b9250612bac82612b5f565b8060005b83811015612bdd578151612bc48782612b69565b9650612bcf83612b81565b925050600181019050612bb0565b505050505050565b6000606082019050612bfa6000830184612b8e565b92915050565b7f4e487b7100000000000000000000000000000000000000000000000000000000600052602260045260246000fd5b60006002820490506001821680612c4757607f821691505b602082108103612c5a57612c59612c00565b5b50919050565b7f4e487b7100000000000000000000000000000000000000000000000000000000600052604160045260246000fd5b7f4e487b7100000000000000000000000000000000000000000000000000000000600052603260045260246000fd5b600081519050612ccd8161292c565b92915050565b600060208284031215612ce957612ce8612484565b5b6000612cf784828501612cbe565b91505092915050565b7f496e76616c696420746f6b656e20737461676500000000000000000000000000600082015250565b6000612d36601383612524565b9150612d4182612d00565b602082019050919050565b60006020820190508181036000830152612d6581612d29565b9050919050565b7f496e73756666696369656e7420746f6b656e2062616c616e6365000000000000600082015250565b6000612da2601a83612524565b9150612dad82612d6c565b602082019050919050565b60006020820190508181036000830152612dd181612d95565b9050919050565b7f496e73756666696369656e7420636f6e74726163742062616c616e6365000000600082015250565b6000612e0e601d83612524565b9150612e1982612dd8565b602082019050919050565b60006020820190508181036000830152612e3d81612e01565b9050919050565b7f4e487b7100000000000000000000000000000000000000000000000000000000600052601160045260246000fd5b6000612e7e8261262f565b9150612e898361262f565b9250828201905080821115612ea157612ea0612e44565b5b92915050565b6000604082019050612ebc60008301856125a9565b612ec96020830184612639565b9392505050565b6000612edb8261262f565b9150612ee68361262f565b9250828203905081811115612efe57612efd612e44565b5b92915050565b6000604082019050612f196000830185612639565b612f266020830184612639565b9392505050565b7f496e73756666696369656e7420424e4220666f72206372656174696f6e20666560008201527f6500000000000000000000000000000000000000000000000000000000000000602082015250565b6000612f89602183612524565b9150612f9482612f2d565b604082019050919050565b60006020820190508181036000830152612fb881612f7c565b9050919050565b82818337600083830152505050565b6000612fda8385612524565b9350612fe7838584612fbf565b612ff08361255f565b840190509392505050565b60006040820190508181036000830152613016818688612fce565b9050818103602083015261302b818486612fce565b905095945050505050565b60008190508160005260206000209050919050565b60006020601f8301049050919050565b600082821b905092915050565b6000600883026130987fffffffffffffffffffffffffffffffffffffffffffffffffffffffffffffffff8261305b565b6130a2868361305b565b95508019841693508086168417925050509392505050565b6000819050919050565b60006130df6130da6130d58461262f565b6130ba565b61262f565b9050919050565b6000819050919050565b6130f9836130c4565b61310d613105826130e6565b848454613068565b825550505050565b600090565b613122613115565b61312d8184846130f0565b505050565b5b818110156131515761314660008261311a565b600181019050613133565b5050565b601f8211156131965761316781613036565b6131708461304b565b8101602085101561317f578190505b61319361318b8561304b565b830182613132565b50505b505050565b600082821c905092915050565b60006131b96000198460080261319b565b1980831691505092915050565b60006131d283836131a8565b9150826002028217905092915050565b6131eb82612519565b67ffffffffffffffff81111561320457613203612c60565b5b61320e8254612c2f565b613219828285613155565b600060209050601f83116001811461324c576000841561323a578287015190505b61324485826131c6565b8655506132ac565b601f19841661325a86613036565b60005b828110156132825784890151825560018201915060208501945060208101905061325d565b8683101561329f578489015161329b601f8916826131a8565b8355505b6001600288020188555050505b505050505050565b600060a08201905081810360008301526132cf818b8d612fce565b905081810360208301526132e481898b612fce565b905081810360408301526132f9818789612fce565b9050818103606083015261330e818587612fce565b905061331d6080830184612639565b9a9950505050505050505050565b60006133368261262f565b91506133418361262f565b925082820261334f8161262f565b9150828204841483151761336657613365612e44565b5b5092915050565b7f4e487b7100000000000000000000000000000000000000000000000000000000600052601260045260246000fd5b60006133a78261262f565b91506133b28361262f565b9250826133c2576133c161336d565b5b828204905092915050565b7f496e76616c696420746f6b656e00000000000000000000000000000000000000600082015250565b6000613403600d83612524565b915061340e826133cd565b602082019050919050565b60006020820190508181036000830152613432816133f6565b9050919050565b7f4e6f7420656e6f75676820424e4220666f722074726164650000000000000000600082015250565b600061346f601883612524565b915061347a82613439565b602082019050919050565b6000602082019050818103600083015261349e81613462565b9050919050565b6000815190506134b4816124c0565b92915050565b6000602082840312156134d0576134cf612484565b5b60006134de848285016134a5565b91505092915050565b60006040820190506134fc60008301856125a9565b61350960208301846125a9565b9392505050565b60008115159050919050565b61352581613510565b811461353057600080fd5b50565b6000815190506135428161351c565b92915050565b60006020828403121561355e5761355d612484565b5b600061356c84828501613533565b91505092915050565b6000819050919050565b600061359a61359561359084613575565b6130ba565b61262f565b9050919050565b6135aa8161357f565b82525050565b600060c0820190506135c560008301896125a9565b6135d26020830188612639565b6135df60408301876135a1565b6135ec60608301866135a1565b6135f960808301856125a9565b61360660a0830184612639565b979650505050505050565b60008060006060848603121561362a57613629612484565b5b600061363886828701612cbe565b935050602061364986828701612cbe565b925050604061365a86828701612cbe565b915050925092509256fe608060405234801561001057600080fd5b50604051611bf7380380611bf78339818101604052810190610032919061031b565b338282816003908161004491906105b4565b50806004908161005491906105b4565b505050600073ffffffffffffffffffffffffffffffffffffffff168173ffffffffffffffffffffffffffffffffffffffff16036100c95760006040517f1e4fbdf70000000000000000000000000000000000000000000000000000000081526004016100c091906106c7565b60405180910390fd5b6100d8816100e060201b60201c565b5050506106e2565b6000600560009054906101000a900473ffffffffffffffffffffffffffffffffffffffff16905081600560006101000a81548173ffffffffffffffffffffffffffffffffffffffff021916908373ffffffffffffffffffffffffffffffffffffffff1602179055508173ffffffffffffffffffffffffffffffffffffffff168173ffffffffffffffffffffffffffffffffffffffff167f8be0079c531659141344cd1fd0a4f28419497f9722a3daafe3b4186f6b6457e060405160405180910390a35050565b6000604051905090565b600080fd5b600080fd5b600080fd5b600080fd5b6000601f19601f8301169050919050565b7f4e487b7100000000000000000000000000000000000000000000000000000000600052604160045260246000fd5b61020d826101c4565b810181811067ffffffffffffffff8211171561022c5761022b6101d5565b5b80604052505050565b600061023f6101a6565b905061024b8282610204565b919050565b600067ffffffffffffffff82111561026b5761026a6101d5565b5b610274826101c4565b9050602081019050919050565b60005b8381101561029f578082015181840152602081019050610284565b60008484015250505050565b60006102be6102b984610250565b610235565b9050828152602081018484840111156102da576102d96101bf565b5b6102e5848285610281565b509392505050565b600082601f830112610302576103016101ba565b5b81516103128482602086016102ab565b91505092915050565b60008060408385031215610332576103316101b0565b5b600083015167ffffffffffffffff8111156103505761034f6101b5565b5b61035c858286016102ed565b925050602083015167ffffffffffffffff81111561037d5761037c6101b5565b5b610389858286016102ed565b9150509250929050565b600081519050919050565b7f4e487b7100000000000000000000000000000000000000000000000000000000600052602260045260246000fd5b600060028204905060018216806103e557607f821691505b6020821081036103f8576103f761039e565b5b50919050565b60008190508160005260206000209050919050565b60006020601f8301049050919050565b600082821b905092915050565b6000600883026104607fffffffffffffffffffffffffffffffffffffffffffffffffffffffffffffffff82610423565b61046a8683610423565b95508019841693508086168417925050509392505050565b6000819050919050565b6000819050919050565b60006104b16104ac6104a784610482565b61048c565b610482565b9050919050565b6000819050919050565b6104cb83610496565b6104df6104d7826104b8565b848454610430565b825550505050565b600090565b6104f46104e7565b6104ff8184846104c2565b505050565b5b81811015610523576105186000826104ec565b600181019050610505565b5050565b601f82111561056857610539816103fe565b61054284610413565b81016020851015610551578190505b61056561055d85610413565b830182610504565b50505b505050565b600082821c905092915050565b600061058b6000198460080261056d565b1980831691505092915050565b60006105a4838361057a565b9150826002028217905092915050565b6105bd82610393565b67ffffffffffffffff8111156105d6576105d56101d5565b5b6105e082546103cd565b6105eb828285610527565b600060209050601f83116001811461061e576000841561060c578287015190505b6106168582610598565b86555061067e565b601f19841661062c866103fe565b60005b828110156106545784890151825560018201915060208501945060208101905061062f565b86831015610671578489015161066d601f89168261057a565b8355505b6001600288020188555050505b505050505050565b600073ffffffffffffffffffffffffffffffffffffffff82169050919050565b60006106b182610686565b9050919050565b6106c1816106a6565b82525050565b60006020820190506106dc60008301846106b8565b92915050565b611506806106f16000396000f3fe608060405234801561001057600080fd5b50600436106101005760003560e01c80638da5cb5b11610097578063af35c6c711610066578063af35c6c71461029d578063bef97c87146102a7578063dd62ed3e146102c5578063f2fde38b146102f557610100565b80638da5cb5b1461021557806395d89b41146102335780639dc29fac14610251578063a9059cbb1461026d57610100565b8063313ce567116100d3578063313ce567146101a157806340c10f19146101bf57806370a08231146101db578063715018a61461020b57610100565b806306fdde0314610105578063095ea7b31461012357806318160ddd1461015357806323b872dd14610171575b600080fd5b61010d610311565b60405161011a9190611082565b60405180910390f35b61013d6004803603810190610138919061113d565b6103a3565b60405161014a9190611198565b60405180910390f35b61015b6103c6565b60405161016891906111c2565b60405180910390f35b61018b600480360381019061018691906111dd565b6103d0565b6040516101989190611198565b60405180910390f35b6101a96103ff565b6040516101b6919061124c565b60405180910390f35b6101d960048036038101906101d4919061113d565b610408565b005b6101f560048036038101906101f09190611267565b61041e565b60405161020291906111c2565b60405180910390f35b610213610466565b005b61021d61047a565b60405161022a91906112a3565b60405180910390f35b61023b6104a4565b6040516102489190611082565b60405180910390f35b61026b6004803603810190610266919061113d565b610536565b005b6102876004803603810190610282919061113d565b61054c565b6040516102949190611198565b60405180910390f35b6102a561056f565b005b6102af610616565b6040516102bc9190611198565b60405180910390f35b6102df60048036038101906102da91906112be565b610629565b6040516102ec91906111c2565b60405180910390f35b61030f600480360381019061030a9190611267565b6106b0565b005b6060600380546103209061132d565b80601f016020809104026020016040519081016040528092919081815260200182805461034c9061132d565b80156103995780601f1061036e57610100808354040283529160200191610399565b820191906000526020600020905b81548152906001019060200180831161037c57829003601f168201915b5050505050905090565b6000806103ae610736565b90506103bb81858561073e565b600191505092915050565b6000600254905090565b6000806103db610736565b90506103e8858285610750565b6103f38585856107e4565b60019150509392505050565b60006012905090565b6104106108d8565b61041a828261095f565b5050565b60008060008373ffffffffffffffffffffffffffffffffffffffff1673ffffffffffffffffffffffffffffffffffffffff168152602001908152602001600020549050919050565b61046e6108d8565b61047860006109e1565b565b6000600560009054906101000a900473ffffffffffffffffffffffffffffffffffffffff16905090565b6060600480546104b39061132d565b80601f01602080910402602001604051908101604052809291908181526020018280546104df9061132d565b801561052c5780601f106105015761010080835404028352916020019161052c565b820191906000526020600020905b81548152906001019060200180831161050f57829003601f168201915b5050505050905090565b61053e6108d8565b6105488282610aa7565b5050565b600080610557610736565b90506105648185856107e4565b600191505092915050565b6105776108d8565b60001515600560149054906101000a900460ff161515146105cd576040517f08c379a00000000000000000000000000000000000000000000000000000000081526004016105c4906113aa565b60405180910390fd5b6001600560146101000a81548160ff0219169083151502179055507feadb24812ab3c9a55c774958184293ebdb6c7f6a2dbab11f397d80c86feb65d360405160405180910390a1565b600560149054906101000a900460ff1681565b6000600160008473ffffffffffffffffffffffffffffffffffffffff1673ffffffffffffffffffffffffffffffffffffffff16815260200190815260200160002060008373ffffffffffffffffffffffffffffffffffffffff1673ffffffffffffffffffffffffffffffffffffffff16815260200190815260200160002054905092915050565b6106b86108d8565b600073ffffffffffffffffffffffffffffffffffffffff168173ffffffffffffffffffffffffffffffffffffffff160361072a5760006040517f1e4fbdf700000000000000000000000000000000000000000000000000000000815260040161072191906112a3565b60405180910390fd5b610733816109e1565b50565b600033905090565b61074b8383836001610b29565b505050565b600061075c8484610629565b90507fffffffffffffffffffffffffffffffffffffffffffffffffffffffffffffffff81146107de57818110156107ce578281836040517ffb8f41b20000000000000000000000000000000000000000000000000000000081526004016107c5939291906113ca565b60405180910390fd5b6107dd84848484036000610b29565b5b50505050565b600073ffffffffffffffffffffffffffffffffffffffff168373ffffffffffffffffffffffffffffffffffffffff16036108565760006040517f96c6fd1e00000000000000000000000000000000000000000000000000000000815260040161084d91906112a3565b60405180910390fd5b600073ffffffffffffffffffffffffffffffffffffffff168273ffffffffffffffffffffffffffffffffffffffff16036108c85760006040517fec442f050000000000000000000000000000000000000000000000000000000081526004016108bf91906112a3565b60405180910390fd5b6108d3838383610d00565b505050565b6108e0610736565b73ffffffffffffffffffffffffffffffffffffffff166108fe61047a565b73ffffffffffffffffffffffffffffffffffffffff161461095d57610921610736565b6040517f118cdaa700000000000000000000000000000000000000000000000000000000815260040161095491906112a3565b60405180910390fd5b565b600073ffffffffffffffffffffffffffffffffffffffff168273ffffffffffffffffffffffffffffffffffffffff16036109d15760006040517fec442f050000000000000000000000000000000000000000000000000000000081526004016109c891906112a3565b60405180910390fd5b6109dd60008383610d00565b5050565b6000600560009054906101000a900473ffffffffffffffffffffffffffffffffffffffff16905081600560006101000a81548173ffffffffffffffffffffffffffffffffffffffff021916908373ffffffffffffffffffffffffffffffffffffffff1602179055508173ffffffffffffffffffffffffffffffffffffffff168173ffffffffffffffffffffffffffffffffffffffff167f8be0079c531659141344cd1fd0a4f28419497f9722a3daafe3b4186f6b6457e060405160405180910390a35050565b600073ffffffffffffffffffffffffffffffffffffffff168273ffffffffffffffffffffffffffffffffffffffff1603610b195760006040517f96c6fd1e000000000000000000000000000000000000000000000000000000008152600401610b1091906112a3565b60405180910390fd5b610b2582600083610d00565b5050565b600073ffffffffffffffffffffffffffffffffffffffff168473ffffffffffffffffffffffffffffffffffffffff1603610b9b5760006040517fe602df05000000000000000000000000000000000000000000000000000000008152600401610b9291906112a3565b60405180910390fd5b600073ffffffffffffffffffffffffffffffffffffffff168373ffffffffffffffffffffffffffffffffffffffff1603610c0d5760006040517f94280d62000000000000000000000000000000000000000000000000000000008152600401610c0491906112a3565b60405180910390fd5b81600160008673ffffffffffffffffffffffffffffffffffffffff1673ffffffffffffffffffffffffffffffffffffffff16815260200190815260200160002060008573ffffffffffffffffffffffffffffffffffffffff1673ffffffffffffffffffffffffffffffffffffffff168152602001908152602001600020819055508015610cfa578273ffffffffffffffffffffffffffffffffffffffff168473ffffffffffffffffffffffffffffffffffffffff167f8c5be1e5ebec7d5bd14f71427d1e84f3dd0314c0f7b2291e5b200ac8c7c3b92584604051610cf191906111c2565b60405180910390a35b50505050565b600560149054906101000a900460ff1680610d475750600073ffffffffffffffffffffffffffffffffffffffff168373ffffffffffffffffffffffffffffffffffffffff16145b80610d7e5750600073ffffffffffffffffffffffffffffffffffffffff168273ffffffffffffffffffffffffffffffffffffffff16145b610dbd576040517f08c379a0000000000000000000000000000000000000000000000000000000008152600401610db49061144d565b60405180910390fd5b610dc8838383610dcd565b505050565b600073ffffffffffffffffffffffffffffffffffffffff168373ffffffffffffffffffffffffffffffffffffffff1603610e1f578060026000828254610e13919061149c565b92505081905550610ef2565b60008060008573ffffffffffffffffffffffffffffffffffffffff1673ffffffffffffffffffffffffffffffffffffffff16815260200190815260200160002054905081811015610eab578381836040517fe450d38c000000000000000000000000000000000000000000000000000000008152600401610ea2939291906113ca565b60405180910390fd5b8181036000808673ffffffffffffffffffffffffffffffffffffffff1673ffffffffffffffffffffffffffffffffffffffff16815260200190815260200160002081905550505b600073ffffffffffffffffffffffffffffffffffffffff168273ffffffffffffffffffffffffffffffffffffffff1603610f3b5780600260008282540392505081905550610f88565b806000808473ffffffffffffffffffffffffffffffffffffffff1673ffffffffffffffffffffffffffffffffffffffff168152602001908152602001600020600082825401925050819055505b8173ffffffffffffffffffffffffffffffffffffffff168373ffffffffffffffffffffffffffffffffffffffff167fddf252ad1be2c89b69c2b068fc378daa952ba7f163c4a11628f55a4df523b3ef83604051610fe591906111c2565b60405180910390a3505050565b600081519050919050565b600082825260208201905092915050565b60005b8381101561102c578082015181840152602081019050611011565b60008484015250505050565b6000601f19601f8301169050919050565b600061105482610ff2565b61105e8185610ffd565b935061106e81856020860161100e565b61107781611038565b840191505092915050565b6000602082019050818103600083015261109c8184611049565b905092915050565b600080fd5b600073ffffffffffffffffffffffffffffffffffffffff82169050919050565b60006110d4826110a9565b9050919050565b6110e4816110c9565b81146110ef57600080fd5b50565b600081359050611101816110db565b92915050565b6000819050919050565b61111a81611107565b811461112557600080fd5b50565b60008135905061113781611111565b92915050565b60008060408385031215611154576111536110a4565b5b6000611162858286016110f2565b925050602061117385828601611128565b9150509250929050565b60008115159050919050565b6111928161117d565b82525050565b60006020820190506111ad6000830184611189565b92915050565b6111bc81611107565b82525050565b60006020820190506111d760008301846111b3565b92915050565b6000806000606084860312156111f6576111f56110a4565b5b6000611204868287016110f2565b9350506020611215868287016110f2565b925050604061122686828701611128565b9150509250925092565b600060ff82169050919050565b61124681611230565b82525050565b6000602082019050611261600083018461123d565b92915050565b60006020828403121561127d5761127c6110a4565b5b600061128b848285016110f2565b91505092915050565b61129d816110c9565b82525050565b60006020820190506112b86000830184611294565b92915050565b600080604083850312156112d5576112d46110a4565b5b60006112e3858286016110f2565b92505060206112f4858286016110f2565b9150509250929050565b7f4e487b7100000000000000000000000000000000000000000000000000000000600052602260045260246000fd5b6000600282049050600182168061134557607f821691505b602082108103611358576113576112fe565b5b50919050565b7f416c726561647920656e61626c65640000000000000000000000000000000000600082015250565b6000611394600f83610ffd565b915061139f8261135e565b602082019050919050565b600060208201905081810360008301526113c381611387565b9050919050565b60006060820190506113df6000830186611294565b6113ec60208301856111b3565b6113f960408301846111b3565b949350505050565b7f5472616e73666572732061726520726573747269637465640000000000000000600082015250565b6000611437601883610ffd565b915061144282611401565b602082019050919050565b600060208201905081810360008301526114668161142a565b9050919050565b7f4e487b7100000000000000000000000000000000000000000000000000000000600052601160045260246000fd5b60006114a782611107565b91506114b283611107565b92508282019050808211156114ca576114c961146d565b5b9291505056fea2646970667358221220a683abc28a4ea9eefa4e7ab976d3821a8e3ebe4ffb0c394c7bd0358cabad8e2364736f6c634300081c0033a26469706673582212203386f3fc737f85e37b6ebab411c38c66556863deb84e8c1b1ebcfd1223f7d8a564736f6c634300081c0033",
  "linkReferences": {},
  "deployedLinkReferences": {}
}